Archive member included to satisfy reference by file (symbol)

/usr/lib/gcc/arm-none-eabi/6.3.1/thumb/v7e-m/fpv4-sp/hard/libgcc.a(_lshrdi3.o)
                              /home/aee38/Documents/qorc-sdk/qomu_apps/qomu_helloworldsw/GCC_Project/output/eoss3_hal_pad_config.o (__aeabi_llsr)
/usr/lib/gcc/arm-none-eabi/6.3.1/thumb/v7e-m/fpv4-sp/hard/libgcc.a(_ashldi3.o)
                              /home/aee38/Documents/qorc-sdk/qomu_apps/qomu_helloworldsw/GCC_Project/output/eoss3_hal_pad_config.o (__aeabi_llsl)
/usr/lib/gcc/arm-none-eabi/6.3.1/thumb/v7e-m/fpv4-sp/hard/libgcc.a(_arm_addsubdf3.o)
                              /home/aee38/Documents/qorc-sdk/qomu_apps/qomu_helloworldsw/GCC_Project/output/ql_test_signals.o (__aeabi_dadd)
/usr/lib/gcc/arm-none-eabi/6.3.1/thumb/v7e-m/fpv4-sp/hard/libgcc.a(_arm_muldivdf3.o)
                              /home/aee38/Documents/qorc-sdk/qomu_apps/qomu_helloworldsw/GCC_Project/output/ql_test_signals.o (__aeabi_dmul)
/usr/lib/gcc/arm-none-eabi/6.3.1/thumb/v7e-m/fpv4-sp/hard/libgcc.a(_arm_fixdfsi.o)
                              /home/aee38/Documents/qorc-sdk/qomu_apps/qomu_helloworldsw/GCC_Project/output/ql_test_signals.o (__aeabi_d2iz)
/usr/lib/gcc/arm-none-eabi/6.3.1/thumb/v7e-m/fpv4-sp/hard/libgcc.a(_arm_truncdfsf2.o)
                              /home/aee38/Documents/qorc-sdk/qomu_apps/qomu_helloworldsw/GCC_Project/output/eoss3_hal_i2c.o (__aeabi_d2f)
/usr/lib/gcc/arm-none-eabi/6.3.1/thumb/v7e-m/fpv4-sp/hard/libgcc.a(_aeabi_ldivmod.o)
                              /home/aee38/Documents/qorc-sdk/qomu_apps/qomu_helloworldsw/GCC_Project/output/dbg_uart.o (__aeabi_ldivmod)
/usr/lib/gcc/arm-none-eabi/6.3.1/thumb/v7e-m/fpv4-sp/hard/libgcc.a(_aeabi_uldivmod.o)
                              /home/aee38/Documents/qorc-sdk/qomu_apps/qomu_helloworldsw/GCC_Project/output/s3x_lpm.o (__aeabi_uldivmod)
/usr/lib/gcc/arm-none-eabi/6.3.1/thumb/v7e-m/fpv4-sp/hard/libgcc.a(_udivmoddi4.o)
                              /usr/lib/gcc/arm-none-eabi/6.3.1/thumb/v7e-m/fpv4-sp/hard/libgcc.a(_aeabi_ldivmod.o) (__udivmoddi4)
/usr/lib/gcc/arm-none-eabi/6.3.1/thumb/v7e-m/fpv4-sp/hard/libgcc.a(_dvmd_tls.o)
                              /usr/lib/gcc/arm-none-eabi/6.3.1/thumb/v7e-m/fpv4-sp/hard/libgcc.a(_aeabi_ldivmod.o) (__aeabi_ldiv0)
/usr/lib/gcc/arm-none-eabi/6.3.1/../../../arm-none-eabi/lib/thumb/v7e-m/fpv4-sp/hard/libg_nano.a(lib_a-atexit.o)
                              /usr/lib/gcc/arm-none-eabi/6.3.1/../../../arm-none-eabi/lib/thumb/v7e-m/fpv4-sp/hard/crt0.o (atexit)
/usr/lib/gcc/arm-none-eabi/6.3.1/../../../arm-none-eabi/lib/thumb/v7e-m/fpv4-sp/hard/libg_nano.a(lib_a-exit.o)
                              /usr/lib/gcc/arm-none-eabi/6.3.1/../../../arm-none-eabi/lib/thumb/v7e-m/fpv4-sp/hard/crt0.o (exit)
/usr/lib/gcc/arm-none-eabi/6.3.1/../../../arm-none-eabi/lib/thumb/v7e-m/fpv4-sp/hard/libg_nano.a(lib_a-fini.o)
                              /usr/lib/gcc/arm-none-eabi/6.3.1/../../../arm-none-eabi/lib/thumb/v7e-m/fpv4-sp/hard/crt0.o (__libc_fini_array)
/usr/lib/gcc/arm-none-eabi/6.3.1/../../../arm-none-eabi/lib/thumb/v7e-m/fpv4-sp/hard/libg_nano.a(lib_a-impure.o)
                              /usr/lib/gcc/arm-none-eabi/6.3.1/../../../arm-none-eabi/lib/thumb/v7e-m/fpv4-sp/hard/libg_nano.a(lib_a-exit.o) (_global_impure_ptr)
/usr/lib/gcc/arm-none-eabi/6.3.1/../../../arm-none-eabi/lib/thumb/v7e-m/fpv4-sp/hard/libg_nano.a(lib_a-init.o)
                              /usr/lib/gcc/arm-none-eabi/6.3.1/../../../arm-none-eabi/lib/thumb/v7e-m/fpv4-sp/hard/crt0.o (__libc_init_array)
/usr/lib/gcc/arm-none-eabi/6.3.1/../../../arm-none-eabi/lib/thumb/v7e-m/fpv4-sp/hard/libg_nano.a(lib_a-malloc.o)
                              /home/aee38/Documents/qorc-sdk/qomu_apps/qomu_helloworldsw/GCC_Project/output/circularBuffQueue.o (malloc)
/usr/lib/gcc/arm-none-eabi/6.3.1/../../../arm-none-eabi/lib/thumb/v7e-m/fpv4-sp/hard/libg_nano.a(lib_a-memcpy.o)
                              /home/aee38/Documents/qorc-sdk/qomu_apps/qomu_helloworldsw/GCC_Project/output/cli_args.o (memcpy)
/usr/lib/gcc/arm-none-eabi/6.3.1/../../../arm-none-eabi/lib/thumb/v7e-m/fpv4-sp/hard/libg_nano.a(lib_a-memset.o)
                              /usr/lib/gcc/arm-none-eabi/6.3.1/../../../arm-none-eabi/lib/thumb/v7e-m/fpv4-sp/hard/crt0.o (memset)
/usr/lib/gcc/arm-none-eabi/6.3.1/../../../arm-none-eabi/lib/thumb/v7e-m/fpv4-sp/hard/libg_nano.a(lib_a-nano-freer.o)
                              /usr/lib/gcc/arm-none-eabi/6.3.1/../../../arm-none-eabi/lib/thumb/v7e-m/fpv4-sp/hard/libg_nano.a(lib_a-malloc.o) (_free_r)
/usr/lib/gcc/arm-none-eabi/6.3.1/../../../arm-none-eabi/lib/thumb/v7e-m/fpv4-sp/hard/libg_nano.a(lib_a-nano-mallocr.o)
                              /usr/lib/gcc/arm-none-eabi/6.3.1/../../../arm-none-eabi/lib/thumb/v7e-m/fpv4-sp/hard/libg_nano.a(lib_a-malloc.o) (_malloc_r)
/usr/lib/gcc/arm-none-eabi/6.3.1/../../../arm-none-eabi/lib/thumb/v7e-m/fpv4-sp/hard/libg_nano.a(lib_a-printf.o)
                              /home/aee38/Documents/qorc-sdk/qomu_apps/qomu_helloworldsw/GCC_Project/output/circularBuffQueue.o (printf)
/usr/lib/gcc/arm-none-eabi/6.3.1/../../../arm-none-eabi/lib/thumb/v7e-m/fpv4-sp/hard/libg_nano.a(lib_a-puts.o)
                              /home/aee38/Documents/qorc-sdk/qomu_apps/qomu_helloworldsw/GCC_Project/output/eoss3_hal_i2s_slave_assp.o (puts)
/usr/lib/gcc/arm-none-eabi/6.3.1/../../../arm-none-eabi/lib/thumb/v7e-m/fpv4-sp/hard/libg_nano.a(lib_a-sbrkr.o)
                              /usr/lib/gcc/arm-none-eabi/6.3.1/../../../arm-none-eabi/lib/thumb/v7e-m/fpv4-sp/hard/libg_nano.a(lib_a-nano-mallocr.o) (_sbrk_r)
/usr/lib/gcc/arm-none-eabi/6.3.1/../../../arm-none-eabi/lib/thumb/v7e-m/fpv4-sp/hard/libg_nano.a(lib_a-setjmp.o)
                              /home/aee38/Documents/qorc-sdk/qomu_apps/qomu_helloworldsw/GCC_Project/output/cli_loop.o (setjmp)
/usr/lib/gcc/arm-none-eabi/6.3.1/../../../arm-none-eabi/lib/thumb/v7e-m/fpv4-sp/hard/libg_nano.a(lib_a-snprintf.o)
                              /home/aee38/Documents/qorc-sdk/qomu_apps/qomu_helloworldsw/GCC_Project/output/s3x_clock.o (snprintf)
/usr/lib/gcc/arm-none-eabi/6.3.1/../../../arm-none-eabi/lib/thumb/v7e-m/fpv4-sp/hard/libg_nano.a(lib_a-sprintf.o)
                              /home/aee38/Documents/qorc-sdk/qomu_apps/qomu_helloworldsw/GCC_Project/output/sec_debug.o (sprintf)
/usr/lib/gcc/arm-none-eabi/6.3.1/../../../arm-none-eabi/lib/thumb/v7e-m/fpv4-sp/hard/libg_nano.a(lib_a-strchr.o)
                              /home/aee38/Documents/qorc-sdk/qomu_apps/qomu_helloworldsw/GCC_Project/output/dbg_uart.o (strchr)
/usr/lib/gcc/arm-none-eabi/6.3.1/../../../arm-none-eabi/lib/thumb/v7e-m/fpv4-sp/hard/libg_nano.a(lib_a-strcmp.o)
                              /home/aee38/Documents/qorc-sdk/qomu_apps/qomu_helloworldsw/GCC_Project/output/cli_args.o (strcmp)
/usr/lib/gcc/arm-none-eabi/6.3.1/../../../arm-none-eabi/lib/thumb/v7e-m/fpv4-sp/hard/libg_nano.a(lib_a-strcpy.o)
                              /home/aee38/Documents/qorc-sdk/qomu_apps/qomu_helloworldsw/GCC_Project/output/exceptions.o (strcpy)
/usr/lib/gcc/arm-none-eabi/6.3.1/../../../arm-none-eabi/lib/thumb/v7e-m/fpv4-sp/hard/libg_nano.a(lib_a-strlen.o)
                              /home/aee38/Documents/qorc-sdk/qomu_apps/qomu_helloworldsw/GCC_Project/output/cli_args.o (strlen)
/usr/lib/gcc/arm-none-eabi/6.3.1/../../../arm-none-eabi/lib/thumb/v7e-m/fpv4-sp/hard/libg_nano.a(lib_a-strncpy.o)
                              /home/aee38/Documents/qorc-sdk/qomu_apps/qomu_helloworldsw/GCC_Project/output/s3x_lpm.o (strncpy)
/usr/lib/gcc/arm-none-eabi/6.3.1/../../../arm-none-eabi/lib/thumb/v7e-m/fpv4-sp/hard/libg_nano.a(lib_a-strrchr.o)
                              /home/aee38/Documents/qorc-sdk/qomu_apps/qomu_helloworldsw/GCC_Project/output/sec_debug.o (strrchr)
/usr/lib/gcc/arm-none-eabi/6.3.1/../../../arm-none-eabi/lib/thumb/v7e-m/fpv4-sp/hard/libg_nano.a(lib_a-strtod.o)
                              /home/aee38/Documents/qorc-sdk/qomu_apps/qomu_helloworldsw/GCC_Project/output/cli_args.o (strtof)
/usr/lib/gcc/arm-none-eabi/6.3.1/../../../arm-none-eabi/lib/thumb/v7e-m/fpv4-sp/hard/libg_nano.a(lib_a-strtok_r.o)
                              /home/aee38/Documents/qorc-sdk/qomu_apps/qomu_helloworldsw/GCC_Project/output/cli_loop.o (strtok_r)
/usr/lib/gcc/arm-none-eabi/6.3.1/../../../arm-none-eabi/lib/thumb/v7e-m/fpv4-sp/hard/libg_nano.a(lib_a-strtoll.o)
                              /home/aee38/Documents/qorc-sdk/qomu_apps/qomu_helloworldsw/GCC_Project/output/cli_args.o (strtoll)
/usr/lib/gcc/arm-none-eabi/6.3.1/../../../arm-none-eabi/lib/thumb/v7e-m/fpv4-sp/hard/libg_nano.a(lib_a-strtoll_r.o)
                              /usr/lib/gcc/arm-none-eabi/6.3.1/../../../arm-none-eabi/lib/thumb/v7e-m/fpv4-sp/hard/libg_nano.a(lib_a-strtoll.o) (_strtoll_r)
/usr/lib/gcc/arm-none-eabi/6.3.1/../../../arm-none-eabi/lib/thumb/v7e-m/fpv4-sp/hard/libg_nano.a(lib_a-strtoull.o)
                              /home/aee38/Documents/qorc-sdk/qomu_apps/qomu_helloworldsw/GCC_Project/output/cli_args.o (strtoull)
/usr/lib/gcc/arm-none-eabi/6.3.1/../../../arm-none-eabi/lib/thumb/v7e-m/fpv4-sp/hard/libg_nano.a(lib_a-strtoull_r.o)
                              /usr/lib/gcc/arm-none-eabi/6.3.1/../../../arm-none-eabi/lib/thumb/v7e-m/fpv4-sp/hard/libg_nano.a(lib_a-strtoull.o) (_strtoull_r)
/usr/lib/gcc/arm-none-eabi/6.3.1/../../../arm-none-eabi/lib/thumb/v7e-m/fpv4-sp/hard/libg_nano.a(lib_a-vsnprintf.o)
                              /home/aee38/Documents/qorc-sdk/qomu_apps/qomu_helloworldsw/GCC_Project/output/cli_io.o (vsnprintf)
/usr/lib/gcc/arm-none-eabi/6.3.1/../../../arm-none-eabi/lib/thumb/v7e-m/fpv4-sp/hard/libg_nano.a(lib_a-wbuf.o)
                              /usr/lib/gcc/arm-none-eabi/6.3.1/../../../arm-none-eabi/lib/thumb/v7e-m/fpv4-sp/hard/libg_nano.a(lib_a-puts.o) (__swbuf_r)
/usr/lib/gcc/arm-none-eabi/6.3.1/../../../arm-none-eabi/lib/thumb/v7e-m/fpv4-sp/hard/libg_nano.a(lib_a-wsetup.o)
                              /usr/lib/gcc/arm-none-eabi/6.3.1/../../../arm-none-eabi/lib/thumb/v7e-m/fpv4-sp/hard/libg_nano.a(lib_a-puts.o) (__swsetup_r)
/usr/lib/gcc/arm-none-eabi/6.3.1/../../../arm-none-eabi/lib/thumb/v7e-m/fpv4-sp/hard/libg_nano.a(lib_a-__atexit.o)
                              /usr/lib/gcc/arm-none-eabi/6.3.1/../../../arm-none-eabi/lib/thumb/v7e-m/fpv4-sp/hard/libg_nano.a(lib_a-atexit.o) (__register_exitproc)
/usr/lib/gcc/arm-none-eabi/6.3.1/../../../arm-none-eabi/lib/thumb/v7e-m/fpv4-sp/hard/libg_nano.a(lib_a-__call_atexit.o)
                              /usr/lib/gcc/arm-none-eabi/6.3.1/../../../arm-none-eabi/lib/thumb/v7e-m/fpv4-sp/hard/libg_nano.a(lib_a-__atexit.o) (__call_exitprocs)
/usr/lib/gcc/arm-none-eabi/6.3.1/../../../arm-none-eabi/lib/thumb/v7e-m/fpv4-sp/hard/libg_nano.a(lib_a-ctype_.o)
                              /usr/lib/gcc/arm-none-eabi/6.3.1/../../../arm-none-eabi/lib/thumb/v7e-m/fpv4-sp/hard/libg_nano.a(lib_a-strtoll_r.o) (__ctype_ptr__)
/usr/lib/gcc/arm-none-eabi/6.3.1/../../../arm-none-eabi/lib/thumb/v7e-m/fpv4-sp/hard/libg_nano.a(lib_a-fflush.o)
                              /usr/lib/gcc/arm-none-eabi/6.3.1/../../../arm-none-eabi/lib/thumb/v7e-m/fpv4-sp/hard/libg_nano.a(lib_a-wbuf.o) (_fflush_r)
/usr/lib/gcc/arm-none-eabi/6.3.1/../../../arm-none-eabi/lib/thumb/v7e-m/fpv4-sp/hard/libg_nano.a(lib_a-findfp.o)
                              /usr/lib/gcc/arm-none-eabi/6.3.1/../../../arm-none-eabi/lib/thumb/v7e-m/fpv4-sp/hard/libg_nano.a(lib_a-printf.o) (__sinit)
/usr/lib/gcc/arm-none-eabi/6.3.1/../../../arm-none-eabi/lib/thumb/v7e-m/fpv4-sp/hard/libg_nano.a(lib_a-fwalk.o)
                              /usr/lib/gcc/arm-none-eabi/6.3.1/../../../arm-none-eabi/lib/thumb/v7e-m/fpv4-sp/hard/libg_nano.a(lib_a-findfp.o) (_fwalk)
/usr/lib/gcc/arm-none-eabi/6.3.1/../../../arm-none-eabi/lib/thumb/v7e-m/fpv4-sp/hard/libg_nano.a(lib_a-gdtoa-gethex.o)
                              /usr/lib/gcc/arm-none-eabi/6.3.1/../../../arm-none-eabi/lib/thumb/v7e-m/fpv4-sp/hard/libg_nano.a(lib_a-strtod.o) (__gethex)
/usr/lib/gcc/arm-none-eabi/6.3.1/../../../arm-none-eabi/lib/thumb/v7e-m/fpv4-sp/hard/libg_nano.a(lib_a-gdtoa-hexnan.o)
                              /usr/lib/gcc/arm-none-eabi/6.3.1/../../../arm-none-eabi/lib/thumb/v7e-m/fpv4-sp/hard/libg_nano.a(lib_a-strtod.o) (__match)
/usr/lib/gcc/arm-none-eabi/6.3.1/../../../arm-none-eabi/lib/thumb/v7e-m/fpv4-sp/hard/libg_nano.a(lib_a-locale.o)
                              /usr/lib/gcc/arm-none-eabi/6.3.1/../../../arm-none-eabi/lib/thumb/v7e-m/fpv4-sp/hard/libg_nano.a(lib_a-strtod.o) (_localeconv_r)
/usr/lib/gcc/arm-none-eabi/6.3.1/../../../arm-none-eabi/lib/thumb/v7e-m/fpv4-sp/hard/libg_nano.a(lib_a-makebuf.o)
                              /usr/lib/gcc/arm-none-eabi/6.3.1/../../../arm-none-eabi/lib/thumb/v7e-m/fpv4-sp/hard/libg_nano.a(lib_a-wsetup.o) (__smakebuf_r)
/usr/lib/gcc/arm-none-eabi/6.3.1/../../../arm-none-eabi/lib/thumb/v7e-m/fpv4-sp/hard/libg_nano.a(lib_a-mprec.o)
                              /usr/lib/gcc/arm-none-eabi/6.3.1/../../../arm-none-eabi/lib/thumb/v7e-m/fpv4-sp/hard/libg_nano.a(lib_a-strtod.o) (_Balloc)
/usr/lib/gcc/arm-none-eabi/6.3.1/../../../arm-none-eabi/lib/thumb/v7e-m/fpv4-sp/hard/libg_nano.a(lib_a-nano-callocr.o)
                              /usr/lib/gcc/arm-none-eabi/6.3.1/../../../arm-none-eabi/lib/thumb/v7e-m/fpv4-sp/hard/libg_nano.a(lib_a-mprec.o) (_calloc_r)
/usr/lib/gcc/arm-none-eabi/6.3.1/../../../arm-none-eabi/lib/thumb/v7e-m/fpv4-sp/hard/libg_nano.a(lib_a-nano-svfprintf.o)
                              /usr/lib/gcc/arm-none-eabi/6.3.1/../../../arm-none-eabi/lib/thumb/v7e-m/fpv4-sp/hard/libg_nano.a(lib_a-snprintf.o) (_svfprintf_r)
/usr/lib/gcc/arm-none-eabi/6.3.1/../../../arm-none-eabi/lib/thumb/v7e-m/fpv4-sp/hard/libg_nano.a(lib_a-nano-vfprintf.o)
                              /usr/lib/gcc/arm-none-eabi/6.3.1/../../../arm-none-eabi/lib/thumb/v7e-m/fpv4-sp/hard/libg_nano.a(lib_a-printf.o) (_vfprintf_r)
/usr/lib/gcc/arm-none-eabi/6.3.1/../../../arm-none-eabi/lib/thumb/v7e-m/fpv4-sp/hard/libg_nano.a(lib_a-nano-vfprintf_i.o)
                              /usr/lib/gcc/arm-none-eabi/6.3.1/../../../arm-none-eabi/lib/thumb/v7e-m/fpv4-sp/hard/libg_nano.a(lib_a-nano-svfprintf.o) (_printf_i)
/usr/lib/gcc/arm-none-eabi/6.3.1/../../../arm-none-eabi/lib/thumb/v7e-m/fpv4-sp/hard/libg_nano.a(lib_a-reent.o)
                              /usr/lib/gcc/arm-none-eabi/6.3.1/../../../arm-none-eabi/lib/thumb/v7e-m/fpv4-sp/hard/libg_nano.a(lib_a-sbrkr.o) (errno)
/usr/lib/gcc/arm-none-eabi/6.3.1/../../../arm-none-eabi/lib/thumb/v7e-m/fpv4-sp/hard/libg_nano.a(lib_a-sf_nan.o)
                              /usr/lib/gcc/arm-none-eabi/6.3.1/../../../arm-none-eabi/lib/thumb/v7e-m/fpv4-sp/hard/libg_nano.a(lib_a-strtod.o) (nanf)
/usr/lib/gcc/arm-none-eabi/6.3.1/../../../arm-none-eabi/lib/thumb/v7e-m/fpv4-sp/hard/libg_nano.a(lib_a-stdio.o)
                              /usr/lib/gcc/arm-none-eabi/6.3.1/../../../arm-none-eabi/lib/thumb/v7e-m/fpv4-sp/hard/libg_nano.a(lib_a-findfp.o) (__sread)
/usr/lib/gcc/arm-none-eabi/6.3.1/../../../arm-none-eabi/lib/thumb/v7e-m/fpv4-sp/hard/libg_nano.a(lib_a-strncmp.o)
                              /usr/lib/gcc/arm-none-eabi/6.3.1/../../../arm-none-eabi/lib/thumb/v7e-m/fpv4-sp/hard/libg_nano.a(lib_a-strtod.o) (strncmp)
/usr/lib/gcc/arm-none-eabi/6.3.1/../../../arm-none-eabi/lib/thumb/v7e-m/fpv4-sp/hard/libg_nano.a(lib_a-writer.o)
                              /usr/lib/gcc/arm-none-eabi/6.3.1/../../../arm-none-eabi/lib/thumb/v7e-m/fpv4-sp/hard/libg_nano.a(lib_a-stdio.o) (_write_r)
/usr/lib/gcc/arm-none-eabi/6.3.1/../../../arm-none-eabi/lib/thumb/v7e-m/fpv4-sp/hard/libg_nano.a(lib_a-closer.o)
                              /usr/lib/gcc/arm-none-eabi/6.3.1/../../../arm-none-eabi/lib/thumb/v7e-m/fpv4-sp/hard/libg_nano.a(lib_a-stdio.o) (_close_r)
/usr/lib/gcc/arm-none-eabi/6.3.1/../../../arm-none-eabi/lib/thumb/v7e-m/fpv4-sp/hard/libg_nano.a(lib_a-fstatr.o)
                              /usr/lib/gcc/arm-none-eabi/6.3.1/../../../arm-none-eabi/lib/thumb/v7e-m/fpv4-sp/hard/libg_nano.a(lib_a-makebuf.o) (_fstat_r)
/usr/lib/gcc/arm-none-eabi/6.3.1/../../../arm-none-eabi/lib/thumb/v7e-m/fpv4-sp/hard/libg_nano.a(lib_a-fvwrite.o)
                              /usr/lib/gcc/arm-none-eabi/6.3.1/../../../arm-none-eabi/lib/thumb/v7e-m/fpv4-sp/hard/libg_nano.a(lib_a-nano-vfprintf.o) (__sfvwrite_r)
/usr/lib/gcc/arm-none-eabi/6.3.1/../../../arm-none-eabi/lib/thumb/v7e-m/fpv4-sp/hard/libg_nano.a(lib_a-isattyr.o)
                              /usr/lib/gcc/arm-none-eabi/6.3.1/../../../arm-none-eabi/lib/thumb/v7e-m/fpv4-sp/hard/libg_nano.a(lib_a-makebuf.o) (_isatty_r)
/usr/lib/gcc/arm-none-eabi/6.3.1/../../../arm-none-eabi/lib/thumb/v7e-m/fpv4-sp/hard/libg_nano.a(lib_a-lseekr.o)
                              /usr/lib/gcc/arm-none-eabi/6.3.1/../../../arm-none-eabi/lib/thumb/v7e-m/fpv4-sp/hard/libg_nano.a(lib_a-stdio.o) (_lseek_r)
/usr/lib/gcc/arm-none-eabi/6.3.1/../../../arm-none-eabi/lib/thumb/v7e-m/fpv4-sp/hard/libg_nano.a(lib_a-memchr.o)
                              /usr/lib/gcc/arm-none-eabi/6.3.1/../../../arm-none-eabi/lib/thumb/v7e-m/fpv4-sp/hard/libg_nano.a(lib_a-nano-svfprintf.o) (memchr)
/usr/lib/gcc/arm-none-eabi/6.3.1/../../../arm-none-eabi/lib/thumb/v7e-m/fpv4-sp/hard/libg_nano.a(lib_a-memmove.o)
                              /usr/lib/gcc/arm-none-eabi/6.3.1/../../../arm-none-eabi/lib/thumb/v7e-m/fpv4-sp/hard/libg_nano.a(lib_a-nano-svfprintf.o) (memmove)
/usr/lib/gcc/arm-none-eabi/6.3.1/../../../arm-none-eabi/lib/thumb/v7e-m/fpv4-sp/hard/libg_nano.a(lib_a-nano-reallocr.o)
                              /usr/lib/gcc/arm-none-eabi/6.3.1/../../../arm-none-eabi/lib/thumb/v7e-m/fpv4-sp/hard/libg_nano.a(lib_a-nano-svfprintf.o) (_realloc_r)
/usr/lib/gcc/arm-none-eabi/6.3.1/../../../arm-none-eabi/lib/thumb/v7e-m/fpv4-sp/hard/libg_nano.a(lib_a-readr.o)
                              /usr/lib/gcc/arm-none-eabi/6.3.1/../../../arm-none-eabi/lib/thumb/v7e-m/fpv4-sp/hard/libg_nano.a(lib_a-stdio.o) (_read_r)
/usr/lib/gcc/arm-none-eabi/6.3.1/../../../arm-none-eabi/lib/thumb/v7e-m/fpv4-sp/hard/libg_nano.a(lib_a-nano-msizer.o)
                              /usr/lib/gcc/arm-none-eabi/6.3.1/../../../arm-none-eabi/lib/thumb/v7e-m/fpv4-sp/hard/libg_nano.a(lib_a-nano-reallocr.o) (_malloc_usable_size_r)
/usr/lib/gcc/arm-none-eabi/6.3.1/thumb/v7e-m/fpv4-sp/hard/libgcc.a(_arm_cmpdf2.o)
                              /usr/lib/gcc/arm-none-eabi/6.3.1/../../../arm-none-eabi/lib/thumb/v7e-m/fpv4-sp/hard/libg_nano.a(lib_a-strtod.o) (__aeabi_dcmpeq)
/usr/lib/gcc/arm-none-eabi/6.3.1/thumb/v7e-m/fpv4-sp/hard/libgcc.a(_arm_unorddf2.o)
                              /usr/lib/gcc/arm-none-eabi/6.3.1/../../../arm-none-eabi/lib/thumb/v7e-m/fpv4-sp/hard/libg_nano.a(lib_a-strtod.o) (__aeabi_dcmpun)
/usr/lib/gcc/arm-none-eabi/6.3.1/thumb/v7e-m/fpv4-sp/hard/libgcc.a(_arm_fixunsdfsi.o)
                              /usr/lib/gcc/arm-none-eabi/6.3.1/../../../arm-none-eabi/lib/thumb/v7e-m/fpv4-sp/hard/libg_nano.a(lib_a-strtod.o) (__aeabi_d2uiz)
/usr/lib/gcc/arm-none-eabi/6.3.1/../../../arm-none-eabi/lib/thumb/v7e-m/fpv4-sp/hard/libnosys.a(fstat.o)
                              /usr/lib/gcc/arm-none-eabi/6.3.1/../../../arm-none-eabi/lib/thumb/v7e-m/fpv4-sp/hard/libg_nano.a(lib_a-fstatr.o) (_fstat)
/usr/lib/gcc/arm-none-eabi/6.3.1/../../../arm-none-eabi/lib/thumb/v7e-m/fpv4-sp/hard/libnosys.a(isatty.o)
                              /usr/lib/gcc/arm-none-eabi/6.3.1/../../../arm-none-eabi/lib/thumb/v7e-m/fpv4-sp/hard/libg_nano.a(lib_a-isattyr.o) (_isatty)
/usr/lib/gcc/arm-none-eabi/6.3.1/../../../arm-none-eabi/lib/thumb/v7e-m/fpv4-sp/hard/libnosys.a(sbrk.o)
                              /usr/lib/gcc/arm-none-eabi/6.3.1/../../../arm-none-eabi/lib/thumb/v7e-m/fpv4-sp/hard/libg_nano.a(lib_a-sbrkr.o) (_sbrk)
/usr/lib/gcc/arm-none-eabi/6.3.1/../../../arm-none-eabi/lib/thumb/v7e-m/fpv4-sp/hard/libnosys.a(_exit.o)
                              /usr/lib/gcc/arm-none-eabi/6.3.1/../../../arm-none-eabi/lib/thumb/v7e-m/fpv4-sp/hard/libg_nano.a(lib_a-exit.o) (_exit)

Allocating common symbols
Common symbol       size              file

CLI_common          0x268             /home/aee38/Documents/qorc-sdk/qomu_apps/qomu_helloworldsw/GCC_Project/output/cli_platform.o
errno               0x4               /usr/lib/gcc/arm-none-eabi/6.3.1/../../../arm-none-eabi/lib/thumb/v7e-m/fpv4-sp/hard/libg_nano.a(lib_a-reent.o)
uart_bad_tx_char    0x4               /home/aee38/Documents/qorc-sdk/qomu_apps/qomu_helloworldsw/GCC_Project/output/eoss3_hal_uart.o
gv_hardfault_args   0x28              /home/aee38/Documents/qorc-sdk/qomu_apps/qomu_helloworldsw/GCC_Project/output/exceptions.o
OD_On               0x4               /home/aee38/Documents/qorc-sdk/qomu_apps/qomu_helloworldsw/GCC_Project/output/exceptions.o
flashWRCmd          0x104             /home/aee38/Documents/qorc-sdk/qomu_apps/qomu_helloworldsw/GCC_Project/output/spi_flash.o
i2s_instances       0x3c              /home/aee38/Documents/qorc-sdk/qomu_apps/qomu_helloworldsw/GCC_Project/output/eoss3_hal_i2s.o
xQueueRegistry      0x100             /home/aee38/Documents/qorc-sdk/qomu_apps/qomu_helloworldsw/GCC_Project/output/queue.o
acDbgBuffer         0x800             /home/aee38/Documents/qorc-sdk/qomu_apps/qomu_helloworldsw/GCC_Project/output/dbg_uart.o
S3_dfs_max_index    0x1               /home/aee38/Documents/qorc-sdk/qomu_apps/qomu_helloworldsw/GCC_Project/output/s3x_pwrcfg.o
xHandleTestCli      0x4               /home/aee38/Documents/qorc-sdk/qomu_apps/qomu_helloworldsw/GCC_Project/output/cli_platform.o
hardfault_loop      0x4               /home/aee38/Documents/qorc-sdk/qomu_apps/qomu_helloworldsw/GCC_Project/output/exceptions.o
xHandleDbgbufferedprint
                    0x4               /home/aee38/Documents/qorc-sdk/qomu_apps/qomu_helloworldsw/GCC_Project/output/dbg_bufferedprinttask.o
SPIHandle           0x4               /home/aee38/Documents/qorc-sdk/qomu_apps/qomu_helloworldsw/GCC_Project/output/eoss3_hal_spi.o
SOFTWARE_VERSION_STR
                    0x4               /home/aee38/Documents/qorc-sdk/qomu_apps/qomu_helloworldsw/GCC_Project/output/main.o
trace_history       0x400             /home/aee38/Documents/qorc-sdk/qomu_apps/qomu_helloworldsw/GCC_Project/output/s3x_lpm.o
spiFlashHandle      0x44              /home/aee38/Documents/qorc-sdk/qomu_apps/qomu_helloworldsw/GCC_Project/output/spi_flash.o
S3clkd_size         0x1               /home/aee38/Documents/qorc-sdk/qomu_apps/qomu_helloworldsw/GCC_Project/output/s3x_pwrcfg.o
spiXfer             0x18              /home/aee38/Documents/qorc-sdk/qomu_apps/qomu_helloworldsw/GCC_Project/output/spi_flash.o

Discarded input sections

 .text          0x0000000000000000        0x0 /usr/lib/gcc/arm-none-eabi/6.3.1/thumb/v7e-m/fpv4-sp/hard/crti.o
 .data          0x0000000000000000        0x0 /usr/lib/gcc/arm-none-eabi/6.3.1/thumb/v7e-m/fpv4-sp/hard/crti.o
 .bss           0x0000000000000000        0x0 /usr/lib/gcc/arm-none-eabi/6.3.1/thumb/v7e-m/fpv4-sp/hard/crti.o
 .data          0x0000000000000000        0x4 /usr/lib/gcc/arm-none-eabi/6.3.1/thumb/v7e-m/fpv4-sp/hard/crtbegin.o
 .data          0x0000000000000000        0x0 /usr/lib/gcc/arm-none-eabi/6.3.1/../../../arm-none-eabi/lib/thumb/v7e-m/fpv4-sp/hard/crt0.o
 .bss           0x0000000000000000        0x0 /usr/lib/gcc/arm-none-eabi/6.3.1/../../../arm-none-eabi/lib/thumb/v7e-m/fpv4-sp/hard/crt0.o
 .ARM.extab     0x0000000000000000        0x0 /usr/lib/gcc/arm-none-eabi/6.3.1/../../../arm-none-eabi/lib/thumb/v7e-m/fpv4-sp/hard/crt0.o
 .text          0x0000000000000000        0x0 /home/aee38/Documents/qorc-sdk/qomu_apps/qomu_helloworldsw/GCC_Project/output/c_lib_retarget.o
 .data          0x0000000000000000        0x0 /home/aee38/Documents/qorc-sdk/qomu_apps/qomu_helloworldsw/GCC_Project/output/c_lib_retarget.o
 .bss           0x0000000000000000        0x0 /home/aee38/Documents/qorc-sdk/qomu_apps/qomu_helloworldsw/GCC_Project/output/c_lib_retarget.o
 .text.fgetc    0x0000000000000000        0x6 /home/aee38/Documents/qorc-sdk/qomu_apps/qomu_helloworldsw/GCC_Project/output/c_lib_retarget.o
 .text.fputc    0x0000000000000000       0x10 /home/aee38/Documents/qorc-sdk/qomu_apps/qomu_helloworldsw/GCC_Project/output/c_lib_retarget.o
 .text          0x0000000000000000        0x0 /home/aee38/Documents/qorc-sdk/qomu_apps/qomu_helloworldsw/GCC_Project/output/circularBuffQueue.o
 .data          0x0000000000000000        0x0 /home/aee38/Documents/qorc-sdk/qomu_apps/qomu_helloworldsw/GCC_Project/output/circularBuffQueue.o
 .bss           0x0000000000000000        0x0 /home/aee38/Documents/qorc-sdk/qomu_apps/qomu_helloworldsw/GCC_Project/output/circularBuffQueue.o
 .text.initCircularBuff
                0x0000000000000000       0x60 /home/aee38/Documents/qorc-sdk/qomu_apps/qomu_helloworldsw/GCC_Project/output/circularBuffQueue.o
 .text.getReadBuffPtr
Memory Configuration

Name             Origin             Length             Attributes
rom              0x0000000000000000 0x0000000000027000 xr
ram              0x0000000020027000 0x000000000003c800 xrw
spiram           0x0000000020063800 0x0000000000000800 rw
HWA              0x0000000020064000 0x0000000000018000 rw
shm              0x000000002007c000 0x0000000000004000
*default*        0x0000000000000000 0xffffffffffffffff

Linker script and memory map

LOAD /usr/lib/gcc/arm-none-eabi/6.3.1/thumb/v7e-m/fpv4-sp/hard/crti.o
LOAD /usr/lib/gcc/arm-none-eabi/6.3.1/thumb/v7e-m/fpv4-sp/hard/crtbegin.o
LOAD /usr/lib/gcc/arm-none-eabi/6.3.1/../../../arm-none-eabi/lib/thumb/v7e-m/fpv4-sp/hard/crt0.o
LOAD /home/aee38/Documents/qorc-sdk/qomu_apps/qomu_helloworldsw/GCC_Project/output/c_lib_retarget.o
LOAD /home/aee38/Documents/qorc-sdk/qomu_apps/qomu_helloworldsw/GCC_Project/output/circularBuffQueue.o
LOAD /home/aee38/Documents/qorc-sdk/qomu_apps/qomu_helloworldsw/GCC_Project/output/cli_args.o
LOAD /home/aee38/Documents/qorc-sdk/qomu_apps/qomu_helloworldsw/GCC_Project/output/cli_hexdump.o
LOAD /home/aee38/Documents/qorc-sdk/qomu_apps/qomu_helloworldsw/GCC_Project/output/cli_io.o
LOAD /home/aee38/Documents/qorc-sdk/qomu_apps/qomu_helloworldsw/GCC_Project/output/cli_loop.o
LOAD /home/aee38/Documents/qorc-sdk/qomu_apps/qomu_helloworldsw/GCC_Project/output/cli_misc.o
LOAD /home/aee38/Documents/qorc-sdk/qomu_apps/qomu_helloworldsw/GCC_Project/output/cli_platform.o
LOAD /home/aee38/Documents/qorc-sdk/qomu_apps/qomu_helloworldsw/GCC_Project/output/cli_stdcmds.o
LOAD /home/aee38/Documents/qorc-sdk/qomu_apps/qomu_helloworldsw/GCC_Project/output/crc16.o
LOAD /home/aee38/Documents/qorc-sdk/qomu_apps/qomu_helloworldsw/GCC_Project/output/crc32.o
LOAD /home/aee38/Documents/qorc-sdk/qomu_apps/qomu_helloworldsw/GCC_Project/output/croutine.o
LOAD /home/aee38/Documents/qorc-sdk/qomu_apps/qomu_helloworldsw/GCC_Project/output/dbg_bufferedprinttask.o
LOAD /home/aee38/Documents/qorc-sdk/qomu_apps/qomu_helloworldsw/GCC_Project/output/dbg_queue_monitor.o
LOAD /home/aee38/Documents/qorc-sdk/qomu_apps/qomu_helloworldsw/GCC_Project/output/dbg_uart.o
LOAD /home/aee38/Documents/qorc-sdk/qomu_apps/qomu_helloworldsw/GCC_Project/output/dbgtrace.o
LOAD /home/aee38/Documents/qorc-sdk/qomu_apps/qomu_helloworldsw/GCC_Project/output/eoss3_hal_adc.o
LOAD /home/aee38/Documents/qorc-sdk/qomu_apps/qomu_helloworldsw/GCC_Project/output/eoss3_hal_fpga_usbserial.o
LOAD /home/aee38/Documents/qorc-sdk/qomu_apps/qomu_helloworldsw/GCC_Project/output/eoss3_hal_gpio.o
LOAD /home/aee38/Documents/qorc-sdk/qomu_apps/qomu_helloworldsw/GCC_Project/output/eoss3_hal_i2c.o
LOAD /home/aee38/Documents/qorc-sdk/qomu_apps/qomu_helloworldsw/GCC_Project/output/eoss3_hal_i2s.o
LOAD /home/aee38/Documents/qorc-sdk/qomu_apps/qomu_helloworldsw/GCC_Project/output/eoss3_hal_i2s_slave_assp.o
LOAD /home/aee38/Documents/qorc-sdk/qomu_apps/qomu_helloworldsw/GCC_Project/output/eoss3_hal_pad_config.o
LOAD /home/aee38/Documents/qorc-sdk/qomu_apps/qomu_helloworldsw/GCC_Project/output/eoss3_hal_pkfb.o
LOAD /home/aee38/Documents/qorc-sdk/qomu_apps/qomu_helloworldsw/GCC_Project/output/eoss3_hal_rtc.o
LOAD /home/aee38/Documents/qorc-sdk/qomu_apps/qomu_helloworldsw/GCC_Project/output/eoss3_hal_sdma.o
LOAD /home/aee38/Documents/qorc-sdk/qomu_apps/qomu_helloworldsw/GCC_Project/output/eoss3_hal_spi.o
LOAD /home/aee38/Documents/qorc-sdk/qomu_apps/qomu_helloworldsw/GCC_Project/output/eoss3_hal_timer.o
LOAD /home/aee38/Documents/qorc-sdk/qomu_apps/qomu_helloworldsw/GCC_Project/output/eoss3_hal_uart.o
LOAD /home/aee38/Documents/qorc-sdk/qomu_apps/qomu_helloworldsw/GCC_Project/output/eoss3_hal_wb.o
LOAD /home/aee38/Documents/qorc-sdk/qomu_apps/qomu_helloworldsw/GCC_Project/output/eoss3_hal_wdt.o
LOAD /home/aee38/Documents/qorc-sdk/qomu_apps/qomu_helloworldsw/GCC_Project/output/event_groups.o
LOAD /home/aee38/Documents/qorc-sdk/qomu_apps/qomu_helloworldsw/GCC_Project/output/exceptions.o
LOAD /home/aee38/Documents/qorc-sdk/qomu_apps/qomu_helloworldsw/GCC_Project/output/fpga_loader.o
LOAD /home/aee38/Documents/qorc-sdk/qomu_apps/qomu_helloworldsw/GCC_Project/output/freertos_static_memory.o
LOAD /home/aee38/Documents/qorc-sdk/qomu_apps/qomu_helloworldsw/GCC_Project/output/heap_4.o
LOAD /home/aee38/Documents/qorc-sdk/qomu_apps/qomu_helloworldsw/GCC_Project/output/hearable_pwrcfg.o
LOAD /home/aee38/Documents/qorc-sdk/qomu_apps/qomu_helloworldsw/GCC_Project/output/list.o
LOAD /home/aee38/Documents/qorc-sdk/qomu_apps/qomu_helloworldsw/GCC_Project/output/main.o
LOAD /home/aee38/Documents/qorc-sdk/qomu_apps/qomu_helloworldsw/GCC_Project/output/main_dbg_cli_menu.o
LOAD /home/aee38/Documents/qorc-sdk/qomu_apps/qomu_helloworldsw/GCC_Project/output/pincfg_table.o
LOAD /home/aee38/Documents/qorc-sdk/qomu_apps/qomu_helloworldsw/GCC_Project/output/port.o
LOAD /home/aee38/Documents/qorc-sdk/qomu_apps/qomu_helloworldsw/GCC_Project/output/ql_base64.o
LOAD /home/aee38/Documents/qorc-sdk/qomu_apps/qomu_helloworldsw/GCC_Project/output/ql_stackwatermark.o
LOAD /home/aee38/Documents/qorc-sdk/qomu_apps/qomu_helloworldsw/GCC_Project/output/ql_test_signals.o
LOAD /home/aee38/Documents/qorc-sdk/qomu_apps/qomu_helloworldsw/GCC_Project/output/ql_time.o
LOAD /home/aee38/Documents/qorc-sdk/qomu_apps/qomu_helloworldsw/GCC_Project/output/qomu_fpga.o
LOAD /home/aee38/Documents/qorc-sdk/qomu_apps/qomu_helloworldsw/GCC_Project/output/qomu_hardwaresetup.o
LOAD /home/aee38/Documents/qorc-sdk/qomu_apps/qomu_helloworldsw/GCC_Project/output/queue.o
LOAD /home/aee38/Documents/qorc-sdk/qomu_apps/qomu_helloworldsw/GCC_Project/output/s3x_clock.o
LOAD /home/aee38/Documents/qorc-sdk/qomu_apps/qomu_helloworldsw/GCC_Project/output/s3x_clock_hal.o
LOAD /home/aee38/Documents/qorc-sdk/qomu_apps/qomu_helloworldsw/GCC_Project/output/s3x_cpuload.o
LOAD /home/aee38/Documents/qorc-sdk/qomu_apps/qomu_helloworldsw/GCC_Project/output/s3x_dfs.o
LOAD /home/aee38/Documents/qorc-sdk/qomu_apps/qomu_helloworldsw/GCC_Project/output/s3x_lpm.o
LOAD /home/aee38/Documents/qorc-sdk/qomu_apps/qomu_helloworldsw/GCC_Project/output/s3x_pi.o
LOAD /home/aee38/Documents/qorc-sdk/qomu_apps/qomu_helloworldsw/GCC_Project/output/s3x_pwrcfg.o
LOAD /home/aee38/Documents/qorc-sdk/qomu_apps/qomu_helloworldsw/GCC_Project/output/s3x_qos.o
LOAD /home/aee38/Documents/qorc-sdk/qomu_apps/qomu_helloworldsw/GCC_Project/output/sec_debug.o
LOAD /home/aee38/Documents/qorc-sdk/qomu_apps/qomu_helloworldsw/GCC_Project/output/spi_flash.o
LOAD /home/aee38/Documents/qorc-sdk/qomu_apps/qomu_helloworldsw/GCC_Project/output/startup_EOSS3B_GCC.o
LOAD /home/aee38/Documents/qorc-sdk/qomu_apps/qomu_helloworldsw/GCC_Project/output/stream_buffer.o
LOAD /home/aee38/Documents/qorc-sdk/qomu_apps/qomu_helloworldsw/GCC_Project/output/tasks.o
LOAD /home/aee38/Documents/qorc-sdk/qomu_apps/qomu_helloworldsw/GCC_Project/output/timers.o
LOAD /home/aee38/Documents/qorc-sdk/qomu_apps/qomu_helloworldsw/GCC_Project/output/vectors_CM4F_gcc.o
LOAD /home/aee38/Documents/qorc-sdk/qomu_apps/qomu_helloworldsw/GCC_Project/output/watchdog.o
LOAD /usr/lib/gcc/arm-none-eabi/6.3.1/../../../arm-none-eabi/lib/thumb/v7e-m/fpv4-sp/hard/libm.a
LOAD /home/aee38/Documents/qorc-sdk/qomu_apps/qomu_helloworldsw/GCC_Project/../../../Libraries/CMSIS/lib/GCC/libarm_cortexM4lf_math.a
START GROUP
LOAD /usr/lib/gcc/arm-none-eabi/6.3.1/thumb/v7e-m/fpv4-sp/hard/libgcc.a
LOAD /usr/lib/gcc/arm-none-eabi/6.3.1/../../../arm-none-eabi/lib/thumb/v7e-m/fpv4-sp/hard/libg_nano.a
LOAD /usr/lib/gcc/arm-none-eabi/6.3.1/../../../arm-none-eabi/lib/thumb/v7e-m/fpv4-sp/hard/libc_nano.a
END GROUP
START GROUP
LOAD /usr/lib/gcc/arm-none-eabi/6.3.1/thumb/v7e-m/fpv4-sp/hard/libgcc.a
LOAD /usr/lib/gcc/arm-none-eabi/6.3.1/../../../arm-none-eabi/lib/thumb/v7e-m/fpv4-sp/hard/libc_nano.a
LOAD /usr/lib/gcc/arm-none-eabi/6.3.1/../../../arm-none-eabi/lib/thumb/v7e-m/fpv4-sp/hard/libnosys.a
END GROUP
START GROUP
LOAD /usr/lib/gcc/arm-none-eabi/6.3.1/thumb/v7e-m/fpv4-sp/hard/libgcc.a
LOAD /usr/lib/gcc/arm-none-eabi/6.3.1/../../../arm-none-eabi/lib/thumb/v7e-m/fpv4-sp/hard/libc_nano.a
LOAD /usr/lib/gcc/arm-none-eabi/6.3.1/../../../arm-none-eabi/lib/thumb/v7e-m/fpv4-sp/hard/libnosys.a
END GROUP
LOAD /usr/lib/gcc/arm-none-eabi/6.3.1/thumb/v7e-m/fpv4-sp/hard/crtend.o
LOAD /usr/lib/gcc/arm-none-eabi/6.3.1/thumb/v7e-m/fpv4-sp/hard/crtn.o

.text           0x0000000000000000     0x9874
 *(.isr_vector)
 .isr_vector    0x0000000000000000      0x124 /home/aee38/Documents/qorc-sdk/qomu_apps/qomu_helloworldsw/GCC_Project/output/vectors_CM4F_gcc.o
                0x0000000000000000                __Vectors
 *(.text*)
 .text          0x0000000000000124       0xa4 /usr/lib/gcc/arm-none-eabi/6.3.1/thumb/v7e-m/fpv4-sp/hard/crtbegin.o
 .text          0x00000000000001c8       0x68 /usr/lib/gcc/arm-none-eabi/6.3.1/../../../arm-none-eabi/lib/thumb/v7e-m/fpv4-sp/hard/crt0.o
                0x00000000000001c8                _mainCRTStartup
                0x00000000000001c8                _start
 .text._write   0x0000000000000230        0xe /home/aee38/Documents/qorc-sdk/qomu_apps/qomu_helloworldsw/GCC_Project/output/c_lib_retarget.o
                0x0000000000000230                _write
 .text._close   0x000000000000023e        0x6 /home/aee38/Documents/qorc-sdk/qomu_apps/qomu_helloworldsw/GCC_Project/output/c_lib_retarget.o
                0x000000000000023e                _close
 .text._lseek   0x0000000000000244        0x4 /home/aee38/Documents/qorc-sdk/qomu_apps/qomu_helloworldsw/GCC_Project/output/c_lib_retarget.o
                0x0000000000000244                _lseek
 .text._read    0x0000000000000248        0x4 /home/aee38/Documents/qorc-sdk/qomu_apps/qomu_helloworldsw/GCC_Project/output/c_lib_retarget.o
                0x0000000000000248                _read
 .text.do_str_fetch
                0x000000000000024c       0x3c /home/aee38/Documents/qorc-sdk/qomu_apps/qomu_helloworldsw/GCC_Project/output/cli_args.o
 .text.CLI_string_ptr_get_subcmd
                0x0000000000000288       0x20 /home/aee38/Documents/qorc-sdk/qomu_apps/qomu_helloworldsw/GCC_Project/output/cli_args.o
                0x0000000000000288                CLI_string_ptr_get_subcmd
 .text.append_key
                0x00000000000002a8       0x30 /home/aee38/Documents/qorc-sdk/qomu_apps/qomu_helloworldsw/GCC_Project/output/cli_io.o
 .text.get_key_ignore_null
                0x00000000000002d8       0x18 /home/aee38/Documents/qorc-sdk/qomu_apps/qomu_helloworldsw/GCC_Project/output/cli_io.o
 .text.CLI_getkey_peek
                0x00000000000002f0      0x120 /home/aee38/Documents/qorc-sdk/qomu_apps/qomu_helloworldsw/GCC_Project/output/cli_io.o
                0x00000000000002f0                CLI_getkey_peek
 .text.CLI_getkey
                0x0000000000000410       0x30 /home/aee38/Documents/qorc-sdk/qomu_apps/qomu_helloworldsw/GCC_Project/output/cli_io.o
                0x0000000000000410                CLI_getkey
 .text.CLI_col0_timestamp
                0x0000000000000440       0x7c /home/aee38/Documents/qorc-sdk/qomu_apps/qomu_helloworldsw/GCC_Project/output/cli_io.o
                0x0000000000000440                CLI_col0_timestamp
 .text.CLI_putc
                0x00000000000004bc       0x4c /home/aee38/Documents/qorc-sdk/qomu_apps/qomu_helloworldsw/GCC_Project/output/cli_io.o
                0x00000000000004bc                CLI_putc
 .text.CLI_puts_no_nl
                0x0000000000000508       0x12 /home/aee38/Documents/qorc-sdk/qomu_apps/qomu_helloworldsw/GCC_Project/output/cli_io.o
                0x0000000000000508                CLI_puts_no_nl
 *fill*         0x000000000000051a        0x2 
 .text.CLI_vprintf
                0x000000000000051c       0x24 /home/aee38/Documents/qorc-sdk/qomu_apps/qomu_helloworldsw/GCC_Project/output/cli_io.o
                0x000000000000051c                CLI_vprintf
 .text.CLI_printf
                0x0000000000000540       0x1a /home/aee38/Documents/qorc-sdk/qomu_apps/qomu_helloworldsw/GCC_Project/output/cli_io.o
                0x0000000000000540                CLI_printf
 *fill*         0x000000000000055a        0x2 
 .text.handle_help
                0x000000000000055c       0xbc /home/aee38/Documents/qorc-sdk/qomu_apps/qomu_helloworldsw/GCC_Project/output/cli_loop.o
 .text.CLI_cmd_stack_replace
                0x0000000000000618       0x10 /home/aee38/Documents/qorc-sdk/qomu_apps/qomu_helloworldsw/GCC_Project/output/cli_loop.o
                0x0000000000000618                CLI_cmd_stack_replace
 .text.CLI_cmd_stack_push
                0x0000000000000628       0x30 /home/aee38/Documents/qorc-sdk/qomu_apps/qomu_helloworldsw/GCC_Project/output/cli_loop.o
                0x0000000000000628                CLI_cmd_stack_push
 .text.CLI_cmd_stack_clear
                0x0000000000000658       0x24 /home/aee38/Documents/qorc-sdk/qomu_apps/qomu_helloworldsw/GCC_Project/output/cli_loop.o
                0x0000000000000658                CLI_cmd_stack_clear
 .text.CLI_cmd_stack_pop
                0x000000000000067c       0x40 /home/aee38/Documents/qorc-sdk/qomu_apps/qomu_helloworldsw/GCC_Project/output/cli_loop.o
                0x000000000000067c                CLI_cmd_stack_pop
 .text.handle_exit
                0x00000000000006bc       0x1c /home/aee38/Documents/qorc-sdk/qomu_apps/qomu_helloworldsw/GCC_Project/output/cli_loop.o
 .text.CLI_init
                0x00000000000006d8       0x24 /home/aee38/Documents/qorc-sdk/qomu_apps/qomu_helloworldsw/GCC_Project/output/cli_loop.o
                0x00000000000006d8                CLI_init
 .text.CLI_print_prompt
                0x00000000000006fc       0x44 /home/aee38/Documents/qorc-sdk/qomu_apps/qomu_helloworldsw/GCC_Project/output/cli_loop.o
                0x00000000000006fc                CLI_print_prompt
 .text.CLI_dispatch_subcmd
                0x0000000000000740       0x90 /home/aee38/Documents/qorc-sdk/qomu_apps/qomu_helloworldsw/GCC_Project/output/cli_loop.o
                0x0000000000000740                CLI_dispatch_subcmd
 .text.CLI_dispatch
                0x00000000000007d0       0xd0 /home/aee38/Documents/qorc-sdk/qomu_apps/qomu_helloworldsw/GCC_Project/output/cli_loop.o
 .text.CLI_submenu_handler
                0x00000000000008a0       0x30 /home/aee38/Documents/qorc-sdk/qomu_apps/qomu_helloworldsw/GCC_Project/output/cli_loop.o
                0x00000000000008a0                CLI_submenu_handler
 .text.CLI_verror
                0x00000000000008d0       0x40 /home/aee38/Documents/qorc-sdk/qomu_apps/qomu_helloworldsw/GCC_Project/output/cli_loop.o
                0x00000000000008d0                CLI_verror
 .text.CLI_rx_byte
                0x0000000000000910       0xe8 /home/aee38/Documents/qorc-sdk/qomu_apps/qomu_helloworldsw/GCC_Project/output/cli_loop.o
                0x0000000000000910                CLI_rx_byte
 .text.CLI_is_more_args
                0x00000000000009f8       0x18 /home/aee38/Documents/qorc-sdk/qomu_apps/qomu_helloworldsw/GCC_Project/output/cli_misc.o
                0x00000000000009f8                CLI_is_more_args
 .text.CLI_error
                0x0000000000000a10       0x1a /home/aee38/Documents/qorc-sdk/qomu_apps/qomu_helloworldsw/GCC_Project/output/cli_misc.o
                0x0000000000000a10                CLI_error
 *fill*         0x0000000000000a2a        0x2 
 .text.CLI_error_missing_parameter
                0x0000000000000a2c        0xc /home/aee38/Documents/qorc-sdk/qomu_apps/qomu_helloworldsw/GCC_Project/output/cli_misc.o
                0x0000000000000a2c                CLI_error_missing_parameter
 .text.CLI_task
                0x0000000000000a38       0x54 /home/aee38/Documents/qorc-sdk/qomu_apps/qomu_helloworldsw/GCC_Project/output/cli_platform.o
                0x0000000000000a38                CLI_task
 .text.CLI_time_now
                0x0000000000000a8c        0x4 /home/aee38/Documents/qorc-sdk/qomu_apps/qomu_helloworldsw/GCC_Project/output/cli_platform.o
                0x0000000000000a8c                CLI_time_now
 .text.CLI_beep
                0x0000000000000a90        0x6 /home/aee38/Documents/qorc-sdk/qomu_apps/qomu_helloworldsw/GCC_Project/output/cli_platform.o
                0x0000000000000a90                CLI_beep
 .text.CLI_timeout_expired
                0x0000000000000a96       0x22 /home/aee38/Documents/qorc-sdk/qomu_apps/qomu_helloworldsw/GCC_Project/output/cli_platform.o
                0x0000000000000a96                CLI_timeout_expired
 .text.CLI_putc_raw
                0x0000000000000ab8        0x8 /home/aee38/Documents/qorc-sdk/qomu_apps/qomu_helloworldsw/GCC_Project/output/cli_platform.o
                0x0000000000000ab8                CLI_putc_raw
 .text.CLI_getkey_raw
                0x0000000000000ac0       0x3c /home/aee38/Documents/qorc-sdk/qomu_apps/qomu_helloworldsw/GCC_Project/output/cli_platform.o
                0x0000000000000ac0                CLI_getkey_raw
 .text.CLI_start_task
                0x0000000000000afc       0x58 /home/aee38/Documents/qorc-sdk/qomu_apps/qomu_helloworldsw/GCC_Project/output/cli_platform.o
                0x0000000000000afc                CLI_start_task
 .text.__debug_lockup
                0x0000000000000b54       0x14 /home/aee38/Documents/qorc-sdk/qomu_apps/qomu_helloworldsw/GCC_Project/output/dbg_uart.o
 .text._semihost_write
                0x0000000000000b68       0x54 /home/aee38/Documents/qorc-sdk/qomu_apps/qomu_helloworldsw/GCC_Project/output/dbg_uart.o
                0x0000000000000b68                _semihost_write
 .text.dbg_ch_raw
                0x0000000000000bbc       0x74 /home/aee38/Documents/qorc-sdk/qomu_apps/qomu_helloworldsw/GCC_Project/output/dbg_uart.o
                0x0000000000000bbc                dbg_ch_raw
 .text.dbg_nl   0x0000000000000c30       0x12 /home/aee38/Documents/qorc-sdk/qomu_apps/qomu_helloworldsw/GCC_Project/output/dbg_uart.o
                0x0000000000000c30                dbg_nl
 .text.dbg_ch   0x0000000000000c42        0xc /home/aee38/Documents/qorc-sdk/qomu_apps/qomu_helloworldsw/GCC_Project/output/dbg_uart.o
                0x0000000000000c42                dbg_ch
 .text.dbg_hex4
                0x0000000000000c4e       0x14 /home/aee38/Documents/qorc-sdk/qomu_apps/qomu_helloworldsw/GCC_Project/output/dbg_uart.o
 .text.dbg_hex8
                0x0000000000000c62       0x14 /home/aee38/Documents/qorc-sdk/qomu_apps/qomu_helloworldsw/GCC_Project/output/dbg_uart.o
                0x0000000000000c62                dbg_hex8
 .text.dbg_hex16
                0x0000000000000c76       0x14 /home/aee38/Documents/qorc-sdk/qomu_apps/qomu_helloworldsw/GCC_Project/output/dbg_uart.o
                0x0000000000000c76                dbg_hex16
 .text.dbg_hex32
                0x0000000000000c8a       0x14 /home/aee38/Documents/qorc-sdk/qomu_apps/qomu_helloworldsw/GCC_Project/output/dbg_uart.o
                0x0000000000000c8a                dbg_hex32
 .text._dbg_int
                0x0000000000000c9e       0x20 /home/aee38/Documents/qorc-sdk/qomu_apps/qomu_helloworldsw/GCC_Project/output/dbg_uart.o
 .text.dbg_memdumpx
                0x0000000000000cbe       0xe0 /home/aee38/Documents/qorc-sdk/qomu_apps/qomu_helloworldsw/GCC_Project/output/dbg_uart.o
 *fill*         0x0000000000000d9e        0x2 
 .text.dbg_str  0x0000000000000da0       0x88 /home/aee38/Documents/qorc-sdk/qomu_apps/qomu_helloworldsw/GCC_Project/output/dbg_uart.o
                0x0000000000000da0                dbg_str
 .text._dbg_str_xxx
                0x0000000000000e28       0x16 /home/aee38/Documents/qorc-sdk/qomu_apps/qomu_helloworldsw/GCC_Project/output/dbg_uart.o
 .text.dbg_str_hexXX
                0x0000000000000e3e       0x22 /home/aee38/Documents/qorc-sdk/qomu_apps/qomu_helloworldsw/GCC_Project/output/dbg_uart.o
 .text.dbg_int  0x0000000000000e60       0x24 /home/aee38/Documents/qorc-sdk/qomu_apps/qomu_helloworldsw/GCC_Project/output/dbg_uart.o
                0x0000000000000e60                dbg_int
 .text.dbg_str_str
                0x0000000000000e84       0x16 /home/aee38/Documents/qorc-sdk/qomu_apps/qomu_helloworldsw/GCC_Project/output/dbg_uart.o
                0x0000000000000e84                dbg_str_str
 .text.dbg_str_int
                0x0000000000000e9a       0x16 /home/aee38/Documents/qorc-sdk/qomu_apps/qomu_helloworldsw/GCC_Project/output/dbg_uart.o
                0x0000000000000e9a                dbg_str_int
 .text.dbg_str_int_noln
                0x0000000000000eb0       0x12 /home/aee38/Documents/qorc-sdk/qomu_apps/qomu_helloworldsw/GCC_Project/output/dbg_uart.o
                0x0000000000000eb0                dbg_str_int_noln
 *fill*         0x0000000000000ec2        0x2 
 .text.dbg_str_hex32
                0x0000000000000ec4        0xc /home/aee38/Documents/qorc-sdk/qomu_apps/qomu_helloworldsw/GCC_Project/output/dbg_uart.o
                0x0000000000000ec4                dbg_str_hex32
 .text.dbg_fatal_error
                0x0000000000000ed0       0x12 /home/aee38/Documents/qorc-sdk/qomu_apps/qomu_helloworldsw/GCC_Project/output/dbg_uart.o
                0x0000000000000ed0                dbg_fatal_error
 .text.dbg_fatal_error_int
                0x0000000000000ee2        0xe /home/aee38/Documents/qorc-sdk/qomu_apps/qomu_helloworldsw/GCC_Project/output/dbg_uart.o
                0x0000000000000ee2                dbg_fatal_error_int
 .text.dbg_memdump32
                0x0000000000000ef0       0x1e /home/aee38/Documents/qorc-sdk/qomu_apps/qomu_helloworldsw/GCC_Project/output/dbg_uart.o
                0x0000000000000ef0                dbg_memdump32
 *fill*         0x0000000000000f0e        0x2 
 .text.HAL_usbserial_init_common
                0x0000000000000f10      0x108 /home/aee38/Documents/qorc-sdk/qomu_apps/qomu_helloworldsw/GCC_Project/output/eoss3_hal_fpga_usbserial.o
 .text.HAL_usbserial_isrfunc
                0x0000000000001018       0x50 /home/aee38/Documents/qorc-sdk/qomu_apps/qomu_helloworldsw/GCC_Project/output/eoss3_hal_fpga_usbserial.o
 .text.HAL_usbserial_init2
                0x0000000000001068        0x8 /home/aee38/Documents/qorc-sdk/qomu_apps/qomu_helloworldsw/GCC_Project/output/eoss3_hal_fpga_usbserial.o
                0x0000000000001068                HAL_usbserial_init2
 .text.HAL_usbserial_init
                0x0000000000001070        0xa /home/aee38/Documents/qorc-sdk/qomu_apps/qomu_helloworldsw/GCC_Project/output/eoss3_hal_fpga_usbserial.o
                0x0000000000001070                HAL_usbserial_init
 *fill*         0x000000000000107a        0x2 
 .text.HAL_usbserial_getc
                0x000000000000107c       0x18 /home/aee38/Documents/qorc-sdk/qomu_apps/qomu_helloworldsw/GCC_Project/output/eoss3_hal_fpga_usbserial.o
                0x000000000000107c                HAL_usbserial_getc
 .text.HAL_usbserial_putc
                0x0000000000001094       0x20 /home/aee38/Documents/qorc-sdk/qomu_apps/qomu_helloworldsw/GCC_Project/output/eoss3_hal_fpga_usbserial.o
                0x0000000000001094                HAL_usbserial_putc
 .text.HAL_usbserial_dataavailable
                0x00000000000010b4       0x10 /home/aee38/Documents/qorc-sdk/qomu_apps/qomu_helloworldsw/GCC_Project/output/eoss3_hal_fpga_usbserial.o
                0x00000000000010b4                HAL_usbserial_dataavailable
 .text.HAL_usbserial_rxwait
                0x00000000000010c4       0x48 /home/aee38/Documents/qorc-sdk/qomu_apps/qomu_helloworldsw/GCC_Project/output/eoss3_hal_fpga_usbserial.o
                0x00000000000010c4                HAL_usbserial_rxwait
 .text.HAL_GPIO_Write
                0x000000000000110c       0x2c /home/aee38/Documents/qorc-sdk/qomu_apps/qomu_helloworldsw/GCC_Project/output/eoss3_hal_gpio.o
                0x000000000000110c                HAL_GPIO_Write
 .text.HAL_PAD_Config
                0x0000000000001138      0x168 /home/aee38/Documents/qorc-sdk/qomu_apps/qomu_helloworldsw/GCC_Project/output/eoss3_hal_pad_config.o
                0x0000000000001138                HAL_PAD_Config
 .text.configure_s3_pads
                0x00000000000012a0       0x1a /home/aee38/Documents/qorc-sdk/qomu_apps/qomu_helloworldsw/GCC_Project/output/eoss3_hal_pad_config.o
                0x00000000000012a0                configure_s3_pads
 *fill*         0x00000000000012ba        0x2 
 .text.eoss3_rtc_enable_irq
                0x00000000000012bc       0x28 /home/aee38/Documents/qorc-sdk/qomu_apps/qomu_helloworldsw/GCC_Project/output/eoss3_hal_rtc.o
 .text.write_rtc_reg
                0x00000000000012e4       0x28 /home/aee38/Documents/qorc-sdk/qomu_apps/qomu_helloworldsw/GCC_Project/output/eoss3_hal_rtc.o
 .text.__rtc_setup_alarm.isra.1
                0x000000000000130c       0x44 /home/aee38/Documents/qorc-sdk/qomu_apps/qomu_helloworldsw/GCC_Project/output/eoss3_hal_rtc.o
 .text.HAL_RTC_ISR
                0x0000000000001350       0x24 /home/aee38/Documents/qorc-sdk/qomu_apps/qomu_helloworldsw/GCC_Project/output/eoss3_hal_rtc.o
                0x0000000000001350                HAL_RTC_ISR
 .text.unlock_spi1_bus
                0x0000000000001374       0x5c /home/aee38/Documents/qorc-sdk/qomu_apps/qomu_helloworldsw/GCC_Project/output/eoss3_hal_spi.o
                0x0000000000001374                unlock_spi1_bus
 .text.SPI_DMA_Complete
                0x00000000000013d0       0x88 /home/aee38/Documents/qorc-sdk/qomu_apps/qomu_helloworldsw/GCC_Project/output/eoss3_hal_spi.o
                0x00000000000013d0                SPI_DMA_Complete
 .text.HAL_SPI_IRQHandler
                0x0000000000001458       0x6c /home/aee38/Documents/qorc-sdk/qomu_apps/qomu_helloworldsw/GCC_Project/output/eoss3_hal_spi.o
                0x0000000000001458                HAL_SPI_IRQHandler
 .text.HAL_Timer_ISR
                0x00000000000014c4       0x88 /home/aee38/Documents/qorc-sdk/qomu_apps/qomu_helloworldsw/GCC_Project/output/eoss3_hal_timer.o
                0x00000000000014c4                HAL_Timer_ISR
 .text.uart_disable_irqs
                0x000000000000154c       0x18 /home/aee38/Documents/qorc-sdk/qomu_apps/qomu_helloworldsw/GCC_Project/output/eoss3_hal_uart.o
 .text.uart_baud_rate
                0x0000000000001564       0xa0 /home/aee38/Documents/qorc-sdk/qomu_apps/qomu_helloworldsw/GCC_Project/output/eoss3_hal_uart.o
 .text.is_hw_uart_enabled
                0x0000000000001604       0x20 /home/aee38/Documents/qorc-sdk/qomu_apps/qomu_helloworldsw/GCC_Project/output/eoss3_hal_uart.o
 .text.uart_lpm_callback
                0x0000000000001624       0x74 /home/aee38/Documents/qorc-sdk/qomu_apps/qomu_helloworldsw/GCC_Project/output/eoss3_hal_uart.o
 .text.uart_init
                0x0000000000001698      0x188 /home/aee38/Documents/qorc-sdk/qomu_apps/qomu_helloworldsw/GCC_Project/output/eoss3_hal_uart.o
                0x0000000000001698                uart_init
 .text.uart_isr_handler
                0x0000000000001820       0x90 /home/aee38/Documents/qorc-sdk/qomu_apps/qomu_helloworldsw/GCC_Project/output/eoss3_hal_uart.o
                0x0000000000001820                uart_isr_handler
 .text.uart_tx_raw
                0x00000000000018b0       0x48 /home/aee38/Documents/qorc-sdk/qomu_apps/qomu_helloworldsw/GCC_Project/output/eoss3_hal_uart.o
                0x00000000000018b0                uart_tx_raw
 .text.uart_tx  0x00000000000018f8       0x1c /home/aee38/Documents/qorc-sdk/qomu_apps/qomu_helloworldsw/GCC_Project/output/eoss3_hal_uart.o
                0x00000000000018f8                uart_tx
 .text.uart_tx_buf
                0x0000000000001914       0x1a /home/aee38/Documents/qorc-sdk/qomu_apps/qomu_helloworldsw/GCC_Project/output/eoss3_hal_uart.o
                0x0000000000001914                uart_tx_buf
 *fill*         0x000000000000192e        0x2 
 .text.uart_rx_wait
                0x0000000000001930       0x40 /home/aee38/Documents/qorc-sdk/qomu_apps/qomu_helloworldsw/GCC_Project/output/eoss3_hal_uart.o
                0x0000000000001930                uart_rx_wait
 .text.uart_rx_available
                0x0000000000001970       0x40 /home/aee38/Documents/qorc-sdk/qomu_apps/qomu_helloworldsw/GCC_Project/output/eoss3_hal_uart.o
                0x0000000000001970                uart_rx_available
 .text.uart_rx  0x00000000000019b0       0x6c /home/aee38/Documents/qorc-sdk/qomu_apps/qomu_helloworldsw/GCC_Project/output/eoss3_hal_uart.o
                0x00000000000019b0                uart_rx
 .text.WDT_ISR  0x0000000000001a1c       0x8c /home/aee38/Documents/qorc-sdk/qomu_apps/qomu_helloworldsw/GCC_Project/output/eoss3_hal_wdt.o
                0x0000000000001a1c                WDT_ISR
 .text.spurious_interrupt
                0x0000000000001aa8        0xc /home/aee38/Documents/qorc-sdk/qomu_apps/qomu_helloworldsw/GCC_Project/output/exceptions.o
 .text.prvGetRegistersFromStack
                0x0000000000001ab4       0xf0 /home/aee38/Documents/qorc-sdk/qomu_apps/qomu_helloworldsw/GCC_Project/output/exceptions.o
                0x0000000000001ab4                prvGetRegistersFromStack
 .text.HardFault_Handler
                0x0000000000001ba4       0x16 /home/aee38/Documents/qorc-sdk/qomu_apps/qomu_helloworldsw/GCC_Project/output/exceptions.o
                0x0000000000001ba4                HardFault_Handler
 .text.NMI_Handler
                0x0000000000001bba        0x6 /home/aee38/Documents/qorc-sdk/qomu_apps/qomu_helloworldsw/GCC_Project/output/exceptions.o
                0x0000000000001bba                NMI_Handler
 .text.MemManage_Handler
                0x0000000000001bc0        0x6 /home/aee38/Documents/qorc-sdk/qomu_apps/qomu_helloworldsw/GCC_Project/output/exceptions.o
                0x0000000000001bc0                MemManage_Handler
 .text.BusFault_Handler
                0x0000000000001bc6        0x6 /home/aee38/Documents/qorc-sdk/qomu_apps/qomu_helloworldsw/GCC_Project/output/exceptions.o
                0x0000000000001bc6                BusFault_Handler
 .text.UsageFault_Handler
                0x0000000000001bcc        0x6 /home/aee38/Documents/qorc-sdk/qomu_apps/qomu_helloworldsw/GCC_Project/output/exceptions.o
                0x0000000000001bcc                UsageFault_Handler
 .text.DebugMon_Handler
                0x0000000000001bd2        0x6 /home/aee38/Documents/qorc-sdk/qomu_apps/qomu_helloworldsw/GCC_Project/output/exceptions.o
                0x0000000000001bd2                DebugMon_Handler
 .text.Uart_Handler
                0x0000000000001bd8       0x50 /home/aee38/Documents/qorc-sdk/qomu_apps/qomu_helloworldsw/GCC_Project/output/exceptions.o
                0x0000000000001bd8                Uart_Handler
 .text.Timer_Handler
                0x0000000000001c28       0x24 /home/aee38/Documents/qorc-sdk/qomu_apps/qomu_helloworldsw/GCC_Project/output/exceptions.o
                0x0000000000001c28                Timer_Handler
 .text.CpuWdtInt_Handler
                0x0000000000001c4c       0x24 /home/aee38/Documents/qorc-sdk/qomu_apps/qomu_helloworldsw/GCC_Project/output/exceptions.o
                0x0000000000001c4c                CpuWdtInt_Handler
 .text.CpuWdtRst_Handler
                0x0000000000001c70        0x6 /home/aee38/Documents/qorc-sdk/qomu_apps/qomu_helloworldsw/GCC_Project/output/exceptions.o
                0x0000000000001c70                CpuWdtRst_Handler
 .text.BusTimeout_Handler
                0x0000000000001c76        0x6 /home/aee38/Documents/qorc-sdk/qomu_apps/qomu_helloworldsw/GCC_Project/output/exceptions.o
                0x0000000000001c76                BusTimeout_Handler
 .text.Fpu_Handler
                0x0000000000001c7c        0x6 /home/aee38/Documents/qorc-sdk/qomu_apps/qomu_helloworldsw/GCC_Project/output/exceptions.o
                0x0000000000001c7c                Fpu_Handler
 *fill*         0x0000000000001c82        0x2 
 .text.Pkfb_Handler
                0x0000000000001c84       0x10 /home/aee38/Documents/qorc-sdk/qomu_apps/qomu_helloworldsw/GCC_Project/output/exceptions.o
                0x0000000000001c84                Pkfb_Handler
 .text.I2s_Handler
                0x0000000000001c94        0x6 /home/aee38/Documents/qorc-sdk/qomu_apps/qomu_helloworldsw/GCC_Project/output/exceptions.o
                0x0000000000001c94                I2s_Handler
 .text.Audio_Handler
                0x0000000000001c9a        0x6 /home/aee38/Documents/qorc-sdk/qomu_apps/qomu_helloworldsw/GCC_Project/output/exceptions.o
                0x0000000000001c9a                Audio_Handler
 .text.SpiMs_Handler
                0x0000000000001ca0       0x5c /home/aee38/Documents/qorc-sdk/qomu_apps/qomu_helloworldsw/GCC_Project/output/exceptions.o
                0x0000000000001ca0                SpiMs_Handler
 .text.CfgDma_Handler
                0x0000000000001cfc       0x28 /home/aee38/Documents/qorc-sdk/qomu_apps/qomu_helloworldsw/GCC_Project/output/exceptions.o
                0x0000000000001cfc                CfgDma_Handler
 .text.PmuTimer_Handler
                0x0000000000001d24        0x2 /home/aee38/Documents/qorc-sdk/qomu_apps/qomu_helloworldsw/GCC_Project/output/exceptions.o
                0x0000000000001d24                PmuTimer_Handler
 .text.AdcDone_Handler
                0x0000000000001d26        0x8 /home/aee38/Documents/qorc-sdk/qomu_apps/qomu_helloworldsw/GCC_Project/output/exceptions.o
                0x0000000000001d26                AdcDone_Handler
 *fill*         0x0000000000001d2e        0x2 
 .text.RtcAlarm_Handler
                0x0000000000001d30       0x1c /home/aee38/Documents/qorc-sdk/qomu_apps/qomu_helloworldsw/GCC_Project/output/exceptions.o
                0x0000000000001d30                RtcAlarm_Handler
 .text.ResetInt_Handler
                0x0000000000001d4c        0x8 /home/aee38/Documents/qorc-sdk/qomu_apps/qomu_helloworldsw/GCC_Project/output/exceptions.o
                0x0000000000001d4c                ResetInt_Handler
 .text.Ffe0_Handler
                0x0000000000001d54       0x18 /home/aee38/Documents/qorc-sdk/qomu_apps/qomu_helloworldsw/GCC_Project/output/exceptions.o
                0x0000000000001d54                Ffe0_Handler
 .text.FbMsg_Handler
                0x0000000000001d6c       0x70 /home/aee38/Documents/qorc-sdk/qomu_apps/qomu_helloworldsw/GCC_Project/output/exceptions.o
                0x0000000000001d6c                FbMsg_Handler
 .text.FB_RegisterISR
                0x0000000000001ddc       0x10 /home/aee38/Documents/qorc-sdk/qomu_apps/qomu_helloworldsw/GCC_Project/output/exceptions.o
                0x0000000000001ddc                FB_RegisterISR
 .text.FB_ConfigureInterrupt
                0x0000000000001dec       0x90 /home/aee38/Documents/qorc-sdk/qomu_apps/qomu_helloworldsw/GCC_Project/output/exceptions.o
                0x0000000000001dec                FB_ConfigureInterrupt
 .text.SensorGpio_Handler
                0x0000000000001e7c        0x8 /home/aee38/Documents/qorc-sdk/qomu_apps/qomu_helloworldsw/GCC_Project/output/exceptions.o
                0x0000000000001e7c                SensorGpio_Handler
 .text.M4SramSleep_Handler
                0x0000000000001e84        0x8 /home/aee38/Documents/qorc-sdk/qomu_apps/qomu_helloworldsw/GCC_Project/output/exceptions.o
                0x0000000000001e84                M4SramSleep_Handler
 .text.LDO30_PG_Handler
                0x0000000000001e8c        0x8 /home/aee38/Documents/qorc-sdk/qomu_apps/qomu_helloworldsw/GCC_Project/output/exceptions.o
                0x0000000000001e8c                LDO30_PG_Handler
 .text.LDO50_PG_Handler
                0x0000000000001e94        0x8 /home/aee38/Documents/qorc-sdk/qomu_apps/qomu_helloworldsw/GCC_Project/output/exceptions.o
                0x0000000000001e94                LDO50_PG_Handler
 .text.DMIC_Voice_Det_Handler
                0x0000000000001e9c        0x8 /home/aee38/Documents/qorc-sdk/qomu_apps/qomu_helloworldsw/GCC_Project/output/exceptions.o
                0x0000000000001e9c                DMIC_Voice_Det_Handler
 .text.ApPDMClkOn_Handler
                0x0000000000001ea4        0x8 /home/aee38/Documents/qorc-sdk/qomu_apps/qomu_helloworldsw/GCC_Project/output/exceptions.o
                0x0000000000001ea4                ApPDMClkOn_Handler
 .text.ApPDMClkOff_Handler
                0x0000000000001eac        0x8 /home/aee38/Documents/qorc-sdk/qomu_apps/qomu_helloworldsw/GCC_Project/output/exceptions.o
                0x0000000000001eac                ApPDMClkOff_Handler
 .text.Dmac0BlkDone_Handler
                0x0000000000001eb4        0x8 /home/aee38/Documents/qorc-sdk/qomu_apps/qomu_helloworldsw/GCC_Project/output/exceptions.o
                0x0000000000001eb4                Dmac0BlkDone_Handler
 .text.Dmac0BufDone_Handler
                0x0000000000001ebc        0x8 /home/aee38/Documents/qorc-sdk/qomu_apps/qomu_helloworldsw/GCC_Project/output/exceptions.o
                0x0000000000001ebc                Dmac0BufDone_Handler
 .text.Dmac1BlkDone_Handler
                0x0000000000001ec4        0x8 /home/aee38/Documents/qorc-sdk/qomu_apps/qomu_helloworldsw/GCC_Project/output/exceptions.o
                0x0000000000001ec4                Dmac1BlkDone_Handler
 .text.Dmac1BufDone_Handler
                0x0000000000001ecc        0x8 /home/aee38/Documents/qorc-sdk/qomu_apps/qomu_helloworldsw/GCC_Project/output/exceptions.o
                0x0000000000001ecc                Dmac1BufDone_Handler
 .text.Sdma0Done_Handler
                0x0000000000001ed4        0x8 /home/aee38/Documents/qorc-sdk/qomu_apps/qomu_helloworldsw/GCC_Project/output/exceptions.o
                0x0000000000001ed4                Sdma0Done_Handler
 .text.Sdma1Done_Handler
                0x0000000000001edc        0x8 /home/aee38/Documents/qorc-sdk/qomu_apps/qomu_helloworldsw/GCC_Project/output/exceptions.o
                0x0000000000001edc                Sdma1Done_Handler
 .text.Sdma2Done_Handler
                0x0000000000001ee4        0x8 /home/aee38/Documents/qorc-sdk/qomu_apps/qomu_helloworldsw/GCC_Project/output/exceptions.o
                0x0000000000001ee4                Sdma2Done_Handler
 .text.Sdma3Done_Handler
                0x0000000000001eec        0x8 /home/aee38/Documents/qorc-sdk/qomu_apps/qomu_helloworldsw/GCC_Project/output/exceptions.o
                0x0000000000001eec                Sdma3Done_Handler
 .text.Sdma4Done_Handler
                0x0000000000001ef4        0x8 /home/aee38/Documents/qorc-sdk/qomu_apps/qomu_helloworldsw/GCC_Project/output/exceptions.o
                0x0000000000001ef4                Sdma4Done_Handler
 .text.Sdma5Done_Handler
                0x0000000000001efc        0x8 /home/aee38/Documents/qorc-sdk/qomu_apps/qomu_helloworldsw/GCC_Project/output/exceptions.o
                0x0000000000001efc                Sdma5Done_Handler
 .text.Sdma6Done_Handler
                0x0000000000001f04        0x8 /home/aee38/Documents/qorc-sdk/qomu_apps/qomu_helloworldsw/GCC_Project/output/exceptions.o
                0x0000000000001f04                Sdma6Done_Handler
 .text.Sdma7Done_Handler
                0x0000000000001f0c        0x8 /home/aee38/Documents/qorc-sdk/qomu_apps/qomu_helloworldsw/GCC_Project/output/exceptions.o
                0x0000000000001f0c                Sdma7Done_Handler
 .text.Sdma8Done_Handler
                0x0000000000001f14        0x8 /home/aee38/Documents/qorc-sdk/qomu_apps/qomu_helloworldsw/GCC_Project/output/exceptions.o
                0x0000000000001f14                Sdma8Done_Handler
 .text.Sdma9Done_Handler
                0x0000000000001f1c        0x8 /home/aee38/Documents/qorc-sdk/qomu_apps/qomu_helloworldsw/GCC_Project/output/exceptions.o
                0x0000000000001f1c                Sdma9Done_Handler
 .text.Sdma10Done_Handler
                0x0000000000001f24        0x8 /home/aee38/Documents/qorc-sdk/qomu_apps/qomu_helloworldsw/GCC_Project/output/exceptions.o
                0x0000000000001f24                Sdma10Done_Handler
 .text.Sdma11Done_Handler
                0x0000000000001f2c        0x8 /home/aee38/Documents/qorc-sdk/qomu_apps/qomu_helloworldsw/GCC_Project/output/exceptions.o
                0x0000000000001f2c                Sdma11Done_Handler
 .text.SdmaErr_Handler
                0x0000000000001f34        0x8 /home/aee38/Documents/qorc-sdk/qomu_apps/qomu_helloworldsw/GCC_Project/output/exceptions.o
                0x0000000000001f34                SdmaErr_Handler
 .text.I2S_SlvM4TxOr_Handler
                0x0000000000001f3c        0x8 /home/aee38/Documents/qorc-sdk/qomu_apps/qomu_helloworldsw/GCC_Project/output/exceptions.o
                0x0000000000001f3c                I2S_SlvM4TxOr_Handler
 .text.SRAM_128KB_Handler
                0x0000000000001f44        0x8 /home/aee38/Documents/qorc-sdk/qomu_apps/qomu_helloworldsw/GCC_Project/output/exceptions.o
                0x0000000000001f44                SRAM_128KB_Handler
 .text.LPSD_Voice_Det_Handler
                0x0000000000001f4c        0x8 /home/aee38/Documents/qorc-sdk/qomu_apps/qomu_helloworldsw/GCC_Project/output/exceptions.o
                0x0000000000001f4c                LPSD_Voice_Det_Handler
 .text.FfeWdt_Handler
                0x0000000000001f54        0x8 /home/aee38/Documents/qorc-sdk/qomu_apps/qomu_helloworldsw/GCC_Project/output/exceptions.o
                0x0000000000001f54                FfeWdt_Handler
 .text.ApBoot_Handler
                0x0000000000001f5c        0x8 /home/aee38/Documents/qorc-sdk/qomu_apps/qomu_helloworldsw/GCC_Project/output/exceptions.o
                0x0000000000001f5c                ApBoot_Handler
 .text.SwInt2_Handler
                0x0000000000001f64        0x8 /home/aee38/Documents/qorc-sdk/qomu_apps/qomu_helloworldsw/GCC_Project/output/exceptions.o
                0x0000000000001f64                SwInt2_Handler
 .text.SwInt1_Handler
                0x0000000000001f6c       0x24 /home/aee38/Documents/qorc-sdk/qomu_apps/qomu_helloworldsw/GCC_Project/output/exceptions.o
                0x0000000000001f6c                SwInt1_Handler
 .text.Ffe0Msg_Handler
                0x0000000000001f90        0x8 /home/aee38/Documents/qorc-sdk/qomu_apps/qomu_helloworldsw/GCC_Project/output/exceptions.o
                0x0000000000001f90                Ffe0Msg_Handler
 .text.lpsdVoiceOffHandler
                0x0000000000001f98        0x8 /home/aee38/Documents/qorc-sdk/qomu_apps/qomu_helloworldsw/GCC_Project/output/exceptions.o
                0x0000000000001f98                lpsdVoiceOffHandler
 .text.dmicVoiceOffHandler
                0x0000000000001fa0        0x8 /home/aee38/Documents/qorc-sdk/qomu_apps/qomu_helloworldsw/GCC_Project/output/exceptions.o
                0x0000000000001fa0                dmicVoiceOffHandler
 .text.vApplicationMallocFailedHook
                0x0000000000001fa8       0x24 /home/aee38/Documents/qorc-sdk/qomu_apps/qomu_helloworldsw/GCC_Project/output/exceptions.o
                0x0000000000001fa8                vApplicationMallocFailedHook
 .text.vApplicationStackOverflowHook
                0x0000000000001fcc       0x24 /home/aee38/Documents/qorc-sdk/qomu_apps/qomu_helloworldsw/GCC_Project/output/exceptions.o
                0x0000000000001fcc                vApplicationStackOverflowHook
 .text.vApplicationTickHook
                0x0000000000001ff0        0x2 /home/aee38/Documents/qorc-sdk/qomu_apps/qomu_helloworldsw/GCC_Project/output/exceptions.o
                0x0000000000001ff0                vApplicationTickHook
 .text.vApplicationIdleHook
                0x0000000000001ff2        0x2 /home/aee38/Documents/qorc-sdk/qomu_apps/qomu_helloworldsw/GCC_Project/output/exceptions.o
                0x0000000000001ff2                vApplicationIdleHook
 .text.load_fpga
                0x0000000000001ff4      0x118 /home/aee38/Documents/qorc-sdk/qomu_apps/qomu_helloworldsw/GCC_Project/output/fpga_loader.o
                0x0000000000001ff4                load_fpga
 .text.prvInsertBlockIntoFreeList
                0x000000000000210c       0x74 /home/aee38/Documents/qorc-sdk/qomu_apps/qomu_helloworldsw/GCC_Project/output/heap_4.o
 .text.pvPortMalloc
                0x0000000000002180      0x1a8 /home/aee38/Documents/qorc-sdk/qomu_apps/qomu_helloworldsw/GCC_Project/output/heap_4.o
                0x0000000000002180                pvPortMalloc
 .text.vPortFree
                0x0000000000002328       0xa0 /home/aee38/Documents/qorc-sdk/qomu_apps/qomu_helloworldsw/GCC_Project/output/heap_4.o
                0x0000000000002328                vPortFree
 .text.vListInitialise
                0x00000000000023c8       0x16 /home/aee38/Documents/qorc-sdk/qomu_apps/qomu_helloworldsw/GCC_Project/output/list.o
                0x00000000000023c8                vListInitialise
 .text.vListInitialiseItem
                0x00000000000023de        0x6 /home/aee38/Documents/qorc-sdk/qomu_apps/qomu_helloworldsw/GCC_Project/output/list.o
                0x00000000000023de                vListInitialiseItem
 .text.vListInsertEnd
                0x00000000000023e4       0x18 /home/aee38/Documents/qorc-sdk/qomu_apps/qomu_helloworldsw/GCC_Project/output/list.o
                0x00000000000023e4                vListInsertEnd
 .text.vListInsert
                0x00000000000023fc       0x2e /home/aee38/Documents/qorc-sdk/qomu_apps/qomu_helloworldsw/GCC_Project/output/list.o
                0x00000000000023fc                vListInsert
 .text.uxListRemove
                0x000000000000242a       0x22 /home/aee38/Documents/qorc-sdk/qomu_apps/qomu_helloworldsw/GCC_Project/output/list.o
                0x000000000000242a                uxListRemove
 .text.startup.main
                0x000000000000244c      0x150 /home/aee38/Documents/qorc-sdk/qomu_apps/qomu_helloworldsw/GCC_Project/output/main.o
                0x000000000000244c                main
 .text.SystemInit
                0x000000000000259c        0x2 /home/aee38/Documents/qorc-sdk/qomu_apps/qomu_helloworldsw/GCC_Project/output/main.o
                0x000000000000259c                SystemInit
 *fill*         0x000000000000259e        0x2 
 .text.toggleblueled
                0x00000000000025a0       0x14 /home/aee38/Documents/qorc-sdk/qomu_apps/qomu_helloworldsw/GCC_Project/output/main_dbg_cli_menu.o
 .text.togglegreenled
                0x00000000000025b4       0x30 /home/aee38/Documents/qorc-sdk/qomu_apps/qomu_helloworldsw/GCC_Project/output/main_dbg_cli_menu.o
 .text.toggleredled
                0x00000000000025e4       0x2c /home/aee38/Documents/qorc-sdk/qomu_apps/qomu_helloworldsw/GCC_Project/output/main_dbg_cli_menu.o
 .text.prvPortStartFirstTask
                0x0000000000002610       0x28 /home/aee38/Documents/qorc-sdk/qomu_apps/qomu_helloworldsw/GCC_Project/output/port.o
 .text.vPortEnableVFP
                0x0000000000002638       0x14 /home/aee38/Documents/qorc-sdk/qomu_apps/qomu_helloworldsw/GCC_Project/output/port.o
 .text.prvTaskExitError
                0x000000000000264c       0x50 /home/aee38/Documents/qorc-sdk/qomu_apps/qomu_helloworldsw/GCC_Project/output/port.o
 .text.pxPortInitialiseStack
                0x000000000000269c       0x2c /home/aee38/Documents/qorc-sdk/qomu_apps/qomu_helloworldsw/GCC_Project/output/port.o
                0x000000000000269c                pxPortInitialiseStack
 *fill*         0x00000000000026c8        0x8 
 .text.SVC_Handler
                0x00000000000026d0       0x24 /home/aee38/Documents/qorc-sdk/qomu_apps/qomu_helloworldsw/GCC_Project/output/port.o
                0x00000000000026d0                SVC_Handler
 .text.vPortEnterCritical
                0x00000000000026f4       0x58 /home/aee38/Documents/qorc-sdk/qomu_apps/qomu_helloworldsw/GCC_Project/output/port.o
                0x00000000000026f4                vPortEnterCritical
 .text.vPortExitCritical
                0x000000000000274c       0x3c /home/aee38/Documents/qorc-sdk/qomu_apps/qomu_helloworldsw/GCC_Project/output/port.o
                0x000000000000274c                vPortExitCritical
 *fill*         0x0000000000002788        0x8 
 .text.PendSV_Handler
                0x0000000000002790       0x64 /home/aee38/Documents/qorc-sdk/qomu_apps/qomu_helloworldsw/GCC_Project/output/port.o
                0x0000000000002790                PendSV_Handler
 .text.xPortSysTickHandler
                0x00000000000027f4       0x2c /home/aee38/Documents/qorc-sdk/qomu_apps/qomu_helloworldsw/GCC_Project/output/port.o
                0x00000000000027f4                xPortSysTickHandler
 .text.xPortStartScheduler
                0x0000000000002820      0x158 /home/aee38/Documents/qorc-sdk/qomu_apps/qomu_helloworldsw/GCC_Project/output/port.o
                0x0000000000002820                xPortStartScheduler
 .text.vPortValidateInterruptPriority
                0x0000000000002978       0x7c /home/aee38/Documents/qorc-sdk/qomu_apps/qomu_helloworldsw/GCC_Project/output/port.o
                0x0000000000002978                vPortValidateInterruptPriority
 .text.system_init
                0x00000000000029f4       0x6c /home/aee38/Documents/qorc-sdk/qomu_apps/qomu_helloworldsw/GCC_Project/output/qomu_hardwaresetup.o
                0x00000000000029f4                system_init
 .text.qomu_hardwaresetup
                0x0000000000002a60       0x74 /home/aee38/Documents/qorc-sdk/qomu_apps/qomu_helloworldsw/GCC_Project/output/qomu_hardwaresetup.o
                0x0000000000002a60                qomu_hardwaresetup
 .text.prvIsQueueEmpty
                0x0000000000002ad4       0x16 /home/aee38/Documents/qorc-sdk/qomu_apps/qomu_helloworldsw/GCC_Project/output/queue.o
 .text.prvCopyDataToQueue
                0x0000000000002aea       0x72 /home/aee38/Documents/qorc-sdk/qomu_apps/qomu_helloworldsw/GCC_Project/output/queue.o
 .text.prvCopyDataFromQueue
                0x0000000000002b5c       0x2a /home/aee38/Documents/qorc-sdk/qomu_apps/qomu_helloworldsw/GCC_Project/output/queue.o
 .text.prvUnlockQueue
                0x0000000000002b86       0x70 /home/aee38/Documents/qorc-sdk/qomu_apps/qomu_helloworldsw/GCC_Project/output/queue.o
 *fill*         0x0000000000002bf6        0x2 
 .text.xQueueGenericReset
                0x0000000000002bf8       0x90 /home/aee38/Documents/qorc-sdk/qomu_apps/qomu_helloworldsw/GCC_Project/output/queue.o
                0x0000000000002bf8                xQueueGenericReset
 .text.xQueueGenericCreate
                0x0000000000002c88       0x74 /home/aee38/Documents/qorc-sdk/qomu_apps/qomu_helloworldsw/GCC_Project/output/queue.o
                0x0000000000002c88                xQueueGenericCreate
 .text.xQueueGenericSend
                0x0000000000002cfc      0x19c /home/aee38/Documents/qorc-sdk/qomu_apps/qomu_helloworldsw/GCC_Project/output/queue.o
                0x0000000000002cfc                xQueueGenericSend
 .text.xQueueGenericSendFromISR
                0x0000000000002e98       0xf4 /home/aee38/Documents/qorc-sdk/qomu_apps/qomu_helloworldsw/GCC_Project/output/queue.o
                0x0000000000002e98                xQueueGenericSendFromISR
 .text.xQueueGenericSendFromISRDebug
                0x0000000000002f8c       0x30 /home/aee38/Documents/qorc-sdk/qomu_apps/qomu_helloworldsw/GCC_Project/output/queue.o
                0x0000000000002f8c                xQueueGenericSendFromISRDebug
 .text.xQueueGiveFromISR
                0x0000000000002fbc       0xe0 /home/aee38/Documents/qorc-sdk/qomu_apps/qomu_helloworldsw/GCC_Project/output/queue.o
                0x0000000000002fbc                xQueueGiveFromISR
 .text.xQueueReceive
                0x000000000000309c      0x170 /home/aee38/Documents/qorc-sdk/qomu_apps/qomu_helloworldsw/GCC_Project/output/queue.o
                0x000000000000309c                xQueueReceive
 .text.xQueueSemaphoreTake
                0x000000000000320c      0x1b4 /home/aee38/Documents/qorc-sdk/qomu_apps/qomu_helloworldsw/GCC_Project/output/queue.o
                0x000000000000320c                xQueueSemaphoreTake
 .text.xQueuePeek
                0x00000000000033c0      0x170 /home/aee38/Documents/qorc-sdk/qomu_apps/qomu_helloworldsw/GCC_Project/output/queue.o
                0x00000000000033c0                xQueuePeek
 .text.uxQueueMessagesWaiting
                0x0000000000003530       0x38 /home/aee38/Documents/qorc-sdk/qomu_apps/qomu_helloworldsw/GCC_Project/output/queue.o
                0x0000000000003530                uxQueueMessagesWaiting
 .text.vQueueAddToRegistry
                0x0000000000003568       0x24 /home/aee38/Documents/qorc-sdk/qomu_apps/qomu_helloworldsw/GCC_Project/output/queue.o
                0x0000000000003568                vQueueAddToRegistry
 .text.vQueueWaitForMessageRestricted
                0x000000000000358c       0x46 /home/aee38/Documents/qorc-sdk/qomu_apps/qomu_helloworldsw/GCC_Project/output/queue.o
                0x000000000000358c                vQueueWaitForMessageRestricted
 .text.s3x_clkd_write_div
                0x00000000000035d2       0x9a /home/aee38/Documents/qorc-sdk/qomu_apps/qomu_helloworldsw/GCC_Project/output/s3x_clock.o
 .text.s3x_clkd_read_div
                0x000000000000366c       0x44 /home/aee38/Documents/qorc-sdk/qomu_apps/qomu_helloworldsw/GCC_Project/output/s3x_clock.o
 .text.s3x_clkd_cal_div
                0x00000000000036b0       0x38 /home/aee38/Documents/qorc-sdk/qomu_apps/qomu_helloworldsw/GCC_Project/output/s3x_clock.o
 .text.S3x_Id_To_Domain
                0x00000000000036e8       0x1c /home/aee38/Documents/qorc-sdk/qomu_apps/qomu_helloworldsw/GCC_Project/output/s3x_clock.o
                0x00000000000036e8                S3x_Id_To_Domain
 .text.s3x_clkd_get_init_rate
                0x0000000000003704       0x28 /home/aee38/Documents/qorc-sdk/qomu_apps/qomu_helloworldsw/GCC_Project/output/s3x_clock.o
                0x0000000000003704                s3x_clkd_get_init_rate
 .text.s3x_clkd_update_div_val
                0x000000000000372c       0x46 /home/aee38/Documents/qorc-sdk/qomu_apps/qomu_helloworldsw/GCC_Project/output/s3x_clock.o
                0x000000000000372c                s3x_clkd_update_div_val
 .text.s3x_clkd_update_fd_rate
                0x0000000000003772        0xe /home/aee38/Documents/qorc-sdk/qomu_apps/qomu_helloworldsw/GCC_Project/output/s3x_clock.o
                0x0000000000003772                s3x_clkd_update_fd_rate
 .text.s3x_clkd_update_sd_div
                0x0000000000003780       0x54 /home/aee38/Documents/qorc-sdk/qomu_apps/qomu_helloworldsw/GCC_Project/output/s3x_clock.o
 .text.s3x_clkd_update_all_src_div
                0x00000000000037d4       0xe0 /home/aee38/Documents/qorc-sdk/qomu_apps/qomu_helloworldsw/GCC_Project/output/s3x_clock.o
                0x00000000000037d4                s3x_clkd_update_all_src_div
 .text.S3x_Clkd_Get_Hsosc_Rate
                0x00000000000038b4       0x34 /home/aee38/Documents/qorc-sdk/qomu_apps/qomu_helloworldsw/GCC_Project/output/s3x_clock.o
                0x00000000000038b4                S3x_Clkd_Get_Hsosc_Rate
 .text.s3x_clkd_get_active_HSOSC_qos
                0x00000000000038e8        0xc /home/aee38/Documents/qorc-sdk/qomu_apps/qomu_helloworldsw/GCC_Project/output/s3x_clock.o
                0x00000000000038e8                s3x_clkd_get_active_HSOSC_qos
 .text.S3x_Clkd_Change_Hsosc
                0x00000000000038f4       0x70 /home/aee38/Documents/qorc-sdk/qomu_apps/qomu_helloworldsw/GCC_Project/output/s3x_clock.o
                0x00000000000038f4                S3x_Clkd_Change_Hsosc
 .text.s3x_clkd_get_src_rate
                0x0000000000003964       0x12 /home/aee38/Documents/qorc-sdk/qomu_apps/qomu_helloworldsw/GCC_Project/output/s3x_clock.o
                0x0000000000003964                s3x_clkd_get_src_rate
 *fill*         0x0000000000003976        0x2 
 .text.s3x_clkd_get_div
                0x0000000000003978       0x64 /home/aee38/Documents/qorc-sdk/qomu_apps/qomu_helloworldsw/GCC_Project/output/s3x_clock.o
                0x0000000000003978                s3x_clkd_get_div
 .text.s3x_clkd_srate
                0x00000000000039dc      0x168 /home/aee38/Documents/qorc-sdk/qomu_apps/qomu_helloworldsw/GCC_Project/output/s3x_clock.o
 .text.s3x_clkd_grate
                0x0000000000003b44       0x8c /home/aee38/Documents/qorc-sdk/qomu_apps/qomu_helloworldsw/GCC_Project/output/s3x_clock.o
 .text.s3x_clkd_set_src_div_st
                0x0000000000003bd0       0x50 /home/aee38/Documents/qorc-sdk/qomu_apps/qomu_helloworldsw/GCC_Project/output/s3x_clock.o
 .text.s3x_update_clk_rate
                0x0000000000003c20       0xb0 /home/aee38/Documents/qorc-sdk/qomu_apps/qomu_helloworldsw/GCC_Project/output/s3x_clock.o
                0x0000000000003c20                s3x_update_clk_rate
 .text.s3x_clkd_get_gate_mask_st
                0x0000000000003cd0       0x16 /home/aee38/Documents/qorc-sdk/qomu_apps/qomu_helloworldsw/GCC_Project/output/s3x_clock.o
                0x0000000000003cd0                s3x_clkd_get_gate_mask_st
 *fill*         0x0000000000003ce6        0x2 
 .text.s3x_clkd_set_gate_mask
                0x0000000000003ce8       0x50 /home/aee38/Documents/qorc-sdk/qomu_apps/qomu_helloworldsw/GCC_Project/output/s3x_clock.o
                0x0000000000003ce8                s3x_clkd_set_gate_mask
 .text.s3x_clkd_enable_gate
                0x0000000000003d38       0x68 /home/aee38/Documents/qorc-sdk/qomu_apps/qomu_helloworldsw/GCC_Project/output/s3x_clock.o
 .text.s3x_clkd_disable_gate
                0x0000000000003da0       0x54 /home/aee38/Documents/qorc-sdk/qomu_apps/qomu_helloworldsw/GCC_Project/output/s3x_clock.o
 .text._S3x_Clk_Enable
                0x0000000000003df4       0xb8 /home/aee38/Documents/qorc-sdk/qomu_apps/qomu_helloworldsw/GCC_Project/output/s3x_clock.o
                0x0000000000003df4                _S3x_Clk_Enable
 .text._S3x_Clk_Disable
                0x0000000000003eac       0xc8 /home/aee38/Documents/qorc-sdk/qomu_apps/qomu_helloworldsw/GCC_Project/output/s3x_clock.o
                0x0000000000003eac                _S3x_Clk_Disable
 .text._S3x_Clk_Get_Status
                0x0000000000003f74       0x2c /home/aee38/Documents/qorc-sdk/qomu_apps/qomu_helloworldsw/GCC_Project/output/s3x_clock.o
                0x0000000000003f74                _S3x_Clk_Get_Status
 .text._S3x_Clk_Get_Rate
                0x0000000000003fa0       0x28 /home/aee38/Documents/qorc-sdk/qomu_apps/qomu_helloworldsw/GCC_Project/output/s3x_clock.o
                0x0000000000003fa0                _S3x_Clk_Get_Rate
 .text._S3x_Clk_Set_Rate
                0x0000000000003fc8       0x48 /home/aee38/Documents/qorc-sdk/qomu_apps/qomu_helloworldsw/GCC_Project/output/s3x_clock.o
                0x0000000000003fc8                _S3x_Clk_Set_Rate
 .text.S3x_Clk_Init
                0x0000000000004010      0x15c /home/aee38/Documents/qorc-sdk/qomu_apps/qomu_helloworldsw/GCC_Project/output/s3x_clock.o
                0x0000000000004010                S3x_Clk_Init
 .text.S3x_Clk_Enable
                0x000000000000416c        0x4 /home/aee38/Documents/qorc-sdk/qomu_apps/qomu_helloworldsw/GCC_Project/output/s3x_clock_hal.o
                0x000000000000416c                S3x_Clk_Enable
 .text.S3x_Clk_Disable
                0x0000000000004170        0x4 /home/aee38/Documents/qorc-sdk/qomu_apps/qomu_helloworldsw/GCC_Project/output/s3x_clock_hal.o
                0x0000000000004170                S3x_Clk_Disable
 .text.S3x_Clk_Set_Rate
                0x0000000000004174        0x4 /home/aee38/Documents/qorc-sdk/qomu_apps/qomu_helloworldsw/GCC_Project/output/s3x_clock_hal.o
                0x0000000000004174                S3x_Clk_Set_Rate
 .text.S3x_Clk_Get_Rate
                0x0000000000004178        0x4 /home/aee38/Documents/qorc-sdk/qomu_apps/qomu_helloworldsw/GCC_Project/output/s3x_clock_hal.o
                0x0000000000004178                S3x_Clk_Get_Rate
 .text.DFS_cpuload
                0x000000000000417c       0x54 /home/aee38/Documents/qorc-sdk/qomu_apps/qomu_helloworldsw/GCC_Project/output/s3x_cpuload.o
                0x000000000000417c                DFS_cpuload
 .text.DFS_updatesleepticks
                0x00000000000041d0       0x10 /home/aee38/Documents/qorc-sdk/qomu_apps/qomu_helloworldsw/GCC_Project/output/s3x_cpuload.o
                0x00000000000041d0                DFS_updatesleepticks
 .text.DFS_resetsleepticks
                0x00000000000041e0        0xc /home/aee38/Documents/qorc-sdk/qomu_apps/qomu_helloworldsw/GCC_Project/output/s3x_cpuload.o
                0x00000000000041e0                DFS_resetsleepticks
 .text.DFS_UpdateTimer
                0x00000000000041ec       0x5c /home/aee38/Documents/qorc-sdk/qomu_apps/qomu_helloworldsw/GCC_Project/output/s3x_dfs.o
 .text.DFS_StartTimer
                0x0000000000004248       0x88 /home/aee38/Documents/qorc-sdk/qomu_apps/qomu_helloworldsw/GCC_Project/output/s3x_dfs.o
                0x0000000000004248                DFS_StartTimer
 .text.s3x_suspend_dfs
                0x00000000000042d0        0xc /home/aee38/Documents/qorc-sdk/qomu_apps/qomu_helloworldsw/GCC_Project/output/s3x_dfs.o
                0x00000000000042d0                s3x_suspend_dfs
 .text.S3x_Set_Policy
                0x00000000000042dc       0xf8 /home/aee38/Documents/qorc-sdk/qomu_apps/qomu_helloworldsw/GCC_Project/output/s3x_dfs.o
                0x00000000000042dc                S3x_Set_Policy
 .text.S3x_get_max_rate_dfs_node
                0x00000000000043d4       0x28 /home/aee38/Documents/qorc-sdk/qomu_apps/qomu_helloworldsw/GCC_Project/output/s3x_dfs.o
                0x00000000000043d4                S3x_get_max_rate_dfs_node
 .text.S3x_Stepup_Policy
                0x00000000000043fc       0x80 /home/aee38/Documents/qorc-sdk/qomu_apps/qomu_helloworldsw/GCC_Project/output/s3x_dfs.o
 .text.DFS_TimerCB
                0x000000000000447c        0xe /home/aee38/Documents/qorc-sdk/qomu_apps/qomu_helloworldsw/GCC_Project/output/s3x_dfs.o
 *fill*         0x000000000000448a        0x2 
 .text.DFS_AlignPolicy
                0x000000000000448c       0x38 /home/aee38/Documents/qorc-sdk/qomu_apps/qomu_helloworldsw/GCC_Project/output/s3x_dfs.o
                0x000000000000448c                DFS_AlignPolicy
 .text.S3x_Reduce_Hsosc
                0x00000000000044c4       0x50 /home/aee38/Documents/qorc-sdk/qomu_apps/qomu_helloworldsw/GCC_Project/output/s3x_dfs.o
                0x00000000000044c4                S3x_Reduce_Hsosc
 .text.DFS_fPolicyHasDeepSleep
                0x0000000000004514       0x1c /home/aee38/Documents/qorc-sdk/qomu_apps/qomu_helloworldsw/GCC_Project/output/s3x_dfs.o
                0x0000000000004514                DFS_fPolicyHasDeepSleep
 .text.DFS_SwitchToSleepPolicy
                0x0000000000004530       0x74 /home/aee38/Documents/qorc-sdk/qomu_apps/qomu_helloworldsw/GCC_Project/output/s3x_dfs.o
                0x0000000000004530                DFS_SwitchToSleepPolicy
 .text.DFS_RestoreFromSleep
                0x00000000000045a4       0x34 /home/aee38/Documents/qorc-sdk/qomu_apps/qomu_helloworldsw/GCC_Project/output/s3x_dfs.o
                0x00000000000045a4                DFS_RestoreFromSleep
 .text.s3x_get_index_in_dfs_node
                0x00000000000045d8       0x20 /home/aee38/Documents/qorc-sdk/qomu_apps/qomu_helloworldsw/GCC_Project/output/s3x_dfs.o
                0x00000000000045d8                s3x_get_index_in_dfs_node
 .text.s3x_get_policy_max_rate
                0x00000000000045f8       0x2c /home/aee38/Documents/qorc-sdk/qomu_apps/qomu_helloworldsw/GCC_Project/output/s3x_dfs.o
                0x00000000000045f8                s3x_get_policy_max_rate
 .text.S3x_Is_Dfs_En
                0x0000000000004624       0x10 /home/aee38/Documents/qorc-sdk/qomu_apps/qomu_helloworldsw/GCC_Project/output/s3x_dfs.o
                0x0000000000004624                S3x_Is_Dfs_En
 .text.S3x_Set_Dfs_st
                0x0000000000004634        0xc /home/aee38/Documents/qorc-sdk/qomu_apps/qomu_helloworldsw/GCC_Project/output/s3x_dfs.o
                0x0000000000004634                S3x_Set_Dfs_st
 .text.DFS_Get_Curr_Policy
                0x0000000000004640        0xc /home/aee38/Documents/qorc-sdk/qomu_apps/qomu_helloworldsw/GCC_Project/output/s3x_dfs.o
                0x0000000000004640                DFS_Get_Curr_Policy
 .text.DFS_Initialize
                0x000000000000464c       0x14 /home/aee38/Documents/qorc-sdk/qomu_apps/qomu_helloworldsw/GCC_Project/output/s3x_dfs.o
                0x000000000000464c                DFS_Initialize
 .text.trace_this
                0x0000000000004660       0x28 /home/aee38/Documents/qorc-sdk/qomu_apps/qomu_helloworldsw/GCC_Project/output/s3x_lpm.o
 .text.S3x_Register_Lpm_Cb
                0x0000000000004688       0x3c /home/aee38/Documents/qorc-sdk/qomu_apps/qomu_helloworldsw/GCC_Project/output/s3x_lpm.o
                0x0000000000004688                S3x_Register_Lpm_Cb
 .text.s3x_setup_systick_interrupt
                0x00000000000046c4       0x54 /home/aee38/Documents/qorc-sdk/qomu_apps/qomu_helloworldsw/GCC_Project/output/s3x_lpm.o
                0x00000000000046c4                s3x_setup_systick_interrupt
 .text.prvStopTickInterruptTimer
                0x0000000000004718       0x10 /home/aee38/Documents/qorc-sdk/qomu_apps/qomu_helloworldsw/GCC_Project/output/s3x_lpm.o
                0x0000000000004718                prvStopTickInterruptTimer
 .text.prvStartTickInterruptTimer
                0x0000000000004728        0x8 /home/aee38/Documents/qorc-sdk/qomu_apps/qomu_helloworldsw/GCC_Project/output/s3x_lpm.o
                0x0000000000004728                prvStartTickInterruptTimer
 .text.SysTick_Handler
                0x0000000000004730       0x12 /home/aee38/Documents/qorc-sdk/qomu_apps/qomu_helloworldsw/GCC_Project/output/s3x_lpm.o
                0x0000000000004730                SysTick_Handler
 .text.vPortSetupTimerInterrupt
                0x0000000000004742        0x6 /home/aee38/Documents/qorc-sdk/qomu_apps/qomu_helloworldsw/GCC_Project/output/s3x_lpm.o
                0x0000000000004742                vPortSetupTimerInterrupt
 .text.S3x_Pre_Lpm
                0x0000000000004748       0x20 /home/aee38/Documents/qorc-sdk/qomu_apps/qomu_helloworldsw/GCC_Project/output/s3x_lpm.o
                0x0000000000004748                S3x_Pre_Lpm
 .text.S3x_Post_Lpm
                0x0000000000004768       0x18 /home/aee38/Documents/qorc-sdk/qomu_apps/qomu_helloworldsw/GCC_Project/output/s3x_lpm.o
                0x0000000000004768                S3x_Post_Lpm
 .text.S3x_Lpm_Handler
                0x0000000000004780      0x3b8 /home/aee38/Documents/qorc-sdk/qomu_apps/qomu_helloworldsw/GCC_Project/output/s3x_lpm.o
                0x0000000000004780                S3x_Lpm_Handler
 .text.s3x_get_pi
                0x0000000000004b38       0x20 /home/aee38/Documents/qorc-sdk/qomu_apps/qomu_helloworldsw/GCC_Project/output/s3x_pi.o
                0x0000000000004b38                s3x_get_pi
 .text.s3x_get_pi_gindex
                0x0000000000004b58       0x14 /home/aee38/Documents/qorc-sdk/qomu_apps/qomu_helloworldsw/GCC_Project/output/s3x_pi.o
                0x0000000000004b58                s3x_get_pi_gindex
 .text.s3x_pi_get_st
                0x0000000000004b6c       0x26 /home/aee38/Documents/qorc-sdk/qomu_apps/qomu_helloworldsw/GCC_Project/output/s3x_pi.o
                0x0000000000004b6c                s3x_pi_get_st
 *fill*         0x0000000000004b92        0x2 
 .text.s3x_pi_set_cfg_st
                0x0000000000004b94       0x94 /home/aee38/Documents/qorc-sdk/qomu_apps/qomu_helloworldsw/GCC_Project/output/s3x_pi.o
                0x0000000000004b94                s3x_pi_set_cfg_st
 .text.s3x_pi_set_active_st
                0x0000000000004c28       0xa8 /home/aee38/Documents/qorc-sdk/qomu_apps/qomu_helloworldsw/GCC_Project/output/s3x_pi.o
                0x0000000000004c28                s3x_pi_set_active_st
 .text.s3x_pi_get_clkg_st
                0x0000000000004cd0       0x32 /home/aee38/Documents/qorc-sdk/qomu_apps/qomu_helloworldsw/GCC_Project/output/s3x_pi.o
                0x0000000000004cd0                s3x_pi_get_clkg_st
 .text.s3x_pi_set_clkg_st
                0x0000000000004d02       0x26 /home/aee38/Documents/qorc-sdk/qomu_apps/qomu_helloworldsw/GCC_Project/output/s3x_pi.o
                0x0000000000004d02                s3x_pi_set_clkg_st
 .text.s3x_set_pi_state
                0x0000000000004d28        0xc /home/aee38/Documents/qorc-sdk/qomu_apps/qomu_helloworldsw/GCC_Project/output/s3x_pi.o
                0x0000000000004d28                s3x_set_pi_state
 .text.s3x_get_pi_init_state
                0x0000000000004d34       0x18 /home/aee38/Documents/qorc-sdk/qomu_apps/qomu_helloworldsw/GCC_Project/output/s3x_pi.o
                0x0000000000004d34                s3x_get_pi_init_state
 .text.S3x_pi_init
                0x0000000000004d4c       0x20 /home/aee38/Documents/qorc-sdk/qomu_apps/qomu_helloworldsw/GCC_Project/output/s3x_pi.o
                0x0000000000004d4c                S3x_pi_init
 .text.S3x_pwrcfg_init
                0x0000000000004d6c       0x2c /home/aee38/Documents/qorc-sdk/qomu_apps/qomu_helloworldsw/GCC_Project/output/s3x_pwrcfg.o
                0x0000000000004d6c                S3x_pwrcfg_init
 .text.s3x_sram_in_lpm
                0x0000000000004d98       0x1c /home/aee38/Documents/qorc-sdk/qomu_apps/qomu_helloworldsw/GCC_Project/output/s3x_pwrcfg.o
                0x0000000000004d98                s3x_sram_in_lpm
 .text.S3x_get_qos_rate
                0x0000000000004db4       0x38 /home/aee38/Documents/qorc-sdk/qomu_apps/qomu_helloworldsw/GCC_Project/output/s3x_qos.o
                0x0000000000004db4                S3x_get_qos_rate
 .text.save_assert_info
                0x0000000000004dec       0x74 /home/aee38/Documents/qorc-sdk/qomu_apps/qomu_helloworldsw/GCC_Project/output/sec_debug.o
                0x0000000000004dec                save_assert_info
 .text.invoke_soft_fault
                0x0000000000004e60       0x20 /home/aee38/Documents/qorc-sdk/qomu_apps/qomu_helloworldsw/GCC_Project/output/sec_debug.o
                0x0000000000004e60                invoke_soft_fault
 .text.Reset_Handler
                0x0000000000004e80       0x2c /home/aee38/Documents/qorc-sdk/qomu_apps/qomu_helloworldsw/GCC_Project/output/startup_EOSS3B_GCC.o
                0x0000000000004e80                Reset_Handler
 .text.__semihost_call
                0x0000000000004eac        0x6 /home/aee38/Documents/qorc-sdk/qomu_apps/qomu_helloworldsw/GCC_Project/output/startup_EOSS3B_GCC.o
                0x0000000000004eac                __semihost_call
 *fill*         0x0000000000004eb2        0x2 
 .text.prvGetExpectedIdleTime
                0x0000000000004eb4       0x3c /home/aee38/Documents/qorc-sdk/qomu_apps/qomu_helloworldsw/GCC_Project/output/tasks.o
 .text.prvResetNextTaskUnblockTime
                0x0000000000004ef0       0x24 /home/aee38/Documents/qorc-sdk/qomu_apps/qomu_helloworldsw/GCC_Project/output/tasks.o
 .text.prvAddCurrentTaskToDelayedList
                0x0000000000004f14       0x8c /home/aee38/Documents/qorc-sdk/qomu_apps/qomu_helloworldsw/GCC_Project/output/tasks.o
 .text.xTaskCreate
                0x0000000000004fa0      0x1e0 /home/aee38/Documents/qorc-sdk/qomu_apps/qomu_helloworldsw/GCC_Project/output/tasks.o
                0x0000000000004fa0                xTaskCreate
 .text.vTaskStartScheduler
                0x0000000000005180       0x98 /home/aee38/Documents/qorc-sdk/qomu_apps/qomu_helloworldsw/GCC_Project/output/tasks.o
                0x0000000000005180                vTaskStartScheduler
 .text.vTaskSuspendAll
                0x0000000000005218       0x10 /home/aee38/Documents/qorc-sdk/qomu_apps/qomu_helloworldsw/GCC_Project/output/tasks.o
                0x0000000000005218                vTaskSuspendAll
 .text.xTaskGetTickCount
                0x0000000000005228        0xc /home/aee38/Documents/qorc-sdk/qomu_apps/qomu_helloworldsw/GCC_Project/output/tasks.o
                0x0000000000005228                xTaskGetTickCount
 .text.vTaskStepTick
                0x0000000000005234       0x44 /home/aee38/Documents/qorc-sdk/qomu_apps/qomu_helloworldsw/GCC_Project/output/tasks.o
                0x0000000000005234                vTaskStepTick
 .text.xTaskIncrementTick
                0x0000000000005278      0x140 /home/aee38/Documents/qorc-sdk/qomu_apps/qomu_helloworldsw/GCC_Project/output/tasks.o
                0x0000000000005278                xTaskIncrementTick
 .text.xTaskResumeAll
                0x00000000000053b8      0x100 /home/aee38/Documents/qorc-sdk/qomu_apps/qomu_helloworldsw/GCC_Project/output/tasks.o
                0x00000000000053b8                xTaskResumeAll
 .text.vTaskDelay
                0x00000000000054b8       0x60 /home/aee38/Documents/qorc-sdk/qomu_apps/qomu_helloworldsw/GCC_Project/output/tasks.o
                0x00000000000054b8                vTaskDelay
 .text.prvIdleTask
                0x0000000000005518       0xc4 /home/aee38/Documents/qorc-sdk/qomu_apps/qomu_helloworldsw/GCC_Project/output/tasks.o
 .text.vTaskSwitchContext
                0x00000000000055dc       0xb8 /home/aee38/Documents/qorc-sdk/qomu_apps/qomu_helloworldsw/GCC_Project/output/tasks.o
                0x00000000000055dc                vTaskSwitchContext
 .text.vTaskPlaceOnEventList
                0x0000000000005694       0x48 /home/aee38/Documents/qorc-sdk/qomu_apps/qomu_helloworldsw/GCC_Project/output/tasks.o
                0x0000000000005694                vTaskPlaceOnEventList
 .text.vTaskPlaceOnEventListRestricted
                0x00000000000056dc       0x50 /home/aee38/Documents/qorc-sdk/qomu_apps/qomu_helloworldsw/GCC_Project/output/tasks.o
                0x00000000000056dc                vTaskPlaceOnEventListRestricted
 .text.xTaskRemoveFromEventList
                0x000000000000572c       0x98 /home/aee38/Documents/qorc-sdk/qomu_apps/qomu_helloworldsw/GCC_Project/output/tasks.o
                0x000000000000572c                xTaskRemoveFromEventList
 .text.vTaskInternalSetTimeOutState
                0x00000000000057c4       0x18 /home/aee38/Documents/qorc-sdk/qomu_apps/qomu_helloworldsw/GCC_Project/output/tasks.o
                0x00000000000057c4                vTaskInternalSetTimeOutState
 .text.xTaskCheckForTimeOut
                0x00000000000057dc       0x94 /home/aee38/Documents/qorc-sdk/qomu_apps/qomu_helloworldsw/GCC_Project/output/tasks.o
                0x00000000000057dc                xTaskCheckForTimeOut
 .text.vTaskMissedYield
                0x0000000000005870        0xc /home/aee38/Documents/qorc-sdk/qomu_apps/qomu_helloworldsw/GCC_Project/output/tasks.o
                0x0000000000005870                vTaskMissedYield
 .text.uxTaskGetTCBNumber
                0x000000000000587c       0x14 /home/aee38/Documents/qorc-sdk/qomu_apps/qomu_helloworldsw/GCC_Project/output/tasks.o
                0x000000000000587c                uxTaskGetTCBNumber
 .text.eTaskConfirmSleepModeStatus
                0x0000000000005890       0x34 /home/aee38/Documents/qorc-sdk/qomu_apps/qomu_helloworldsw/GCC_Project/output/tasks.o
                0x0000000000005890                eTaskConfirmSleepModeStatus
 .text.xTaskGetCurrentTaskHandle
                0x00000000000058c4        0xc /home/aee38/Documents/qorc-sdk/qomu_apps/qomu_helloworldsw/GCC_Project/output/tasks.o
                0x00000000000058c4                xTaskGetCurrentTaskHandle
 .text.xTaskGetSchedulerState
                0x00000000000058d0       0x20 /home/aee38/Documents/qorc-sdk/qomu_apps/qomu_helloworldsw/GCC_Project/output/tasks.o
                0x00000000000058d0                xTaskGetSchedulerState
 .text.xTaskPriorityInherit
                0x00000000000058f0       0xa8 /home/aee38/Documents/qorc-sdk/qomu_apps/qomu_helloworldsw/GCC_Project/output/tasks.o
                0x00000000000058f0                xTaskPriorityInherit
 .text.xTaskPriorityDisinherit
                0x0000000000005998       0xc0 /home/aee38/Documents/qorc-sdk/qomu_apps/qomu_helloworldsw/GCC_Project/output/tasks.o
                0x0000000000005998                xTaskPriorityDisinherit
 .text.vTaskPriorityDisinheritAfterTimeout
                0x0000000000005a58       0xd0 /home/aee38/Documents/qorc-sdk/qomu_apps/qomu_helloworldsw/GCC_Project/output/tasks.o
                0x0000000000005a58                vTaskPriorityDisinheritAfterTimeout
 .text.pvTaskIncrementMutexHeldCount
                0x0000000000005b28       0x18 /home/aee38/Documents/qorc-sdk/qomu_apps/qomu_helloworldsw/GCC_Project/output/tasks.o
                0x0000000000005b28                pvTaskIncrementMutexHeldCount
 .text.prvCheckForValidListAndQueue
                0x0000000000005b40       0x58 /home/aee38/Documents/qorc-sdk/qomu_apps/qomu_helloworldsw/GCC_Project/output/timers.o
 .text.prvInsertTimerInActiveList
                0x0000000000005b98       0x3c /home/aee38/Documents/qorc-sdk/qomu_apps/qomu_helloworldsw/GCC_Project/output/timers.o
 .text.xTimerCreateTimerTask
                0x0000000000005bd4       0x64 /home/aee38/Documents/qorc-sdk/qomu_apps/qomu_helloworldsw/GCC_Project/output/timers.o
                0x0000000000005bd4                xTimerCreateTimerTask
 .text.xTimerCreate
                0x0000000000005c38       0x58 /home/aee38/Documents/qorc-sdk/qomu_apps/qomu_helloworldsw/GCC_Project/output/timers.o
                0x0000000000005c38                xTimerCreate
 .text.xTimerGenericCommand
                0x0000000000005c90       0x70 /home/aee38/Documents/qorc-sdk/qomu_apps/qomu_helloworldsw/GCC_Project/output/timers.o
                0x0000000000005c90                xTimerGenericCommand
 .text.prvSwitchTimerLists
                0x0000000000005d00       0x90 /home/aee38/Documents/qorc-sdk/qomu_apps/qomu_helloworldsw/GCC_Project/output/timers.o
 .text.prvTimerTask
                0x0000000000005d90      0x1fc /home/aee38/Documents/qorc-sdk/qomu_apps/qomu_helloworldsw/GCC_Project/output/timers.o
 .text          0x0000000000005f8c       0x18 /usr/lib/gcc/arm-none-eabi/6.3.1/thumb/v7e-m/fpv4-sp/hard/libgcc.a(_lshrdi3.o)
                0x0000000000005f8c                __aeabi_llsr
                0x0000000000005f8c                __lshrdi3
 .text          0x0000000000005fa4       0x18 /usr/lib/gcc/arm-none-eabi/6.3.1/thumb/v7e-m/fpv4-sp/hard/libgcc.a(_ashldi3.o)
                0x0000000000005fa4                __ashldi3
                0x0000000000005fa4                __aeabi_llsl
 .text          0x0000000000005fbc       0x30 /usr/lib/gcc/arm-none-eabi/6.3.1/thumb/v7e-m/fpv4-sp/hard/libgcc.a(_aeabi_uldivmod.o)
                0x0000000000005fbc                __aeabi_uldivmod
 .text          0x0000000000005fec      0x2dc /usr/lib/gcc/arm-none-eabi/6.3.1/thumb/v7e-m/fpv4-sp/hard/libgcc.a(_udivmoddi4.o)
                0x0000000000005fec                __udivmoddi4
 .text          0x00000000000062c8        0x4 /usr/lib/gcc/arm-none-eabi/6.3.1/thumb/v7e-m/fpv4-sp/hard/libgcc.a(_dvmd_tls.o)
                0x00000000000062c8                __aeabi_ldiv0
                0x00000000000062c8                __aeabi_idiv0
 .text          0x00000000000062cc        0xc /usr/lib/gcc/arm-none-eabi/6.3.1/../../../arm-none-eabi/lib/thumb/v7e-m/fpv4-sp/hard/libg_nano.a(lib_a-atexit.o)
                0x00000000000062cc                atexit
 .text          0x00000000000062d8       0x28 /usr/lib/gcc/arm-none-eabi/6.3.1/../../../arm-none-eabi/lib/thumb/v7e-m/fpv4-sp/hard/libg_nano.a(lib_a-exit.o)
                0x00000000000062d8                exit
 .text          0x0000000000006300       0x34 /usr/lib/gcc/arm-none-eabi/6.3.1/../../../arm-none-eabi/lib/thumb/v7e-m/fpv4-sp/hard/libg_nano.a(lib_a-fini.o)
                0x0000000000006300                __libc_fini_array
 .text          0x0000000000006334       0x50 /usr/lib/gcc/arm-none-eabi/6.3.1/../../../arm-none-eabi/lib/thumb/v7e-m/fpv4-sp/hard/libg_nano.a(lib_a-init.o)
                0x0000000000006334                __libc_init_array
 .text          0x0000000000006384       0x20 /usr/lib/gcc/arm-none-eabi/6.3.1/../../../arm-none-eabi/lib/thumb/v7e-m/fpv4-sp/hard/libg_nano.a(lib_a-malloc.o)
                0x0000000000006384                malloc
                0x0000000000006394                free
 .text          0x00000000000063a4      0x134 /usr/lib/gcc/arm-none-eabi/6.3.1/../../../arm-none-eabi/lib/thumb/v7e-m/fpv4-sp/hard/libg_nano.a(lib_a-memcpy.o)
                0x00000000000063a4                memcpy
 .text          0x00000000000064d8       0x9c /usr/lib/gcc/arm-none-eabi/6.3.1/../../../arm-none-eabi/lib/thumb/v7e-m/fpv4-sp/hard/libg_nano.a(lib_a-memset.o)
                0x00000000000064d8                memset
 .text          0x0000000000006574       0x90 /usr/lib/gcc/arm-none-eabi/6.3.1/../../../arm-none-eabi/lib/thumb/v7e-m/fpv4-sp/hard/libg_nano.a(lib_a-nano-freer.o)
                0x0000000000006574                _free_r
 .text          0x0000000000006604       0xbc /usr/lib/gcc/arm-none-eabi/6.3.1/../../../arm-none-eabi/lib/thumb/v7e-m/fpv4-sp/hard/libg_nano.a(lib_a-nano-mallocr.o)
                0x0000000000006604                _malloc_r
 .text          0x00000000000066c0       0x60 /usr/lib/gcc/arm-none-eabi/6.3.1/../../../arm-none-eabi/lib/thumb/v7e-m/fpv4-sp/hard/libg_nano.a(lib_a-printf.o)
                0x00000000000066c0                _printf_r
                0x00000000000066c0                _iprintf_r
                0x00000000000066ec                printf
                0x00000000000066ec                iprintf
 .text          0x0000000000006720       0xf0 /usr/lib/gcc/arm-none-eabi/6.3.1/../../../arm-none-eabi/lib/thumb/v7e-m/fpv4-sp/hard/libg_nano.a(lib_a-puts.o)
                0x0000000000006720                _puts_r
                0x0000000000006800                puts
 .text          0x0000000000006810       0x24 /usr/lib/gcc/arm-none-eabi/6.3.1/../../../arm-none-eabi/lib/thumb/v7e-m/fpv4-sp/hard/libg_nano.a(lib_a-sbrkr.o)
                0x0000000000006810                _sbrk_r
 .text          0x0000000000006834       0x1c /usr/lib/gcc/arm-none-eabi/6.3.1/../../../arm-none-eabi/lib/thumb/v7e-m/fpv4-sp/hard/libg_nano.a(lib_a-setjmp.o)
                0x0000000000006834                setjmp
                0x0000000000006840                longjmp
 .text          0x0000000000006850      0x128 /usr/lib/gcc/arm-none-eabi/6.3.1/../../../arm-none-eabi/lib/thumb/v7e-m/fpv4-sp/hard/libg_nano.a(lib_a-snprintf.o)
                0x0000000000006850                _sniprintf_r
                0x0000000000006850                _snprintf_r
                0x00000000000068e0                snprintf
                0x00000000000068e0                sniprintf
 .text          0x0000000000006978       0x90 /usr/lib/gcc/arm-none-eabi/6.3.1/../../../arm-none-eabi/lib/thumb/v7e-m/fpv4-sp/hard/libg_nano.a(lib_a-sprintf.o)
                0x0000000000006978                _siprintf_r
                0x0000000000006978                _sprintf_r
                0x00000000000069bc                sprintf
                0x00000000000069bc                siprintf
 .text          0x0000000000006a08       0xe8 /usr/lib/gcc/arm-none-eabi/6.3.1/../../../arm-none-eabi/lib/thumb/v7e-m/fpv4-sp/hard/libg_nano.a(lib_a-strchr.o)
                0x0000000000006a08                strchr
 *fill*         0x0000000000006af0       0x10 
 .text          0x0000000000006b00      0x2dc /usr/lib/gcc/arm-none-eabi/6.3.1/../../../arm-none-eabi/lib/thumb/v7e-m/fpv4-sp/hard/libg_nano.a(lib_a-strcmp.o)
                0x0000000000006b08                strcmp
 .text          0x0000000000006ddc       0xbc /usr/lib/gcc/arm-none-eabi/6.3.1/../../../arm-none-eabi/lib/thumb/v7e-m/fpv4-sp/hard/libg_nano.a(lib_a-strcpy.o)
                0x0000000000006ddc                strcpy
 *fill*         0x0000000000006e98       0x28 
 .text          0x0000000000006ec0       0xdc /usr/lib/gcc/arm-none-eabi/6.3.1/../../../arm-none-eabi/lib/thumb/v7e-m/fpv4-sp/hard/libg_nano.a(lib_a-strlen.o)
                0x0000000000006ec0                strlen
 .text          0x0000000000006f9c       0x64 /usr/lib/gcc/arm-none-eabi/6.3.1/../../../arm-none-eabi/lib/thumb/v7e-m/fpv4-sp/hard/libg_nano.a(lib_a-strncpy.o)
                0x0000000000006f9c                strncpy
 .text          0x0000000000007000       0x24 /usr/lib/gcc/arm-none-eabi/6.3.1/../../../arm-none-eabi/lib/thumb/v7e-m/fpv4-sp/hard/libg_nano.a(lib_a-strrchr.o)
                0x0000000000007000                strrchr
 .text          0x0000000000007024       0x6c /usr/lib/gcc/arm-none-eabi/6.3.1/../../../arm-none-eabi/lib/thumb/v7e-m/fpv4-sp/hard/libg_nano.a(lib_a-strtok_r.o)
                0x0000000000007024                __strtok_r
                0x0000000000007088                strtok_r
 .text          0x0000000000007090       0x94 /usr/lib/gcc/arm-none-eabi/6.3.1/../../../arm-none-eabi/lib/thumb/v7e-m/fpv4-sp/hard/libg_nano.a(lib_a-vsnprintf.o)
                0x0000000000007090                _vsnprintf_r
                0x0000000000007090                _vsniprintf_r
                0x0000000000007104                vsnprintf
                0x0000000000007104                vsniprintf
 .text          0x0000000000007124       0xc4 /usr/lib/gcc/arm-none-eabi/6.3.1/../../../arm-none-eabi/lib/thumb/v7e-m/fpv4-sp/hard/libg_nano.a(lib_a-wbuf.o)
                0x0000000000007124                __swbuf_r
                0x00000000000071d8                __swbuf
 .text          0x00000000000071e8       0xf4 /usr/lib/gcc/arm-none-eabi/6.3.1/../../../arm-none-eabi/lib/thumb/v7e-m/fpv4-sp/hard/libg_nano.a(lib_a-wsetup.o)
                0x00000000000071e8                __swsetup_r
 .text          0x00000000000072dc       0xd0 /usr/lib/gcc/arm-none-eabi/6.3.1/../../../arm-none-eabi/lib/thumb/v7e-m/fpv4-sp/hard/libg_nano.a(lib_a-__atexit.o)
                0x00000000000072dc                __register_exitproc
 .text          0x00000000000073ac       0xf4 /usr/lib/gcc/arm-none-eabi/6.3.1/../../../arm-none-eabi/lib/thumb/v7e-m/fpv4-sp/hard/libg_nano.a(lib_a-__call_atexit.o)
                0x00000000000073ac                __call_exitprocs
 .text          0x00000000000074a0      0x1b0 /usr/lib/gcc/arm-none-eabi/6.3.1/../../../arm-none-eabi/lib/thumb/v7e-m/fpv4-sp/hard/libg_nano.a(lib_a-fflush.o)
                0x00000000000074a0                __sflush_r
                0x00000000000075c8                _fflush_r
                0x000000000000762c                fflush
 .text          0x0000000000007650      0x230 /usr/lib/gcc/arm-none-eabi/6.3.1/../../../arm-none-eabi/lib/thumb/v7e-m/fpv4-sp/hard/libg_nano.a(lib_a-findfp.o)
                0x0000000000007654                _cleanup_r
                0x0000000000007664                __sfmoreglue
                0x0000000000007694                __sfp
                0x000000000000782c                _cleanup
                0x0000000000007840                __sinit
                0x0000000000007848                __sfp_lock_acquire
                0x000000000000784c                __sfp_lock_release
                0x0000000000007850                __sinit_lock_acquire
                0x0000000000007854                __sinit_lock_release
                0x0000000000007858                __fp_lock_all
                0x000000000000786c                __fp_unlock_all
 .text          0x0000000000007880       0xa0 /usr/lib/gcc/arm-none-eabi/6.3.1/../../../arm-none-eabi/lib/thumb/v7e-m/fpv4-sp/hard/libg_nano.a(lib_a-fwalk.o)
                0x0000000000007880                _fwalk
                0x00000000000078cc                _fwalk_reent
 .text          0x0000000000007920       0xe4 /usr/lib/gcc/arm-none-eabi/6.3.1/../../../arm-none-eabi/lib/thumb/v7e-m/fpv4-sp/hard/libg_nano.a(lib_a-makebuf.o)
                0x0000000000007920                __swhatbuf_r
                0x000000000000797c                __smakebuf_r
 .text          0x0000000000007a04      0x3ec /usr/lib/gcc/arm-none-eabi/6.3.1/../../../arm-none-eabi/lib/thumb/v7e-m/fpv4-sp/hard/libg_nano.a(lib_a-nano-svfprintf.o)
                0x0000000000007a04                __ssputs_r
                0x0000000000007ac8                __ssprint_r
                0x0000000000007bc4                _svfprintf_r
                0x0000000000007bc4                _svfiprintf_r
 .text          0x0000000000007df0      0x2f8 /usr/lib/gcc/arm-none-eabi/6.3.1/../../../arm-none-eabi/lib/thumb/v7e-m/fpv4-sp/hard/libg_nano.a(lib_a-nano-vfprintf.o)
                0x0000000000007e24                __sfputs_r
                0x0000000000007e50                __sprint_r
                0x0000000000007e6c                _vfiprintf_r
                0x0000000000007e6c                _vfprintf_r
                0x00000000000080d0                vfiprintf
                0x00000000000080d0                vfprintf
 .text          0x00000000000080e8      0x3d4 /usr/lib/gcc/arm-none-eabi/6.3.1/../../../arm-none-eabi/lib/thumb/v7e-m/fpv4-sp/hard/libg_nano.a(lib_a-nano-vfprintf_i.o)
                0x00000000000080e8                _printf_common
                0x000000000000821c                _printf_i
 .text          0x00000000000084bc       0x8c /usr/lib/gcc/arm-none-eabi/6.3.1/../../../arm-none-eabi/lib/thumb/v7e-m/fpv4-sp/hard/libg_nano.a(lib_a-stdio.o)
                0x00000000000084bc                __sread
                0x00000000000084e0                __seofread
                0x00000000000084e4                __swrite
                0x0000000000008520                __sseek
                0x0000000000008540                __sclose
 .text          0x0000000000008548       0x2c /usr/lib/gcc/arm-none-eabi/6.3.1/../../../arm-none-eabi/lib/thumb/v7e-m/fpv4-sp/hard/libg_nano.a(lib_a-writer.o)
                0x0000000000008548                _write_r
 .text          0x0000000000008574       0x24 /usr/lib/gcc/arm-none-eabi/6.3.1/../../../arm-none-eabi/lib/thumb/v7e-m/fpv4-sp/hard/libg_nano.a(lib_a-closer.o)
                0x0000000000008574                _close_r
 .text          0x0000000000008598       0x28 /usr/lib/gcc/arm-none-eabi/6.3.1/../../../arm-none-eabi/lib/thumb/v7e-m/fpv4-sp/hard/libg_nano.a(lib_a-fstatr.o)
                0x0000000000008598                _fstat_r
 .text          0x00000000000085c0      0x2f0 /usr/lib/gcc/arm-none-eabi/6.3.1/../../../arm-none-eabi/lib/thumb/v7e-m/fpv4-sp/hard/libg_nano.a(lib_a-fvwrite.o)
                0x00000000000085c0                __sfvwrite_r
 .text          0x00000000000088b0       0x24 /usr/lib/gcc/arm-none-eabi/6.3.1/../../../arm-none-eabi/lib/thumb/v7e-m/fpv4-sp/hard/libg_nano.a(lib_a-isattyr.o)
                0x00000000000088b0                _isatty_r
 .text          0x00000000000088d4       0x2c /usr/lib/gcc/arm-none-eabi/6.3.1/../../../arm-none-eabi/lib/thumb/v7e-m/fpv4-sp/hard/libg_nano.a(lib_a-lseekr.o)
                0x00000000000088d4                _lseek_r
 .text          0x0000000000008900       0xa0 /usr/lib/gcc/arm-none-eabi/6.3.1/../../../arm-none-eabi/lib/thumb/v7e-m/fpv4-sp/hard/libg_nano.a(lib_a-memchr.o)
                0x0000000000008900                memchr
 .text          0x00000000000089a0       0xc8 /usr/lib/gcc/arm-none-eabi/6.3.1/../../../arm-none-eabi/lib/thumb/v7e-m/fpv4-sp/hard/libg_nano.a(lib_a-memmove.o)
                0x00000000000089a0                memmove
 .text          0x0000000000008a68       0x50 /usr/lib/gcc/arm-none-eabi/6.3.1/../../../arm-none-eabi/lib/thumb/v7e-m/fpv4-sp/hard/libg_nano.a(lib_a-nano-reallocr.o)
                0x0000000000008a68                _realloc_r
 .text          0x0000000000008ab8       0x2c /usr/lib/gcc/arm-none-eabi/6.3.1/../../../arm-none-eabi/lib/thumb/v7e-m/fpv4-sp/hard/libg_nano.a(lib_a-readr.o)
                0x0000000000008ab8                _read_r
 .text          0x0000000000008ae4       0x14 /usr/lib/gcc/arm-none-eabi/6.3.1/../../../arm-none-eabi/lib/thumb/v7e-m/fpv4-sp/hard/libg_nano.a(lib_a-nano-msizer.o)
                0x0000000000008ae4                _malloc_usable_size_r
 .text          0x0000000000008af8       0x10 /usr/lib/gcc/arm-none-eabi/6.3.1/../../../arm-none-eabi/lib/thumb/v7e-m/fpv4-sp/hard/libnosys.a(fstat.o)
                0x0000000000008af8                _fstat
 .text          0x0000000000008b08       0x10 /usr/lib/gcc/arm-none-eabi/6.3.1/../../../arm-none-eabi/lib/thumb/v7e-m/fpv4-sp/hard/libnosys.a(isatty.o)
                0x0000000000008b08                _isatty
 .text          0x0000000000008b18       0x1c /usr/lib/gcc/arm-none-eabi/6.3.1/../../../arm-none-eabi/lib/thumb/v7e-m/fpv4-sp/hard/libnosys.a(sbrk.o)
                0x0000000000008b18                _sbrk
 .text          0x0000000000008b34        0x4 /usr/lib/gcc/arm-none-eabi/6.3.1/../../../arm-none-eabi/lib/thumb/v7e-m/fpv4-sp/hard/libnosys.a(_exit.o)
                0x0000000000008b34                _exit
 *(.init)
 .init          0x0000000000008b38        0x4 /usr/lib/gcc/arm-none-eabi/6.3.1/thumb/v7e-m/fpv4-sp/hard/crti.o
                0x0000000000008b38                _init
 .init          0x0000000000008b3c        0x8 /usr/lib/gcc/arm-none-eabi/6.3.1/thumb/v7e-m/fpv4-sp/hard/crtn.o
 *(.fini)
 .fini          0x0000000000008b44        0x4 /usr/lib/gcc/arm-none-eabi/6.3.1/thumb/v7e-m/fpv4-sp/hard/crti.o
                0x0000000000008b44                _fini
 .fini          0x0000000000008b48        0x8 /usr/lib/gcc/arm-none-eabi/6.3.1/thumb/v7e-m/fpv4-sp/hard/crtn.o
 *crtbegin.o(.ctors)
 *crtbegin?.o(.ctors)
 *(EXCLUDE_FILE(*crtend.o *crtend?.o) .ctors)
 *(SORT(.ctors.*))
 *(.ctors)
 *crtbegin.o(.dtors)
 *crtbegin?.o(.dtors)
 *(EXCLUDE_FILE(*crtend.o *crtend?.o) .dtors)
 *(SORT(.dtors.*))
 *(.dtors)
 *(.rodata*)
 .rodata.CLI_string_ptr_get_subcmd.str1.1
                0x0000000000008b50        0xc /home/aee38/Documents/qorc-sdk/qomu_apps/qomu_helloworldsw/GCC_Project/output/cli_args.o
 .rodata.CLI_cmd_stack_pop.str1.1
                0x0000000000008b5c       0x16 /home/aee38/Documents/qorc-sdk/qomu_apps/qomu_helloworldsw/GCC_Project/output/cli_loop.o
 .rodata.CLI_cmd_stack_push.str1.1
                0x0000000000008b72       0x1a /home/aee38/Documents/qorc-sdk/qomu_apps/qomu_helloworldsw/GCC_Project/output/cli_loop.o
 .rodata.CLI_dispatch.str1.1
                0x0000000000008b8c       0x21 /home/aee38/Documents/qorc-sdk/qomu_apps/qomu_helloworldsw/GCC_Project/output/cli_loop.o
 .rodata.CLI_dispatch_subcmd.str1.1
                0x0000000000008bad       0x2a /home/aee38/Documents/qorc-sdk/qomu_apps/qomu_helloworldsw/GCC_Project/output/cli_loop.o
 .rodata.CLI_print_prompt.str1.1
                0x0000000000008bd7        0xd /home/aee38/Documents/qorc-sdk/qomu_apps/qomu_helloworldsw/GCC_Project/output/cli_loop.o
 .rodata.CLI_rx_byte.str1.1
                0x0000000000008be4        0x9 /home/aee38/Documents/qorc-sdk/qomu_apps/qomu_helloworldsw/GCC_Project/output/cli_loop.o
 .rodata.CLI_verror.str1.1
                0x0000000000008bed        0x8 /home/aee38/Documents/qorc-sdk/qomu_apps/qomu_helloworldsw/GCC_Project/output/cli_loop.o
 .rodata._backspace.6993
                0x0000000000008bf5        0x4 /home/aee38/Documents/qorc-sdk/qomu_apps/qomu_helloworldsw/GCC_Project/output/cli_loop.o
 .rodata.handle_exit.str1.1
                0x0000000000008bf9        0xa /home/aee38/Documents/qorc-sdk/qomu_apps/qomu_helloworldsw/GCC_Project/output/cli_loop.o
 .rodata.handle_help.str1.1
                0x0000000000008c03       0x2e /home/aee38/Documents/qorc-sdk/qomu_apps/qomu_helloworldsw/GCC_Project/output/cli_loop.o
                                         0x33 (size before relaxing)
 *fill*         0x0000000000008c31        0x3 
 .rodata.std_cmds
                0x0000000000008c34       0x40 /home/aee38/Documents/qorc-sdk/qomu_apps/qomu_helloworldsw/GCC_Project/output/cli_loop.o
 .rodata.str1.1
                0x0000000000008c74       0x21 /home/aee38/Documents/qorc-sdk/qomu_apps/qomu_helloworldsw/GCC_Project/output/cli_loop.o
                                         0x26 (size before relaxing)
 .rodata.CLI_error_missing_parameter.str1.1
                0x0000000000008c95        0xd /home/aee38/Documents/qorc-sdk/qomu_apps/qomu_helloworldsw/GCC_Project/output/cli_misc.o
 .rodata.CLI_start_task.str1.1
                0x0000000000008ca2       0x75 /home/aee38/Documents/qorc-sdk/qomu_apps/qomu_helloworldsw/GCC_Project/output/cli_platform.o
 .rodata.CLI_task.str1.1
                0x0000000000008d17       0x42 /home/aee38/Documents/qorc-sdk/qomu_apps/qomu_helloworldsw/GCC_Project/output/cli_platform.o
 .rodata._colon_tt.9065
                0x0000000000008d59        0x4 /home/aee38/Documents/qorc-sdk/qomu_apps/qomu_helloworldsw/GCC_Project/output/dbg_uart.o
 .rodata.dbg_str.str1.1
                0x0000000000008d5d        0x3 /home/aee38/Documents/qorc-sdk/qomu_apps/qomu_helloworldsw/GCC_Project/output/dbg_uart.o
 .rodata.HAL_usbserial_init_common.str1.1
                0x0000000000008d60       0x8d /home/aee38/Documents/qorc-sdk/qomu_apps/qomu_helloworldsw/GCC_Project/output/eoss3_hal_fpga_usbserial.o
 .rodata.HAL_PAD_Config.str1.1
                0x0000000000008ded       0x6f /home/aee38/Documents/qorc-sdk/qomu_apps/qomu_helloworldsw/GCC_Project/output/eoss3_hal_pad_config.o
 .rodata.IO_INPUT_PAD_SEL
                0x0000000000008e5c       0x10 /home/aee38/Documents/qorc-sdk/qomu_apps/qomu_helloworldsw/GCC_Project/output/eoss3_hal_pad_config.o
                0x0000000000008e5c                IO_INPUT_PAD_SEL
 .rodata.SEL_EXT_PAD_REGS
                0x0000000000008e6c      0x160 /home/aee38/Documents/qorc-sdk/qomu_apps/qomu_helloworldsw/GCC_Project/output/eoss3_hal_pad_config.o
                0x0000000000008e6c                SEL_EXT_PAD_REGS
 .rodata.write_rtc_reg.str1.1
                0x0000000000008fcc       0x1a /home/aee38/Documents/qorc-sdk/qomu_apps/qomu_helloworldsw/GCC_Project/output/eoss3_hal_rtc.o
 .rodata.unlock_spi1_bus.str1.1
                0x0000000000008fe6       0x36 /home/aee38/Documents/qorc-sdk/qomu_apps/qomu_helloworldsw/GCC_Project/output/eoss3_hal_spi.o
 .rodata.HAL_Timer_ISR.str1.1
                0x000000000000901c       0x20 /home/aee38/Documents/qorc-sdk/qomu_apps/qomu_helloworldsw/GCC_Project/output/eoss3_hal_timer.o
 .rodata.SendEventToTimerThread.str1.1
                0x000000000000903c       0x82 /home/aee38/Documents/qorc-sdk/qomu_apps/qomu_helloworldsw/GCC_Project/output/eoss3_hal_timer.o
 .rodata.__FUNCTION__.9006
                0x00000000000090be        0xe /home/aee38/Documents/qorc-sdk/qomu_apps/qomu_helloworldsw/GCC_Project/output/eoss3_hal_timer.o
 .rodata.uart_init.str1.1
                0x00000000000090cc        0xc /home/aee38/Documents/qorc-sdk/qomu_apps/qomu_helloworldsw/GCC_Project/output/eoss3_hal_uart.o
 .rodata.WDT_ISR.str1.1
                0x00000000000090d8       0x4d /home/aee38/Documents/qorc-sdk/qomu_apps/qomu_helloworldsw/GCC_Project/output/eoss3_hal_wdt.o
 .rodata.__FUNCTION__.8408
                0x0000000000009125        0x8 /home/aee38/Documents/qorc-sdk/qomu_apps/qomu_helloworldsw/GCC_Project/output/eoss3_hal_wdt.o
 .rodata.prvGetRegistersFromStack.str1.1
                0x000000000000912d       0x44 /home/aee38/Documents/qorc-sdk/qomu_apps/qomu_helloworldsw/GCC_Project/output/exceptions.o
 .rodata.spurious_interrupt.str1.1
                0x0000000000009171        0xd /home/aee38/Documents/qorc-sdk/qomu_apps/qomu_helloworldsw/GCC_Project/output/exceptions.o
 .rodata.vApplicationMallocFailedHook.str1.1
                0x000000000000917e       0x20 /home/aee38/Documents/qorc-sdk/qomu_apps/qomu_helloworldsw/GCC_Project/output/exceptions.o
 .rodata.vApplicationStackOverflowHook.str1.1
                0x000000000000919e       0x21 /home/aee38/Documents/qorc-sdk/qomu_apps/qomu_helloworldsw/GCC_Project/output/exceptions.o
 .rodata.pvPortMalloc.str1.1
                0x00000000000091bf       0x73 /home/aee38/Documents/qorc-sdk/qomu_apps/qomu_helloworldsw/GCC_Project/output/heap_4.o
 .rodata.vPortFree.str1.1
                0x0000000000009232       0x35 /home/aee38/Documents/qorc-sdk/qomu_apps/qomu_helloworldsw/GCC_Project/output/heap_4.o
 .rodata.main.str1.1
                0x0000000000009267       0xdd /home/aee38/Documents/qorc-sdk/qomu_apps/qomu_helloworldsw/GCC_Project/output/main.o
                                         0xe2 (size before relaxing)
 .rodata.my_main_menu
                0x0000000000009344       0x20 /home/aee38/Documents/qorc-sdk/qomu_apps/qomu_helloworldsw/GCC_Project/output/main_dbg_cli_menu.o
                0x0000000000009344                my_main_menu
 .rodata.qf_diagnostic
                0x0000000000009364       0x40 /home/aee38/Documents/qorc-sdk/qomu_apps/qomu_helloworldsw/GCC_Project/output/main_dbg_cli_menu.o
                0x0000000000009364                qf_diagnostic
 .rodata.str1.1
                0x00000000000093a4       0x5d /home/aee38/Documents/qorc-sdk/qomu_apps/qomu_helloworldsw/GCC_Project/output/main_dbg_cli_menu.o
 .rodata.prvTaskExitError.str1.1
                0x0000000000009401       0x86 /home/aee38/Documents/qorc-sdk/qomu_apps/qomu_helloworldsw/GCC_Project/output/port.o
 .rodata.xQueueGenericReset.str1.1
                0x0000000000009487       0x61 /home/aee38/Documents/qorc-sdk/qomu_apps/qomu_helloworldsw/GCC_Project/output/queue.o
 .rodata.S3x_Clk_Init.str1.1
                0x00000000000094e8       0x77 /home/aee38/Documents/qorc-sdk/qomu_apps/qomu_helloworldsw/GCC_Project/output/s3x_clock.o
 .rodata.DFS_StartTimer.str1.1
                0x000000000000955f       0x78 /home/aee38/Documents/qorc-sdk/qomu_apps/qomu_helloworldsw/GCC_Project/output/s3x_dfs.o
 .rodata.S3x_Set_Policy.str1.1
                0x00000000000095d7       0x17 /home/aee38/Documents/qorc-sdk/qomu_apps/qomu_helloworldsw/GCC_Project/output/s3x_dfs.o
 .rodata.S3x_Lpm_Handler.str1.1
                0x00000000000095ee       0x97 /home/aee38/Documents/qorc-sdk/qomu_apps/qomu_helloworldsw/GCC_Project/output/s3x_lpm.o
 .rodata.__func__.8756
                0x0000000000009685       0x15 /home/aee38/Documents/qorc-sdk/qomu_apps/qomu_helloworldsw/GCC_Project/output/s3x_pi.o
 .rodata.s3x_pi_set_active_st.str1.1
                0x000000000000969a       0x2f /home/aee38/Documents/qorc-sdk/qomu_apps/qomu_helloworldsw/GCC_Project/output/s3x_pi.o
 .rodata        0x00000000000096c9        0x8 /home/aee38/Documents/qorc-sdk/qomu_apps/qomu_helloworldsw/GCC_Project/output/sec_debug.o
 .rodata.invoke_soft_fault.str1.1
                0x00000000000096d1        0xc /home/aee38/Documents/qorc-sdk/qomu_apps/qomu_helloworldsw/GCC_Project/output/sec_debug.o
 .rodata.save_assert_info.str1.1
                0x00000000000096dd       0x1c /home/aee38/Documents/qorc-sdk/qomu_apps/qomu_helloworldsw/GCC_Project/output/sec_debug.o
 .rodata.prvTaskIsTaskSuspended.str1.1
                0x00000000000096f9       0x61 /home/aee38/Documents/qorc-sdk/qomu_apps/qomu_helloworldsw/GCC_Project/output/tasks.o
 .rodata.vTaskStartScheduler.str1.1
                0x000000000000975a        0x5 /home/aee38/Documents/qorc-sdk/qomu_apps/qomu_helloworldsw/GCC_Project/output/tasks.o
 .rodata.prvCheckForValidListAndQueue.str1.1
                0x000000000000975f        0x5 /home/aee38/Documents/qorc-sdk/qomu_apps/qomu_helloworldsw/GCC_Project/output/timers.o
 .rodata.xTimerCreateTimerTask.str1.1
                0x0000000000009764       0x6a /home/aee38/Documents/qorc-sdk/qomu_apps/qomu_helloworldsw/GCC_Project/output/timers.o
 *fill*         0x00000000000097ce        0x2 
 .rodata        0x00000000000097d0        0x4 /usr/lib/gcc/arm-none-eabi/6.3.1/../../../arm-none-eabi/lib/thumb/v7e-m/fpv4-sp/hard/libg_nano.a(lib_a-impure.o)
                0x00000000000097d0                _global_impure_ptr
 .rodata.str1.4
                0x00000000000097d4        0x2 /usr/lib/gcc/arm-none-eabi/6.3.1/../../../arm-none-eabi/lib/thumb/v7e-m/fpv4-sp/hard/libg_nano.a(lib_a-impure.o)
 *fill*         0x00000000000097d6        0x2 
 .rodata        0x00000000000097d8       0x60 /usr/lib/gcc/arm-none-eabi/6.3.1/../../../arm-none-eabi/lib/thumb/v7e-m/fpv4-sp/hard/libg_nano.a(lib_a-findfp.o)
                0x00000000000097d8                __sf_fake_stderr
                0x00000000000097f8                __sf_fake_stdout
                0x0000000000009818                __sf_fake_stdin
 .rodata.str1.4
                0x0000000000009838       0x13 /usr/lib/gcc/arm-none-eabi/6.3.1/../../../arm-none-eabi/lib/thumb/v7e-m/fpv4-sp/hard/libg_nano.a(lib_a-nano-svfprintf.o)
 .rodata.str1.4
                0x000000000000984b       0x13 /usr/lib/gcc/arm-none-eabi/6.3.1/../../../arm-none-eabi/lib/thumb/v7e-m/fpv4-sp/hard/libg_nano.a(lib_a-nano-vfprintf.o)
 *fill*         0x000000000000984b        0x1 
 .rodata.str1.4
                0x000000000000984c       0x28 /usr/lib/gcc/arm-none-eabi/6.3.1/../../../arm-none-eabi/lib/thumb/v7e-m/fpv4-sp/hard/libg_nano.a(lib_a-nano-vfprintf_i.o)
                                         0x25 (size before relaxing)
 *(.eh_fram e*)

.eh_frame       0x0000000000009874        0x0
 .eh_frame      0x0000000000009874        0x0 /usr/lib/gcc/arm-none-eabi/6.3.1/thumb/v7e-m/fpv4-sp/hard/crtbegin.o

.glue_7         0x0000000000009874        0x0
 .glue_7        0x0000000000009874        0x0 linker stubs

.glue_7t        0x0000000000009874        0x0
 .glue_7t       0x0000000000009874        0x0 linker stubs

.vfp11_veneer   0x0000000000009874        0x0
 .vfp11_veneer  0x0000000000009874        0x0 linker stubs

.v4_bx          0x0000000000009874        0x0
 .v4_bx         0x0000000000009874        0x0 linker stubs

.iplt           0x0000000000009874        0x0
 .iplt          0x0000000000009874        0x0 /usr/lib/gcc/arm-none-eabi/6.3.1/thumb/v7e-m/fpv4-sp/hard/crtbegin.o

.ARM.extab
 *(.ARM.extab* .gnu.linkonce.armextab.*)
                0x0000000000009874                __exidx_start = .

.ARM.exidx      0x0000000000009874        0x8
 *(.ARM.exidx* .gnu.linkonce.armexidx.*)
 .ARM.exidx     0x0000000000009874        0x8 /usr/lib/gcc/arm-none-eabi/6.3.1/../../../arm-none-eabi/lib/thumb/v7e-m/fpv4-sp/hard/crt0.o
 .ARM.exidx     0x000000000000987c        0x0 /usr/lib/gcc/arm-none-eabi/6.3.1/thumb/v7e-m/fpv4-sp/hard/libgcc.a(_udivmoddi4.o)
                                          0x8 (size before relaxing)
                0x000000000000987c                __exidx_end = .
                0x000000000000987c                __etext = .
                0x000000000000987c                _sidata = __etext

.rel.dyn        0x000000000000987c        0x0
 .rel.iplt      0x000000000000987c        0x0 /usr/lib/gcc/arm-none-eabi/6.3.1/thumb/v7e-m/fpv4-sp/hard/crtbegin.o

.data           0x0000000020027000    0x131e4 load address 0x000000000000987c
                0x0000000020027000                __data_start__ = .
                0x0000000020027000                _sdata = __data_start__
 *(vtable)
 *(.data*)
 .data._dbg_uart_id
                0x0000000020027000        0x4 /home/aee38/Documents/qorc-sdk/qomu_apps/qomu_helloworldsw/GCC_Project/output/dbg_uart.o
                0x0000000020027000                _dbg_uart_id
 .data._semihost_handle
                0x0000000020027004        0x4 /home/aee38/Documents/qorc-sdk/qomu_apps/qomu_helloworldsw/GCC_Project/output/dbg_uart.o
                0x0000000020027004                _semihost_handle
 .data.pcDbgBuffer
                0x0000000020027008        0x4 /home/aee38/Documents/qorc-sdk/qomu_apps/qomu_helloworldsw/GCC_Project/output/dbg_uart.o
                0x0000000020027008                pcDbgBuffer
 .data.pcDbgBufferLim
                0x000000002002700c        0x4 /home/aee38/Documents/qorc-sdk/qomu_apps/qomu_helloworldsw/GCC_Project/output/dbg_uart.o
                0x000000002002700c                pcDbgBufferLim
 .data.pusbserial_regs
                0x0000000020027010        0x4 /home/aee38/Documents/qorc-sdk/qomu_apps/qomu_helloworldsw/GCC_Project/output/eoss3_hal_fpga_usbserial.o
                0x0000000020027010                pusbserial_regs
 .data.rtc_alarm_interval
                0x0000000020027014        0x4 /home/aee38/Documents/qorc-sdk/qomu_apps/qomu_helloworldsw/GCC_Project/output/eoss3_hal_rtc.o
 .data.pincfg_table
                0x0000000020027018       0xe0 /home/aee38/Documents/qorc-sdk/qomu_apps/qomu_helloworldsw/GCC_Project/output/pincfg_table.o
                0x0000000020027018                pincfg_table
 .data.sizeof_pincfg_table
                0x00000000200270f8        0x4 /home/aee38/Documents/qorc-sdk/qomu_apps/qomu_helloworldsw/GCC_Project/output/pincfg_table.o
                0x00000000200270f8                sizeof_pincfg_table
 .data.uxCriticalNesting
                0x00000000200270fc        0x4 /home/aee38/Documents/qorc-sdk/qomu_apps/qomu_helloworldsw/GCC_Project/output/port.o
 .data.axFPGABitStream
                0x0000000020027100    0x128b8 /home/aee38/Documents/qorc-sdk/qomu_apps/qomu_helloworldsw/GCC_Project/output/qomu_fpga.o
                0x0000000020027100                axFPGABitStream
 .data.axFPGABitStream_length
                0x00000000200399b8        0x4 /home/aee38/Documents/qorc-sdk/qomu_apps/qomu_helloworldsw/GCC_Project/output/qomu_fpga.o
                0x00000000200399b8                axFPGABitStream_length
 .data.S3x_Clk_Domain_Gate_info
                0x00000000200399bc       0x90 /home/aee38/Documents/qorc-sdk/qomu_apps/qomu_helloworldsw/GCC_Project/output/s3x_clock.o
                0x00000000200399bc                S3x_Clk_Domain_Gate_info
 .data.policyCurrent
                0x0000000020039a4c        0x1 /home/aee38/Documents/qorc-sdk/qomu_apps/qomu_helloworldsw/GCC_Project/output/s3x_dfs.o
 .data.s3x_dfs_enable
                0x0000000020039a4d        0x1 /home/aee38/Documents/qorc-sdk/qomu_apps/qomu_helloworldsw/GCC_Project/output/s3x_dfs.o
 .data.stepdown_clkd_index
                0x0000000020039a4e        0x4 /home/aee38/Documents/qorc-sdk/qomu_apps/qomu_helloworldsw/GCC_Project/output/s3x_dfs.o
                0x0000000020039a4e                stepdown_clkd_index
 .data.stepup_clkd_index
                0x0000000020039a52        0x4 /home/aee38/Documents/qorc-sdk/qomu_apps/qomu_helloworldsw/GCC_Project/output/s3x_dfs.o
                0x0000000020039a52                stepup_clkd_index
 .data.S3x_Gate_PI_info
                0x0000000020039a56       0x48 /home/aee38/Documents/qorc-sdk/qomu_apps/qomu_helloworldsw/GCC_Project/output/s3x_pi.o
                0x0000000020039a56                S3x_Gate_PI_info
 .data.S3Pi     0x0000000020039a9e      0x1dc /home/aee38/Documents/qorc-sdk/qomu_apps/qomu_helloworldsw/GCC_Project/output/s3x_pwrcfg.o
                0x0000000020039a9e                S3Pi
 *fill*         0x0000000020039c7a        0x2 
 .data.S3clk    0x0000000020039c7c      0x450 /home/aee38/Documents/qorc-sdk/qomu_apps/qomu_helloworldsw/GCC_Project/output/s3x_pwrcfg.o
                0x0000000020039c7c                S3clk
 .data.dfs_node
                0x000000002003a0cc       0xa0 /home/aee38/Documents/qorc-sdk/qomu_apps/qomu_helloworldsw/GCC_Project/output/s3x_pwrcfg.o
                0x000000002003a0cc                dfs_node
 .data.policyInitial
                0x000000002003a16c        0x1 /home/aee38/Documents/qorc-sdk/qomu_apps/qomu_helloworldsw/GCC_Project/output/s3x_pwrcfg.o
                0x000000002003a16c                policyInitial
 *fill*         0x000000002003a16d        0x3 
 .data.sram_lpm_blocks
                0x000000002003a170        0x4 /home/aee38/Documents/qorc-sdk/qomu_apps/qomu_helloworldsw/GCC_Project/output/s3x_pwrcfg.o
 .data          0x000000002003a174       0x64 /usr/lib/gcc/arm-none-eabi/6.3.1/../../../arm-none-eabi/lib/thumb/v7e-m/fpv4-sp/hard/libg_nano.a(lib_a-impure.o)
                0x000000002003a174                _impure_ptr
                0x000000002003a1d8                . = ALIGN (0x4)
                0x000000002003a1d8                PROVIDE (__preinit_array_start, .)
 *(.preinit_array)
                0x000000002003a1d8                PROVIDE (__preinit_array_end, .)
                0x000000002003a1d8                . = ALIGN (0x4)
                0x000000002003a1d8                PROVIDE (__init_array_start, .)
 *(SORT(.init_array.*))
 *(.init_array)
 .init_array    0x000000002003a1d8        0x4 /usr/lib/gcc/arm-none-eabi/6.3.1/thumb/v7e-m/fpv4-sp/hard/crtbegin.o
                0x000000002003a1dc                PROVIDE (__init_array_end, .)
                0x000000002003a1dc                . = ALIGN (0x4)
                0x000000002003a1dc                PROVIDE (__fini_array_start, .)
 *(SORT(.fini_array.*))
 *(.fini_array)
 .fini_array    0x000000002003a1dc        0x4 /usr/lib/gcc/arm-none-eabi/6.3.1/thumb/v7e-m/fpv4-sp/hard/crtbegin.o
                0x000000002003a1e0                PROVIDE (__fini_array_end, .)
 *(.jcr*)
 .jcr           0x000000002003a1e0        0x0 /usr/lib/gcc/arm-none-eabi/6.3.1/thumb/v7e-m/fpv4-sp/hard/crtbegin.o
 .jcr           0x000000002003a1e0        0x4 /usr/lib/gcc/arm-none-eabi/6.3.1/thumb/v7e-m/fpv4-sp/hard/crtend.o
                0x000000002003a1e4                . = ALIGN (0x4)
                0x000000002003a1e4                __data_end__ = .
                0x000000002003a1e4                _edata = __data_end__

.tm_clone_table
                0x000000002003a1e4        0x0 load address 0x000000000001ca60
 .tm_clone_table
                0x000000002003a1e4        0x0 /usr/lib/gcc/arm-none-eabi/6.3.1/thumb/v7e-m/fpv4-sp/hard/crtbegin.o
 .tm_clone_table
                0x000000002003a1e4        0x0 /usr/lib/gcc/arm-none-eabi/6.3.1/thumb/v7e-m/fpv4-sp/hard/crtend.o

.igot.plt       0x000000002003a1e4        0x0 load address 0x000000000001ca60
 .igot.plt      0x000000002003a1e4        0x0 /usr/lib/gcc/arm-none-eabi/6.3.1/thumb/v7e-m/fpv4-sp/hard/crtbegin.o

.Hardware       0x0000000020064000        0x0
                0x0000000020064000                __hwa_start__ = .
 *(*HWA*)
                0x0000000020064000                __hwa_end__ = .

.bss            0x000000002003a1e8    0x10450
                0x000000002003a1e8                . = ALIGN (0x4)
                0x000000002003a1e8                __bss_start__ = .
                0x000000002003a1e8                _sbss = __bss_start__
 *(.bss*)
 .bss           0x000000002003a1e8       0x1c /usr/lib/gcc/arm-none-eabi/6.3.1/thumb/v7e-m/fpv4-sp/hard/crtbegin.o
 .bss.outbuf.6607
                0x000000002003a204       0x64 /home/aee38/Documents/qorc-sdk/qomu_apps/qomu_helloworldsw/GCC_Project/output/cli_io.o
 .bss.last_was_cr.6995
                0x000000002003a268        0x4 /home/aee38/Documents/qorc-sdk/qomu_apps/qomu_helloworldsw/GCC_Project/output/cli_loop.o
 .bss.__debug_fatal__
                0x000000002003a26c        0x4 /home/aee38/Documents/qorc-sdk/qomu_apps/qomu_helloworldsw/GCC_Project/output/dbg_uart.o
                0x000000002003a26c                __debug_fatal__
 .bss.fSkipSemi
                0x000000002003a270        0x1 /home/aee38/Documents/qorc-sdk/qomu_apps/qomu_helloworldsw/GCC_Project/output/dbg_uart.o
                0x000000002003a270                fSkipSemi
 *fill*         0x000000002003a271        0x3 
 .bss.qhUSBserialRx
                0x000000002003a274        0x4 /home/aee38/Documents/qorc-sdk/qomu_apps/qomu_helloworldsw/GCC_Project/output/eoss3_hal_fpga_usbserial.o
 .bss.fPadIsConfig
                0x000000002003a278        0x8 /home/aee38/Documents/qorc-sdk/qomu_apps/qomu_helloworldsw/GCC_Project/output/eoss3_hal_pad_config.o
                0x000000002003a278                fPadIsConfig
 .bss.rtc_cb_func
                0x000000002003a280        0x4 /home/aee38/Documents/qorc-sdk/qomu_apps/qomu_helloworldsw/GCC_Project/output/eoss3_hal_rtc.o
 .bss.xLockSPI1Bus
                0x000000002003a284        0x4 /home/aee38/Documents/qorc-sdk/qomu_apps/qomu_helloworldsw/GCC_Project/output/eoss3_hal_spi.o
 .bss.xWaitForIntr
                0x000000002003a288        0x4 /home/aee38/Documents/qorc-sdk/qomu_apps/qomu_helloworldsw/GCC_Project/output/eoss3_hal_spi.o
 .bss.TimerQueue
                0x000000002003a28c        0x4 /home/aee38/Documents/qorc-sdk/qomu_apps/qomu_helloworldsw/GCC_Project/output/eoss3_hal_timer.o
 .bss.TimerToExpire
                0x000000002003a290        0x4 /home/aee38/Documents/qorc-sdk/qomu_apps/qomu_helloworldsw/GCC_Project/output/eoss3_hal_timer.o
 .bss.uart_vars
                0x000000002003a294       0x44 /home/aee38/Documents/qorc-sdk/qomu_apps/qomu_helloworldsw/GCC_Project/output/eoss3_hal_uart.o
 .bss.WDT_Handle
                0x000000002003a2d8       0x10 /home/aee38/Documents/qorc-sdk/qomu_apps/qomu_helloworldsw/GCC_Project/output/eoss3_hal_wdt.o
 .bss.isrcount.8407
                0x000000002003a2e8        0x4 /home/aee38/Documents/qorc-sdk/qomu_apps/qomu_helloworldsw/GCC_Project/output/eoss3_hal_wdt.o
 .bss.FB_ISR    0x000000002003a2ec       0x10 /home/aee38/Documents/qorc-sdk/qomu_apps/qomu_helloworldsw/GCC_Project/output/exceptions.o
                0x000000002003a2ec                FB_ISR
 .bss.ucount    0x000000002003a2fc        0x4 /home/aee38/Documents/qorc-sdk/qomu_apps/qomu_helloworldsw/GCC_Project/output/exceptions.o
                0x000000002003a2fc                ucount
 .bss.urxcount  0x000000002003a300        0x4 /home/aee38/Documents/qorc-sdk/qomu_apps/qomu_helloworldsw/GCC_Project/output/exceptions.o
                0x000000002003a300                urxcount
 .bss.pxEnd     0x000000002003a304        0x4 /home/aee38/Documents/qorc-sdk/qomu_apps/qomu_helloworldsw/GCC_Project/output/heap_4.o
 .bss.ucHeap    0x000000002003a308     0xf000 /home/aee38/Documents/qorc-sdk/qomu_apps/qomu_helloworldsw/GCC_Project/output/heap_4.o
 .bss.xBlockAllocatedBit
                0x0000000020049308        0x4 /home/aee38/Documents/qorc-sdk/qomu_apps/qomu_helloworldsw/GCC_Project/output/heap_4.o
 .bss.xFreeBytesRemaining
                0x000000002004930c        0x4 /home/aee38/Documents/qorc-sdk/qomu_apps/qomu_helloworldsw/GCC_Project/output/heap_4.o
 .bss.xMinimumEverFreeBytesRemaining
                0x0000000020049310        0x4 /home/aee38/Documents/qorc-sdk/qomu_apps/qomu_helloworldsw/GCC_Project/output/heap_4.o
 .bss.xStart    0x0000000020049314        0x8 /home/aee38/Documents/qorc-sdk/qomu_apps/qomu_helloworldsw/GCC_Project/output/heap_4.o
 .bss.fLit.8774
                0x000000002004931c        0x1 /home/aee38/Documents/qorc-sdk/qomu_apps/qomu_helloworldsw/GCC_Project/output/main_dbg_cli_menu.o
 .bss.fLit.8779
                0x000000002004931d        0x1 /home/aee38/Documents/qorc-sdk/qomu_apps/qomu_helloworldsw/GCC_Project/output/main_dbg_cli_menu.o
 .bss.fLit.8784
                0x000000002004931e        0x1 /home/aee38/Documents/qorc-sdk/qomu_apps/qomu_helloworldsw/GCC_Project/output/main_dbg_cli_menu.o
 .bss.ucMaxSysCallPriority
                0x000000002004931f        0x1 /home/aee38/Documents/qorc-sdk/qomu_apps/qomu_helloworldsw/GCC_Project/output/port.o
 .bss.ulMaxPRIGROUPValue
                0x0000000020049320        0x4 /home/aee38/Documents/qorc-sdk/qomu_apps/qomu_helloworldsw/GCC_Project/output/port.o
 .bss.uxGlobalQueueNumber
                0x0000000020049324        0x4 /home/aee38/Documents/qorc-sdk/qomu_apps/qomu_helloworldsw/GCC_Project/output/queue.o
 .bss.Hsosc     0x0000000020049328        0xc /home/aee38/Documents/qorc-sdk/qomu_apps/qomu_helloworldsw/GCC_Project/output/s3x_clock.o
                0x0000000020049328                Hsosc
 .bss.ticksSleeptime
                0x0000000020049334        0x4 /home/aee38/Documents/qorc-sdk/qomu_apps/qomu_helloworldsw/GCC_Project/output/s3x_cpuload.o
 .bss.DFS_TimerHandle
                0x0000000020049338        0x4 /home/aee38/Documents/qorc-sdk/qomu_apps/qomu_helloworldsw/GCC_Project/output/s3x_dfs.o
 .bss.cruReg0x000
                0x000000002004933c        0x4 /home/aee38/Documents/qorc-sdk/qomu_apps/qomu_helloworldsw/GCC_Project/output/s3x_dfs.o
 .bss.freqHsoscBeforeSleep
                0x0000000020049340        0x4 /home/aee38/Documents/qorc-sdk/qomu_apps/qomu_helloworldsw/GCC_Project/output/s3x_dfs.o
 .bss.policyBeforeSleep
                0x0000000020049344        0x1 /home/aee38/Documents/qorc-sdk/qomu_apps/qomu_helloworldsw/GCC_Project/output/s3x_dfs.o
 .bss.policyDuringSleep
                0x0000000020049345        0x1 /home/aee38/Documents/qorc-sdk/qomu_apps/qomu_helloworldsw/GCC_Project/output/s3x_dfs.o
 *fill*         0x0000000020049346        0x2 
 .bss.policyMaxrate
                0x0000000020049348        0x4 /home/aee38/Documents/qorc-sdk/qomu_apps/qomu_helloworldsw/GCC_Project/output/s3x_dfs.o
 .bss.lpm_hnd   0x000000002004934c        0x4 /home/aee38/Documents/qorc-sdk/qomu_apps/qomu_helloworldsw/GCC_Project/output/s3x_lpm.o
                0x000000002004934c                lpm_hnd
 .bss.trace_idx
                0x0000000020049350        0x4 /home/aee38/Documents/qorc-sdk/qomu_apps/qomu_helloworldsw/GCC_Project/output/s3x_lpm.o
 .bss.qos_hnd   0x0000000020049354        0x4 /home/aee38/Documents/qorc-sdk/qomu_apps/qomu_helloworldsw/GCC_Project/output/s3x_qos.o
                0x0000000020049354                qos_hnd
 .bss.pxCurrentTCB
                0x0000000020049358        0x4 /home/aee38/Documents/qorc-sdk/qomu_apps/qomu_helloworldsw/GCC_Project/output/tasks.o
                0x0000000020049358                pxCurrentTCB
 .bss.pxDelayedTaskList
                0x000000002004935c        0x4 /home/aee38/Documents/qorc-sdk/qomu_apps/qomu_helloworldsw/GCC_Project/output/tasks.o
 .bss.pxOverflowDelayedTaskList
                0x0000000020049360        0x4 /home/aee38/Documents/qorc-sdk/qomu_apps/qomu_helloworldsw/GCC_Project/output/tasks.o
 .bss.pxReadyTasksLists
                0x0000000020049364      0x1b8 /home/aee38/Documents/qorc-sdk/qomu_apps/qomu_helloworldsw/GCC_Project/output/tasks.o
 .bss.uxCurrentNumberOfTasks
                0x000000002004951c        0x4 /home/aee38/Documents/qorc-sdk/qomu_apps/qomu_helloworldsw/GCC_Project/output/tasks.o
 .bss.uxDeletedTasksWaitingCleanUp
                0x0000000020049520        0x4 /home/aee38/Documents/qorc-sdk/qomu_apps/qomu_helloworldsw/GCC_Project/output/tasks.o
 .bss.uxPendedTicks
                0x0000000020049524        0x4 /home/aee38/Documents/qorc-sdk/qomu_apps/qomu_helloworldsw/GCC_Project/output/tasks.o
 .bss.uxSchedulerSuspended
                0x0000000020049528        0x4 /home/aee38/Documents/qorc-sdk/qomu_apps/qomu_helloworldsw/GCC_Project/output/tasks.o
 .bss.uxTaskNumber
                0x000000002004952c        0x4 /home/aee38/Documents/qorc-sdk/qomu_apps/qomu_helloworldsw/GCC_Project/output/tasks.o
 .bss.uxTopReadyPriority
                0x0000000020049530        0x4 /home/aee38/Documents/qorc-sdk/qomu_apps/qomu_helloworldsw/GCC_Project/output/tasks.o
 .bss.xDelayedTaskList1
                0x0000000020049534       0x14 /home/aee38/Documents/qorc-sdk/qomu_apps/qomu_helloworldsw/GCC_Project/output/tasks.o
 .bss.xDelayedTaskList2
                0x0000000020049548       0x14 /home/aee38/Documents/qorc-sdk/qomu_apps/qomu_helloworldsw/GCC_Project/output/tasks.o
 .bss.xIdleTaskHandle
                0x000000002004955c        0x4 /home/aee38/Documents/qorc-sdk/qomu_apps/qomu_helloworldsw/GCC_Project/output/tasks.o
 .bss.xNextTaskUnblockTime
                0x0000000020049560        0x4 /home/aee38/Documents/qorc-sdk/qomu_apps/qomu_helloworldsw/GCC_Project/output/tasks.o
 .bss.xNumOfOverflows
                0x0000000020049564        0x4 /home/aee38/Documents/qorc-sdk/qomu_apps/qomu_helloworldsw/GCC_Project/output/tasks.o
 .bss.xPendingReadyList
                0x0000000020049568       0x14 /home/aee38/Documents/qorc-sdk/qomu_apps/qomu_helloworldsw/GCC_Project/output/tasks.o
 .bss.xSchedulerRunning
                0x000000002004957c        0x4 /home/aee38/Documents/qorc-sdk/qomu_apps/qomu_helloworldsw/GCC_Project/output/tasks.o
 .bss.xSuspendedTaskList
                0x0000000020049580       0x14 /home/aee38/Documents/qorc-sdk/qomu_apps/qomu_helloworldsw/GCC_Project/output/tasks.o
 .bss.xTasksWaitingTermination
                0x0000000020049594       0x14 /home/aee38/Documents/qorc-sdk/qomu_apps/qomu_helloworldsw/GCC_Project/output/tasks.o
 .bss.xTickCount
                0x00000000200495a8        0x4 /home/aee38/Documents/qorc-sdk/qomu_apps/qomu_helloworldsw/GCC_Project/output/tasks.o
 .bss.xYieldPending
                0x00000000200495ac        0x4 /home/aee38/Documents/qorc-sdk/qomu_apps/qomu_helloworldsw/GCC_Project/output/tasks.o
 .bss.pxCurrentTimerList
                0x00000000200495b0        0x4 /home/aee38/Documents/qorc-sdk/qomu_apps/qomu_helloworldsw/GCC_Project/output/timers.o
 .bss.pxOverflowTimerList
                0x00000000200495b4        0x4 /home/aee38/Documents/qorc-sdk/qomu_apps/qomu_helloworldsw/GCC_Project/output/timers.o
 .bss.xActiveTimerList1
                0x00000000200495b8       0x14 /home/aee38/Documents/qorc-sdk/qomu_apps/qomu_helloworldsw/GCC_Project/output/timers.o
 .bss.xActiveTimerList2
                0x00000000200495cc       0x14 /home/aee38/Documents/qorc-sdk/qomu_apps/qomu_helloworldsw/GCC_Project/output/timers.o
 .bss.xLastTime.6482
                0x00000000200495e0        0x4 /home/aee38/Documents/qorc-sdk/qomu_apps/qomu_helloworldsw/GCC_Project/output/timers.o
 .bss.xTimerQueue
                0x00000000200495e4        0x4 /home/aee38/Documents/qorc-sdk/qomu_apps/qomu_helloworldsw/GCC_Project/output/timers.o
 .bss.xTimerTaskHandle
                0x00000000200495e8        0x4 /home/aee38/Documents/qorc-sdk/qomu_apps/qomu_helloworldsw/GCC_Project/output/timers.o
 .bss           0x00000000200495ec        0x8 /usr/lib/gcc/arm-none-eabi/6.3.1/../../../arm-none-eabi/lib/thumb/v7e-m/fpv4-sp/hard/libg_nano.a(lib_a-nano-mallocr.o)
                0x00000000200495ec                __malloc_free_list
                0x00000000200495f0                __malloc_sbrk_start
 .bss           0x00000000200495f4       0x8c /usr/lib/gcc/arm-none-eabi/6.3.1/../../../arm-none-eabi/lib/thumb/v7e-m/fpv4-sp/hard/libg_nano.a(lib_a-__atexit.o)
 .bss           0x0000000020049680        0x4 /usr/lib/gcc/arm-none-eabi/6.3.1/../../../arm-none-eabi/lib/thumb/v7e-m/fpv4-sp/hard/libg_nano.a(lib_a-__call_atexit.o)
                0x0000000020049680                _global_atexit
 .bss           0x0000000020049684        0x4 /usr/lib/gcc/arm-none-eabi/6.3.1/../../../arm-none-eabi/lib/thumb/v7e-m/fpv4-sp/hard/libnosys.a(sbrk.o)
 *(COMMON)
 COMMON         0x0000000020049688      0x26c /home/aee38/Documents/qorc-sdk/qomu_apps/qomu_helloworldsw/GCC_Project/output/cli_platform.o
                0x0000000020049688                CLI_common
                0x00000000200498f0                xHandleTestCli
 COMMON         0x00000000200498f4      0x800 /home/aee38/Documents/qorc-sdk/qomu_apps/qomu_helloworldsw/GCC_Project/output/dbg_uart.o
                0x00000000200498f4                acDbgBuffer
 COMMON         0x000000002004a0f4        0x4 /home/aee38/Documents/qorc-sdk/qomu_apps/qomu_helloworldsw/GCC_Project/output/eoss3_hal_spi.o
                0x000000002004a0f4                SPIHandle
 COMMON         0x000000002004a0f8        0x4 /home/aee38/Documents/qorc-sdk/qomu_apps/qomu_helloworldsw/GCC_Project/output/eoss3_hal_uart.o
                0x000000002004a0f8                uart_bad_tx_char
 COMMON         0x000000002004a0fc       0x30 /home/aee38/Documents/qorc-sdk/qomu_apps/qomu_helloworldsw/GCC_Project/output/exceptions.o
                0x000000002004a0fc                gv_hardfault_args
                0x000000002004a124                OD_On
                0x000000002004a128                hardfault_loop
 COMMON         0x000000002004a12c        0x4 /home/aee38/Documents/qorc-sdk/qomu_apps/qomu_helloworldsw/GCC_Project/output/main.o
                0x000000002004a12c                SOFTWARE_VERSION_STR
 COMMON         0x000000002004a130      0x100 /home/aee38/Documents/qorc-sdk/qomu_apps/qomu_helloworldsw/GCC_Project/output/queue.o
                0x000000002004a130                xQueueRegistry
 COMMON         0x000000002004a230      0x400 /home/aee38/Documents/qorc-sdk/qomu_apps/qomu_helloworldsw/GCC_Project/output/s3x_lpm.o
                0x000000002004a230                trace_history
 COMMON         0x000000002004a630        0x2 /home/aee38/Documents/qorc-sdk/qomu_apps/qomu_helloworldsw/GCC_Project/output/s3x_pwrcfg.o
                0x000000002004a630                S3_dfs_max_index
                0x000000002004a631                S3clkd_size
 *fill*         0x000000002004a632        0x2 
 COMMON         0x000000002004a634        0x4 /usr/lib/gcc/arm-none-eabi/6.3.1/../../../arm-none-eabi/lib/thumb/v7e-m/fpv4-sp/hard/libg_nano.a(lib_a-reent.o)
                0x000000002004a634                errno
                0x000000002004a638                . = ALIGN (0x4)
                0x000000002004a638                __bss_end__ = .
                0x000000002004a638                _ebss = __bss_end__

.rtos           0x000000002004a638        0x0
                0x000000002004a638                . = ALIGN (0x4)
                0x000000002004a638                __rtos_start__ = .
 *(.rtos*)
                0x000000002004a638                . = ALIGN (0x4)
                0x000000002004a638                __rtos_end__ = .
                0x000000002004a638                _ertos = __rtos_end__

.BLE_SPI_TX_LOCATION
                0x0000000020063800        0x0
                0x0000000020063800                . = ALIGN (0x4)
 *(.BLE_SPI_TX_LOCATION)

.BLE_SPI_RX_LOCATION
                0x0000000020063c00        0x0
                0x0000000020063c00                . = ALIGN (0x4)
 *(.BLE_SPI_RX_LOCATION)

.heap           0x000000002004a638        0x0
                0x000000002004a638                __end__ = .
                0x000000002004a638                _end = __end__
                0x000000002004a638                end = __end__
                0x000000002004a638                __HeapBase = _end
 *(.heap*)
                0x000000002004a638                __HeapLimit = .

.co_stack       0x000000002004a638        0x0
                0x000000002004a638                . = ALIGN (0x8)
 *(.co_stack .co_stack.*)
                0x0000000000000c00                STACK_SIZE = 0xc00
                0x0000000020063800                __StackTop = (ORIGIN (ram) + LENGTH (ram))
                0x0000000020062c00                __StackLimit = (__StackTop - STACK_SIZE)
                0x0000000020063800                PROVIDE (__stack, __StackTop)
                0x0000000000000001                ASSERT ((__StackLimit >= __HeapLimit), region ram  overflowed with stack)
OUTPUT(/home/aee38/Documents/qorc-sdk/qomu_apps/qomu_helloworldsw/GCC_Project/output/qomu_helloworldsw.elf elf32-littlearm)

.ARM.attributes
                0x0000000000000000       0x30
 .ARM.attributes
                0x0000000000000000       0x22 /usr/lib/gcc/arm-none-eabi/6.3.1/thumb/v7e-m/fpv4-sp/hard/crti.o
 .ARM.attributes
                0x0000000000000022       0x34 /usr/lib/gcc/arm-none-eabi/6.3.1/thumb/v7e-m/fpv4-sp/hard/crtbegin.o
 .ARM.attributes
                0x0000000000000056       0x20 /usr/lib/gcc/arm-none-eabi/6.3.1/../../../arm-none-eabi/lib/thumb/v7e-m/fpv4-sp/hard/crt0.o
 .ARM.attributes
                0x0000000000000076       0x39 /home/aee38/Documents/qorc-sdk/qomu_apps/qomu_helloworldsw/GCC_Project/output/c_lib_retarget.o
 .ARM.attributes
                0x00000000000000af       0x39 /home/aee38/Documents/qorc-sdk/qomu_apps/qomu_helloworldsw/GCC_Project/output/cli_args.o
 .ARM.attributes
                0x00000000000000e8       0x39 /home/aee38/Documents/qorc-sdk/qomu_apps/qomu_helloworldsw/GCC_Project/output/cli_io.o
 .ARM.attributes
                0x0000000000000121       0x39 /home/aee38/Documents/qorc-sdk/qomu_apps/qomu_helloworldsw/GCC_Project/output/cli_loop.o
 .ARM.attributes
                0x000000000000015a       0x39 /home/aee38/Documents/qorc-sdk/qomu_apps/qomu_helloworldsw/GCC_Project/output/cli_misc.o
 .ARM.attributes
                0x0000000000000193       0x39 /home/aee38/Documents/qorc-sdk/qomu_apps/qomu_helloworldsw/GCC_Project/output/cli_platform.o
 .ARM.attributes
                0x00000000000001cc       0x39 /home/aee38/Documents/qorc-sdk/qomu_apps/qomu_helloworldsw/GCC_Project/output/dbg_uart.o
 .ARM.attributes
                0x0000000000000205       0x39 /home/aee38/Documents/qorc-sdk/qomu_apps/qomu_helloworldsw/GCC_Project/output/eoss3_hal_fpga_usbserial.o
 .ARM.attributes
                0x000000000000023e       0x39 /home/aee38/Documents/qorc-sdk/qomu_apps/qomu_helloworldsw/GCC_Project/output/eoss3_hal_gpio.o
 .ARM.attributes
                0x0000000000000277       0x39 /home/aee38/Documents/qorc-sdk/qomu_apps/qomu_helloworldsw/GCC_Project/output/eoss3_hal_pad_config.o
 .ARM.attributes
                0x00000000000002b0       0x39 /home/aee38/Documents/qorc-sdk/qomu_apps/qomu_helloworldsw/GCC_Project/output/eoss3_hal_rtc.o
 .ARM.attributes
                0x00000000000002e9       0x39 /home/aee38/Documents/qorc-sdk/qomu_apps/qomu_helloworldsw/GCC_Project/output/eoss3_hal_spi.o
 .ARM.attributes
                0x0000000000000322       0x39 /home/aee38/Documents/qorc-sdk/qomu_apps/qomu_helloworldsw/GCC_Project/output/eoss3_hal_timer.o
 .ARM.attributes
                0x000000000000035b       0x39 /home/aee38/Documents/qorc-sdk/qomu_apps/qomu_helloworldsw/GCC_Project/output/eoss3_hal_uart.o
 .ARM.attributes
                0x0000000000000394       0x39 /home/aee38/Documents/qorc-sdk/qomu_apps/qomu_helloworldsw/GCC_Project/output/eoss3_hal_wdt.o
 .ARM.attributes
                0x00000000000003cd       0x39 /home/aee38/Documents/qorc-sdk/qomu_apps/qomu_helloworldsw/GCC_Project/output/exceptions.o
 .ARM.attributes
                0x0000000000000406       0x39 /home/aee38/Documents/qorc-sdk/qomu_apps/qomu_helloworldsw/GCC_Project/output/fpga_loader.o
 .ARM.attributes
                0x000000000000043f       0x39 /home/aee38/Documents/qorc-sdk/qomu_apps/qomu_helloworldsw/GCC_Project/output/heap_4.o
 .ARM.attributes
                0x0000000000000478       0x39 /home/aee38/Documents/qorc-sdk/qomu_apps/qomu_helloworldsw/GCC_Project/output/list.o
 .ARM.attributes
                0x00000000000004b1       0x39 /home/aee38/Documents/qorc-sdk/qomu_apps/qomu_helloworldsw/GCC_Project/output/main.o
 .ARM.attributes
                0x00000000000004ea       0x39 /home/aee38/Documents/qorc-sdk/qomu_apps/qomu_helloworldsw/GCC_Project/output/main_dbg_cli_menu.o
 .ARM.attributes
                0x0000000000000523       0x39 /home/aee38/Documents/qorc-sdk/qomu_apps/qomu_helloworldsw/GCC_Project/output/pincfg_table.o
 .ARM.attributes
                0x000000000000055c       0x39 /home/aee38/Documents/qorc-sdk/qomu_apps/qomu_helloworldsw/GCC_Project/output/port.o
 .ARM.attributes
                0x0000000000000595       0x39 /home/aee38/Documents/qorc-sdk/qomu_apps/qomu_helloworldsw/GCC_Project/output/qomu_fpga.o
 .ARM.attributes
                0x00000000000005ce       0x39 /home/aee38/Documents/qorc-sdk/qomu_apps/qomu_helloworldsw/GCC_Project/output/qomu_hardwaresetup.o
 .ARM.attributes
                0x0000000000000607       0x39 /home/aee38/Documents/qorc-sdk/qomu_apps/qomu_helloworldsw/GCC_Project/output/queue.o
 .ARM.attributes
                0x0000000000000640       0x39 /home/aee38/Documents/qorc-sdk/qomu_apps/qomu_helloworldsw/GCC_Project/output/s3x_clock.o
 .ARM.attributes
                0x0000000000000679       0x39 /home/aee38/Documents/qorc-sdk/qomu_apps/qomu_helloworldsw/GCC_Project/output/s3x_clock_hal.o
 .ARM.attributes
                0x00000000000006b2       0x39 /home/aee38/Documents/qorc-sdk/qomu_apps/qomu_helloworldsw/GCC_Project/output/s3x_cpuload.o
 .ARM.attributes
                0x00000000000006eb       0x39 /home/aee38/Documents/qorc-sdk/qomu_apps/qomu_helloworldsw/GCC_Project/output/s3x_dfs.o
 .ARM.attributes
                0x0000000000000724       0x39 /home/aee38/Documents/qorc-sdk/qomu_apps/qomu_helloworldsw/GCC_Project/output/s3x_lpm.o
 .ARM.attributes
                0x000000000000075d       0x39 /home/aee38/Documents/qorc-sdk/qomu_apps/qomu_helloworldsw/GCC_Project/output/s3x_pi.o
 .ARM.attributes
                0x0000000000000796       0x39 /home/aee38/Documents/qorc-sdk/qomu_apps/qomu_helloworldsw/GCC_Project/output/s3x_pwrcfg.o
 .ARM.attributes
                0x00000000000007cf       0x39 /home/aee38/Documents/qorc-sdk/qomu_apps/qomu_helloworldsw/GCC_Project/output/s3x_qos.o
 .ARM.attributes
                0x0000000000000808       0x39 /home/aee38/Documents/qorc-sdk/qomu_apps/qomu_helloworldsw/GCC_Project/output/sec_debug.o
 .ARM.attributes
                0x0000000000000841       0x39 /home/aee38/Documents/qorc-sdk/qomu_apps/qomu_helloworldsw/GCC_Project/output/startup_EOSS3B_GCC.o
 .ARM.attributes
                0x000000000000087a       0x39 /home/aee38/Documents/qorc-sdk/qomu_apps/qomu_helloworldsw/GCC_Project/output/tasks.o
 .ARM.attributes
                0x00000000000008b3       0x39 /home/aee38/Documents/qorc-sdk/qomu_apps/qomu_helloworldsw/GCC_Project/output/timers.o
 .ARM.attributes
                0x00000000000008ec       0x39 /home/aee38/Documents/qorc-sdk/qomu_apps/qomu_helloworldsw/GCC_Project/output/vectors_CM4F_gcc.o
 .ARM.attributes
                0x0000000000000925       0x22 /usr/lib/gcc/arm-none-eabi/6.3.1/thumb/v7e-m/fpv4-sp/hard/libgcc.a(_lshrdi3.o)
 .ARM.attributes
                0x0000000000000947       0x22 /usr/lib/gcc/arm-none-eabi/6.3.1/thumb/v7e-m/fpv4-sp/hard/libgcc.a(_ashldi3.o)
 .ARM.attributes
                0x0000000000000969       0x22 /usr/lib/gcc/arm-none-eabi/6.3.1/thumb/v7e-m/fpv4-sp/hard/libgcc.a(_aeabi_uldivmod.o)
 .ARM.attributes
                0x000000000000098b       0x34 /usr/lib/gcc/arm-none-eabi/6.3.1/thumb/v7e-m/fpv4-sp/hard/libgcc.a(_udivmoddi4.o)
 .ARM.attributes
                0x00000000000009bf       0x22 /usr/lib/gcc/arm-none-eabi/6.3.1/thumb/v7e-m/fpv4-sp/hard/libgcc.a(_dvmd_tls.o)
 .ARM.attributes
                0x00000000000009e1       0x34 /usr/lib/gcc/arm-none-eabi/6.3.1/../../../arm-none-eabi/lib/thumb/v7e-m/fpv4-sp/hard/libg_nano.a(lib_a-atexit.o)
 .ARM.attributes
                0x0000000000000a15       0x34 /usr/lib/gcc/arm-none-eabi/6.3.1/../../../arm-none-eabi/lib/thumb/v7e-m/fpv4-sp/hard/libg_nano.a(lib_a-exit.o)
 .ARM.attributes
                0x0000000000000a49       0x34 /usr/lib/gcc/arm-none-eabi/6.3.1/../../../arm-none-eabi/lib/thumb/v7e-m/fpv4-sp/hard/libg_nano.a(lib_a-fini.o)
 .ARM.attributes
                0x0000000000000a7d       0x34 /usr/lib/gcc/arm-none-eabi/6.3.1/../../../arm-none-eabi/lib/thumb/v7e-m/fpv4-sp/hard/libg_nano.a(lib_a-impure.o)
 .ARM.attributes
                0x0000000000000ab1       0x34 /usr/lib/gcc/arm-none-eabi/6.3.1/../../../arm-none-eabi/lib/thumb/v7e-m/fpv4-sp/hard/libg_nano.a(lib_a-init.o)
 .ARM.attributes
                0x0000000000000ae5       0x34 /usr/lib/gcc/arm-none-eabi/6.3.1/../../../arm-none-eabi/lib/thumb/v7e-m/fpv4-sp/hard/libg_nano.a(lib_a-malloc.o)
 .ARM.attributes
                0x0000000000000b19       0x20 /usr/lib/gcc/arm-none-eabi/6.3.1/../../../arm-none-eabi/lib/thumb/v7e-m/fpv4-sp/hard/libg_nano.a(lib_a-memcpy.o)
 .ARM.attributes
                0x0000000000000b39       0x34 /usr/lib/gcc/arm-none-eabi/6.3.1/../../../arm-none-eabi/lib/thumb/v7e-m/fpv4-sp/hard/libg_nano.a(lib_a-memset.o)
 .ARM.attributes
                0x0000000000000b6d       0x34 /usr/lib/gcc/arm-none-eabi/6.3.1/../../../arm-none-eabi/lib/thumb/v7e-m/fpv4-sp/hard/libg_nano.a(lib_a-nano-freer.o)
 .ARM.attributes
                0x0000000000000ba1       0x34 /usr/lib/gcc/arm-none-eabi/6.3.1/../../../arm-none-eabi/lib/thumb/v7e-m/fpv4-sp/hard/libg_nano.a(lib_a-nano-mallocr.o)
 .ARM.attributes
                0x0000000000000bd5       0x34 /usr/lib/gcc/arm-none-eabi/6.3.1/../../../arm-none-eabi/lib/thumb/v7e-m/fpv4-sp/hard/libg_nano.a(lib_a-printf.o)
 .ARM.attributes
                0x0000000000000c09       0x34 /usr/lib/gcc/arm-none-eabi/6.3.1/../../../arm-none-eabi/lib/thumb/v7e-m/fpv4-sp/hard/libg_nano.a(lib_a-puts.o)
 .ARM.attributes
                0x0000000000000c3d       0x34 /usr/lib/gcc/arm-none-eabi/6.3.1/../../../arm-none-eabi/lib/thumb/v7e-m/fpv4-sp/hard/libg_nano.a(lib_a-sbrkr.o)
 .ARM.attributes
                0x0000000000000c71       0x20 /usr/lib/gcc/arm-none-eabi/6.3.1/../../../arm-none-eabi/lib/thumb/v7e-m/fpv4-sp/hard/libg_nano.a(lib_a-setjmp.o)
 .ARM.attributes
                0x0000000000000c91       0x34 /usr/lib/gcc/arm-none-eabi/6.3.1/../../../arm-none-eabi/lib/thumb/v7e-m/fpv4-sp/hard/libg_nano.a(lib_a-snprintf.o)
 .ARM.attributes
                0x0000000000000cc5       0x34 /usr/lib/gcc/arm-none-eabi/6.3.1/../../../arm-none-eabi/lib/thumb/v7e-m/fpv4-sp/hard/libg_nano.a(lib_a-sprintf.o)
 .ARM.attributes
                0x0000000000000cf9       0x34 /usr/lib/gcc/arm-none-eabi/6.3.1/../../../arm-none-eabi/lib/thumb/v7e-m/fpv4-sp/hard/libg_nano.a(lib_a-strchr.o)
 .ARM.attributes
                0x0000000000000d2d       0x20 /usr/lib/gcc/arm-none-eabi/6.3.1/../../../arm-none-eabi/lib/thumb/v7e-m/fpv4-sp/hard/libg_nano.a(lib_a-strcmp.o)
 .ARM.attributes
                0x0000000000000d4d       0x34 /usr/lib/gcc/arm-none-eabi/6.3.1/../../../arm-none-eabi/lib/thumb/v7e-m/fpv4-sp/hard/libg_nano.a(lib_a-strcpy.o)
 .ARM.attributes
                0x0000000000000d81       0x20 /usr/lib/gcc/arm-none-eabi/6.3.1/../../../arm-none-eabi/lib/thumb/v7e-m/fpv4-sp/hard/libg_nano.a(lib_a-strlen.o)
 .ARM.attributes
                0x0000000000000da1       0x34 /usr/lib/gcc/arm-none-eabi/6.3.1/../../../arm-none-eabi/lib/thumb/v7e-m/fpv4-sp/hard/libg_nano.a(lib_a-strncpy.o)
 .ARM.attributes
                0x0000000000000dd5       0x34 /usr/lib/gcc/arm-none-eabi/6.3.1/../../../arm-none-eabi/lib/thumb/v7e-m/fpv4-sp/hard/libg_nano.a(lib_a-strrchr.o)
 .ARM.attributes
                0x0000000000000e09       0x34 /usr/lib/gcc/arm-none-eabi/6.3.1/../../../arm-none-eabi/lib/thumb/v7e-m/fpv4-sp/hard/libg_nano.a(lib_a-strtok_r.o)
 .ARM.attributes
                0x0000000000000e3d       0x34 /usr/lib/gcc/arm-none-eabi/6.3.1/../../../arm-none-eabi/lib/thumb/v7e-m/fpv4-sp/hard/libg_nano.a(lib_a-vsnprintf.o)
 .ARM.attributes
                0x0000000000000e71       0x34 /usr/lib/gcc/arm-none-eabi/6.3.1/../../../arm-none-eabi/lib/thumb/v7e-m/fpv4-sp/hard/libg_nano.a(lib_a-wbuf.o)
 .ARM.attributes
                0x0000000000000ea5       0x34 /usr/lib/gcc/arm-none-eabi/6.3.1/../../../arm-none-eabi/lib/thumb/v7e-m/fpv4-sp/hard/libg_nano.a(lib_a-wsetup.o)
 .ARM.attributes
                0x0000000000000ed9       0x34 /usr/lib/gcc/arm-none-eabi/6.3.1/../../../arm-none-eabi/lib/thumb/v7e-m/fpv4-sp/hard/libg_nano.a(lib_a-__atexit.o)
 .ARM.attributes
                0x0000000000000f0d       0x34 /usr/lib/gcc/arm-none-eabi/6.3.1/../../../arm-none-eabi/lib/thumb/v7e-m/fpv4-sp/hard/libg_nano.a(lib_a-__call_atexit.o)
 .ARM.attributes
                0x0000000000000f41       0x34 /usr/lib/gcc/arm-none-eabi/6.3.1/../../../arm-none-eabi/lib/thumb/v7e-m/fpv4-sp/hard/libg_nano.a(lib_a-fflush.o)
 .ARM.attributes
                0x0000000000000f75       0x34 /usr/lib/gcc/arm-none-eabi/6.3.1/../../../arm-none-eabi/lib/thumb/v7e-m/fpv4-sp/hard/libg_nano.a(lib_a-findfp.o)
 .ARM.attributes
                0x0000000000000fa9       0x34 /usr/lib/gcc/arm-none-eabi/6.3.1/../../../arm-none-eabi/lib/thumb/v7e-m/fpv4-sp/hard/libg_nano.a(lib_a-fwalk.o)
 .ARM.attributes
                0x0000000000000fdd       0x34 /usr/lib/gcc/arm-none-eabi/6.3.1/../../../arm-none-eabi/lib/thumb/v7e-m/fpv4-sp/hard/libg_nano.a(lib_a-makebuf.o)
 .ARM.attributes
                0x0000000000001011       0x34 /usr/lib/gcc/arm-none-eabi/6.3.1/../../../arm-none-eabi/lib/thumb/v7e-m/fpv4-sp/hard/libg_nano.a(lib_a-nano-svfprintf.o)
 .ARM.attributes
                0x0000000000001045       0x34 /usr/lib/gcc/arm-none-eabi/6.3.1/../../../arm-none-eabi/lib/thumb/v7e-m/fpv4-sp/hard/libg_nano.a(lib_a-nano-vfprintf.o)
 .ARM.attributes
                0x0000000000001079       0x34 /usr/lib/gcc/arm-none-eabi/6.3.1/../../../arm-none-eabi/lib/thumb/v7e-m/fpv4-sp/hard/libg_nano.a(lib_a-nano-vfprintf_i.o)
 .ARM.attributes
                0x00000000000010ad       0x34 /usr/lib/gcc/arm-none-eabi/6.3.1/../../../arm-none-eabi/lib/thumb/v7e-m/fpv4-sp/hard/libg_nano.a(lib_a-reent.o)
 .ARM.attributes
                0x00000000000010e1       0x34 /usr/lib/gcc/arm-none-eabi/6.3.1/../../../arm-none-eabi/lib/thumb/v7e-m/fpv4-sp/hard/libg_nano.a(lib_a-stdio.o)
 .ARM.attributes
                0x0000000000001115       0x34 /usr/lib/gcc/arm-none-eabi/6.3.1/../../../arm-none-eabi/lib/thumb/v7e-m/fpv4-sp/hard/libg_nano.a(lib_a-writer.o)
 .ARM.attributes
                0x0000000000001149       0x34 /usr/lib/gcc/arm-none-eabi/6.3.1/../../../arm-none-eabi/lib/thumb/v7e-m/fpv4-sp/hard/libg_nano.a(lib_a-closer.o)
 .ARM.attributes
                0x000000000000117d       0x34 /usr/lib/gcc/arm-none-eabi/6.3.1/../../../arm-none-eabi/lib/thumb/v7e-m/fpv4-sp/hard/libg_nano.a(lib_a-fstatr.o)
 .ARM.attributes
                0x00000000000011b1       0x34 /usr/lib/gcc/arm-none-eabi/6.3.1/../../../arm-none-eabi/lib/thumb/v7e-m/fpv4-sp/hard/libg_nano.a(lib_a-fvwrite.o)
 .ARM.attributes
                0x00000000000011e5       0x34 /usr/lib/gcc/arm-none-eabi/6.3.1/../../../arm-none-eabi/lib/thumb/v7e-m/fpv4-sp/hard/libg_nano.a(lib_a-isattyr.o)
 .ARM.attributes
                0x0000000000001219       0x34 /usr/lib/gcc/arm-none-eabi/6.3.1/../../../arm-none-eabi/lib/thumb/v7e-m/fpv4-sp/hard/libg_nano.a(lib_a-lseekr.o)
 .ARM.attributes
                0x000000000000124d       0x20 /usr/lib/gcc/arm-none-eabi/6.3.1/../../../arm-none-eabi/lib/thumb/v7e-m/fpv4-sp/hard/libg_nano.a(lib_a-memchr.o)
 .ARM.attributes
                0x000000000000126d       0x34 /usr/lib/gcc/arm-none-eabi/6.3.1/../../../arm-none-eabi/lib/thumb/v7e-m/fpv4-sp/hard/libg_nano.a(lib_a-memmove.o)
 .ARM.attributes
                0x00000000000012a1       0x34 /usr/lib/gcc/arm-none-eabi/6.3.1/../../../arm-none-eabi/lib/thumb/v7e-m/fpv4-sp/hard/libg_nano.a(lib_a-nano-reallocr.o)
 .ARM.attributes
                0x00000000000012d5       0x34 /usr/lib/gcc/arm-none-eabi/6.3.1/../../../arm-none-eabi/lib/thumb/v7e-m/fpv4-sp/hard/libg_nano.a(lib_a-readr.o)
 .ARM.attributes
                0x0000000000001309       0x34 /usr/lib/gcc/arm-none-eabi/6.3.1/../../../arm-none-eabi/lib/thumb/v7e-m/fpv4-sp/hard/libg_nano.a(lib_a-nano-msizer.o)
 .ARM.attributes
                0x000000000000133d       0x34 /usr/lib/gcc/arm-none-eabi/6.3.1/../../../arm-none-eabi/lib/thumb/v7e-m/fpv4-sp/hard/libnosys.a(fstat.o)
 .ARM.attributes
                0x0000000000001371       0x34 /usr/lib/gcc/arm-none-eabi/6.3.1/../../../arm-none-eabi/lib/thumb/v7e-m/fpv4-sp/hard/libnosys.a(isatty.o)
 .ARM.attributes
                0x00000000000013a5       0x34 /usr/lib/gcc/arm-none-eabi/6.3.1/../../../arm-none-eabi/lib/thumb/v7e-m/fpv4-sp/hard/libnosys.a(sbrk.o)
 .ARM.attributes
                0x00000000000013d9       0x34 /usr/lib/gcc/arm-none-eabi/6.3.1/../../../arm-none-eabi/lib/thumb/v7e-m/fpv4-sp/hard/libnosys.a(_exit.o)
 .ARM.attributes
                0x000000000000140d       0x34 /usr/lib/gcc/arm-none-eabi/6.3.1/thumb/v7e-m/fpv4-sp/hard/crtend.o
 .ARM.attributes
                0x0000000000001441       0x22 /usr/lib/gcc/arm-none-eabi/6.3.1/thumb/v7e-m/fpv4-sp/hard/crtn.o

.comment        0x0000000000000000       0x31
 .comment       0x0000000000000000       0x31 /usr/lib/gcc/arm-none-eabi/6.3.1/thumb/v7e-m/fpv4-sp/hard/crtbegin.o
                                         0x32 (size before relaxing)
 .comment       0x0000000000000031       0x32 /home/aee38/Documents/qorc-sdk/qomu_apps/qomu_helloworldsw/GCC_Project/output/c_lib_retarget.o
 .comment       0x0000000000000031       0x32 /home/aee38/Documents/qorc-sdk/qomu_apps/qomu_helloworldsw/GCC_Project/output/cli_args.o
 .comment       0x0000000000000031       0x32 /home/aee38/Documents/qorc-sdk/qomu_apps/qomu_helloworldsw/GCC_Project/output/cli_io.o
 .comment       0x0000000000000031       0x32 /home/aee38/Documents/qorc-sdk/qomu_apps/qomu_helloworldsw/GCC_Project/output/cli_loop.o
 .comment       0x0000000000000031       0x32 /home/aee38/Documents/qorc-sdk/qomu_apps/qomu_helloworldsw/GCC_Project/output/cli_misc.o
 .comment       0x0000000000000031       0x32 /home/aee38/Documents/qorc-sdk/qomu_apps/qomu_helloworldsw/GCC_Project/output/cli_platform.o
 .comment       0x0000000000000031       0x32 /home/aee38/Documents/qorc-sdk/qomu_apps/qomu_helloworldsw/GCC_Project/output/dbg_uart.o
 .comment       0x0000000000000031       0x32 /home/aee38/Documents/qorc-sdk/qomu_apps/qomu_helloworldsw/GCC_Project/output/eoss3_hal_fpga_usbserial.o
 .comment       0x0000000000000031       0x32 /home/aee38/Documents/qorc-sdk/qomu_apps/qomu_helloworldsw/GCC_Project/output/eoss3_hal_gpio.o
 .comment       0x0000000000000031       0x32 /home/aee38/Documents/qorc-sdk/qomu_apps/qomu_helloworldsw/GCC_Project/output/eoss3_hal_pad_config.o
 .comment       0x0000000000000031       0x32 /home/aee38/Documents/qorc-sdk/qomu_apps/qomu_helloworldsw/GCC_Project/output/eoss3_hal_rtc.o
 .comment       0x0000000000000031       0x32 /home/aee38/Documents/qorc-sdk/qomu_apps/qomu_helloworldsw/GCC_Project/output/eoss3_hal_spi.o
 .comment       0x0000000000000031       0x32 /home/aee38/Documents/qorc-sdk/qomu_apps/qomu_helloworldsw/GCC_Project/output/eoss3_hal_timer.o
 .comment       0x0000000000000031       0x32 /home/aee38/Documents/qorc-sdk/qomu_apps/qomu_helloworldsw/GCC_Project/output/eoss3_hal_uart.o
 .comment       0x0000000000000031       0x32 /home/aee38/Documents/qorc-sdk/qomu_apps/qomu_helloworldsw/GCC_Project/output/eoss3_hal_wdt.o
 .comment       0x0000000000000031       0x32 /home/aee38/Documents/qorc-sdk/qomu_apps/qomu_helloworldsw/GCC_Project/output/exceptions.o
 .comment       0x0000000000000031       0x32 /home/aee38/Documents/qorc-sdk/qomu_apps/qomu_helloworldsw/GCC_Project/output/fpga_loader.o
 .comment       0x0000000000000031       0x32 /home/aee38/Documents/qorc-sdk/qomu_apps/qomu_helloworldsw/GCC_Project/output/heap_4.o
 .comment       0x0000000000000031       0x32 /home/aee38/Documents/qorc-sdk/qomu_apps/qomu_helloworldsw/GCC_Project/output/list.o
 .comment       0x0000000000000031       0x32 /home/aee38/Documents/qorc-sdk/qomu_apps/qomu_helloworldsw/GCC_Project/output/main.o
 .comment       0x0000000000000031       0x32 /home/aee38/Documents/qorc-sdk/qomu_apps/qomu_helloworldsw/GCC_Project/output/main_dbg_cli_menu.o
 .comment       0x0000000000000031       0x32 /home/aee38/Documents/qorc-sdk/qomu_apps/qomu_helloworldsw/GCC_Project/output/pincfg_table.o
 .comment       0x0000000000000031       0x32 /home/aee38/Documents/qorc-sdk/qomu_apps/qomu_helloworldsw/GCC_Project/output/port.o
 .comment       0x0000000000000031       0x32 /home/aee38/Documents/qorc-sdk/qomu_apps/qomu_helloworldsw/GCC_Project/output/qomu_fpga.o
 .comment       0x0000000000000031       0x32 /home/aee38/Documents/qorc-sdk/qomu_apps/qomu_helloworldsw/GCC_Project/output/qomu_hardwaresetup.o
 .comment       0x0000000000000031       0x32 /home/aee38/Documents/qorc-sdk/qomu_apps/qomu_helloworldsw/GCC_Project/output/queue.o
 .comment       0x0000000000000031       0x32 /home/aee38/Documents/qorc-sdk/qomu_apps/qomu_helloworldsw/GCC_Project/output/s3x_clock.o
 .comment       0x0000000000000031       0x32 /home/aee38/Documents/qorc-sdk/qomu_apps/qomu_helloworldsw/GCC_Project/output/s3x_clock_hal.o
 .comment       0x0000000000000031       0x32 /home/aee38/Documents/qorc-sdk/qomu_apps/qomu_helloworldsw/GCC_Project/output/s3x_cpuload.o
 .comment       0x0000000000000031       0x32 /home/aee38/Documents/qorc-sdk/qomu_apps/qomu_helloworldsw/GCC_Project/output/s3x_dfs.o
 .comment       0x0000000000000031       0x32 /home/aee38/Documents/qorc-sdk/qomu_apps/qomu_helloworldsw/GCC_Project/output/s3x_lpm.o
 .comment       0x0000000000000031       0x32 /home/aee38/Documents/qorc-sdk/qomu_apps/qomu_helloworldsw/GCC_Project/output/s3x_pi.o
 .comment       0x0000000000000031       0x32 /home/aee38/Documents/qorc-sdk/qomu_apps/qomu_helloworldsw/GCC_Project/output/s3x_pwrcfg.o
 .comment       0x0000000000000031       0x32 /home/aee38/Documents/qorc-sdk/qomu_apps/qomu_helloworldsw/GCC_Project/output/s3x_qos.o
 .comment       0x0000000000000031       0x32 /home/aee38/Documents/qorc-sdk/qomu_apps/qomu_helloworldsw/GCC_Project/output/sec_debug.o
 .comment       0x0000000000000031       0x32 /home/aee38/Documents/qorc-sdk/qomu_apps/qomu_helloworldsw/GCC_Project/output/startup_EOSS3B_GCC.o
 .comment       0x0000000000000031       0x32 /home/aee38/Documents/qorc-sdk/qomu_apps/qomu_helloworldsw/GCC_Project/output/tasks.o
 .comment       0x0000000000000031       0x32 /home/aee38/Documents/qorc-sdk/qomu_apps/qomu_helloworldsw/GCC_Project/output/timers.o
 .comment       0x0000000000000031       0x32 /home/aee38/Documents/qorc-sdk/qomu_apps/qomu_helloworldsw/GCC_Project/output/vectors_CM4F_gcc.o
 .comment       0x0000000000000031       0x32 /usr/lib/gcc/arm-none-eabi/6.3.1/thumb/v7e-m/fpv4-sp/hard/libgcc.a(_udivmoddi4.o)
 .comment       0x0000000000000031       0x32 /usr/lib/gcc/arm-none-eabi/6.3.1/../../../arm-none-eabi/lib/thumb/v7e-m/fpv4-sp/hard/libg_nano.a(lib_a-atexit.o)
 .comment       0x0000000000000031       0x32 /usr/lib/gcc/arm-none-eabi/6.3.1/../../../arm-none-eabi/lib/thumb/v7e-m/fpv4-sp/hard/libg_nano.a(lib_a-exit.o)
 .comment       0x0000000000000031       0x32 /usr/lib/gcc/arm-none-eabi/6.3.1/../../../arm-none-eabi/lib/thumb/v7e-m/fpv4-sp/hard/libg_nano.a(lib_a-fini.o)
 .comment       0x0000000000000031       0x32 /usr/lib/gcc/arm-none-eabi/6.3.1/../../../arm-none-eabi/lib/thumb/v7e-m/fpv4-sp/hard/libg_nano.a(lib_a-impure.o)
 .comment       0x0000000000000031       0x32 /usr/lib/gcc/arm-none-eabi/6.3.1/../../../arm-none-eabi/lib/thumb/v7e-m/fpv4-sp/hard/libg_nano.a(lib_a-init.o)
 .comment       0x0000000000000031       0x32 /usr/lib/gcc/arm-none-eabi/6.3.1/../../../arm-none-eabi/lib/thumb/v7e-m/fpv4-sp/hard/libg_nano.a(lib_a-malloc.o)
 .comment       0x0000000000000031       0x32 /usr/lib/gcc/arm-none-eabi/6.3.1/../../../arm-none-eabi/lib/thumb/v7e-m/fpv4-sp/hard/libg_nano.a(lib_a-memset.o)
 .comment       0x0000000000000031       0x32 /usr/lib/gcc/arm-none-eabi/6.3.1/../../../arm-none-eabi/lib/thumb/v7e-m/fpv4-sp/hard/libg_nano.a(lib_a-nano-freer.o)
 .comment       0x0000000000000031       0x32 /usr/lib/gcc/arm-none-eabi/6.3.1/../../../arm-none-eabi/lib/thumb/v7e-m/fpv4-sp/hard/libg_nano.a(lib_a-nano-mallocr.o)
 .comment       0x0000000000000031       0x32 /usr/lib/gcc/arm-none-eabi/6.3.1/../../../arm-none-eabi/lib/thumb/v7e-m/fpv4-sp/hard/libg_nano.a(lib_a-printf.o)
 .comment       0x0000000000000031       0x32 /usr/lib/gcc/arm-none-eabi/6.3.1/../../../arm-none-eabi/lib/thumb/v7e-m/fpv4-sp/hard/libg_nano.a(lib_a-puts.o)
 .comment       0x0000000000000031       0x32 /usr/lib/gcc/arm-none-eabi/6.3.1/../../../arm-none-eabi/lib/thumb/v7e-m/fpv4-sp/hard/libg_nano.a(lib_a-sbrkr.o)
 .comment       0x0000000000000031       0x32 /usr/lib/gcc/arm-none-eabi/6.3.1/../../../arm-none-eabi/lib/thumb/v7e-m/fpv4-sp/hard/libg_nano.a(lib_a-snprintf.o)
 .comment       0x0000000000000031       0x32 /usr/lib/gcc/arm-none-eabi/6.3.1/../../../arm-none-eabi/lib/thumb/v7e-m/fpv4-sp/hard/libg_nano.a(lib_a-sprintf.o)
 .comment       0x0000000000000031       0x32 /usr/lib/gcc/arm-none-eabi/6.3.1/../../../arm-none-eabi/lib/thumb/v7e-m/fpv4-sp/hard/libg_nano.a(lib_a-strchr.o)
 .comment       0x0000000000000031       0x32 /usr/lib/gcc/arm-none-eabi/6.3.1/../../../arm-none-eabi/lib/thumb/v7e-m/fpv4-sp/hard/libg_nano.a(lib_a-strcpy.o)
 .comment       0x0000000000000031       0x32 /usr/lib/gcc/arm-none-eabi/6.3.1/../../../arm-none-eabi/lib/thumb/v7e-m/fpv4-sp/hard/libg_nano.a(lib_a-strncpy.o)
 .comment       0x0000000000000031       0x32 /usr/lib/gcc/arm-none-eabi/6.3.1/../../../arm-none-eabi/lib/thumb/v7e-m/fpv4-sp/hard/libg_nano.a(lib_a-strrchr.o)
 .comment       0x0000000000000031       0x32 /usr/lib/gcc/arm-none-eabi/6.3.1/../../../arm-none-eabi/lib/thumb/v7e-m/fpv4-sp/hard/libg_nano.a(lib_a-strtok_r.o)
 .comment       0x0000000000000031       0x32 /usr/lib/gcc/arm-none-eabi/6.3.1/../../../arm-none-eabi/lib/thumb/v7e-m/fpv4-sp/hard/libg_nano.a(lib_a-vsnprintf.o)
 .comment       0x0000000000000031       0x32 /usr/lib/gcc/arm-none-eabi/6.3.1/../../../arm-none-eabi/lib/thumb/v7e-m/fpv4-sp/hard/libg_nano.a(lib_a-wbuf.o)
 .comment       0x0000000000000031       0x32 /usr/lib/gcc/arm-none-eabi/6.3.1/../../../arm-none-eabi/lib/thumb/v7e-m/fpv4-sp/hard/libg_nano.a(lib_a-wsetup.o)
 .comment       0x0000000000000031       0x32 /usr/lib/gcc/arm-none-eabi/6.3.1/../../../arm-none-eabi/lib/thumb/v7e-m/fpv4-sp/hard/libg_nano.a(lib_a-__atexit.o)
 .comment       0x0000000000000031       0x32 /usr/lib/gcc/arm-none-eabi/6.3.1/../../../arm-none-eabi/lib/thumb/v7e-m/fpv4-sp/hard/libg_nano.a(lib_a-__call_atexit.o)
 .comment       0x0000000000000031       0x32 /usr/lib/gcc/arm-none-eabi/6.3.1/../../../arm-none-eabi/lib/thumb/v7e-m/fpv4-sp/hard/libg_nano.a(lib_a-fflush.o)
 .comment       0x0000000000000031       0x32 /usr/lib/gcc/arm-none-eabi/6.3.1/../../../arm-none-eabi/lib/thumb/v7e-m/fpv4-sp/hard/libg_nano.a(lib_a-findfp.o)
 .comment       0x0000000000000031       0x32 /usr/lib/gcc/arm-none-eabi/6.3.1/../../../arm-none-eabi/lib/thumb/v7e-m/fpv4-sp/hard/libg_nano.a(lib_a-fwalk.o)
 .comment       0x0000000000000031       0x32 /usr/lib/gcc/arm-none-eabi/6.3.1/../../../arm-none-eabi/lib/thumb/v7e-m/fpv4-sp/hard/libg_nano.a(lib_a-makebuf.o)
 .comment       0x0000000000000031       0x32 /usr/lib/gcc/arm-none-eabi/6.3.1/../../../arm-none-eabi/lib/thumb/v7e-m/fpv4-sp/hard/libg_nano.a(lib_a-nano-svfprintf.o)
 .comment       0x0000000000000031       0x32 /usr/lib/gcc/arm-none-eabi/6.3.1/../../../arm-none-eabi/lib/thumb/v7e-m/fpv4-sp/hard/libg_nano.a(lib_a-nano-vfprintf.o)
 .comment       0x0000000000000031       0x32 /usr/lib/gcc/arm-none-eabi/6.3.1/../../../arm-none-eabi/lib/thumb/v7e-m/fpv4-sp/hard/libg_nano.a(lib_a-nano-vfprintf_i.o)
 .comment       0x0000000000000031       0x32 /usr/lib/gcc/arm-none-eabi/6.3.1/../../../arm-none-eabi/lib/thumb/v7e-m/fpv4-sp/hard/libg_nano.a(lib_a-reent.o)
 .comment       0x0000000000000031       0x32 /usr/lib/gcc/arm-none-eabi/6.3.1/../../../arm-none-eabi/lib/thumb/v7e-m/fpv4-sp/hard/libg_nano.a(lib_a-stdio.o)
 .comment       0x0000000000000031       0x32 /usr/lib/gcc/arm-none-eabi/6.3.1/../../../arm-none-eabi/lib/thumb/v7e-m/fpv4-sp/hard/libg_nano.a(lib_a-writer.o)
 .comment       0x0000000000000031       0x32 /usr/lib/gcc/arm-none-eabi/6.3.1/../../../arm-none-eabi/lib/thumb/v7e-m/fpv4-sp/hard/libg_nano.a(lib_a-closer.o)
 .comment       0x0000000000000031       0x32 /usr/lib/gcc/arm-none-eabi/6.3.1/../../../arm-none-eabi/lib/thumb/v7e-m/fpv4-sp/hard/libg_nano.a(lib_a-fstatr.o)
 .comment       0x0000000000000031       0x32 /usr/lib/gcc/arm-none-eabi/6.3.1/../../../arm-none-eabi/lib/thumb/v7e-m/fpv4-sp/hard/libg_nano.a(lib_a-fvwrite.o)
 .comment       0x0000000000000031       0x32 /usr/lib/gcc/arm-none-eabi/6.3.1/../../../arm-none-eabi/lib/thumb/v7e-m/fpv4-sp/hard/libg_nano.a(lib_a-isattyr.o)
 .comment       0x0000000000000031       0x32 /usr/lib/gcc/arm-none-eabi/6.3.1/../../../arm-none-eabi/lib/thumb/v7e-m/fpv4-sp/hard/libg_nano.a(lib_a-lseekr.o)
 .comment       0x0000000000000031       0x32 /usr/lib/gcc/arm-none-eabi/6.3.1/../../../arm-none-eabi/lib/thumb/v7e-m/fpv4-sp/hard/libg_nano.a(lib_a-memmove.o)
 .comment       0x0000000000000031       0x32 /usr/lib/gcc/arm-none-eabi/6.3.1/../../../arm-none-eabi/lib/thumb/v7e-m/fpv4-sp/hard/libg_nano.a(lib_a-nano-reallocr.o)
 .comment       0x0000000000000031       0x32 /usr/lib/gcc/arm-none-eabi/6.3.1/../../../arm-none-eabi/lib/thumb/v7e-m/fpv4-sp/hard/libg_nano.a(lib_a-readr.o)
 .comment       0x0000000000000031       0x32 /usr/lib/gcc/arm-none-eabi/6.3.1/../../../arm-none-eabi/lib/thumb/v7e-m/fpv4-sp/hard/libg_nano.a(lib_a-nano-msizer.o)
 .comment       0x0000000000000031       0x32 /usr/lib/gcc/arm-none-eabi/6.3.1/../../../arm-none-eabi/lib/thumb/v7e-m/fpv4-sp/hard/libnosys.a(fstat.o)
 .comment       0x0000000000000031       0x32 /usr/lib/gcc/arm-none-eabi/6.3.1/../../../arm-none-eabi/lib/thumb/v7e-m/fpv4-sp/hard/libnosys.a(isatty.o)
 .comment       0x0000000000000031       0x32 /usr/lib/gcc/arm-none-eabi/6.3.1/../../../arm-none-eabi/lib/thumb/v7e-m/fpv4-sp/hard/libnosys.a(sbrk.o)
 .comment       0x0000000000000031       0x32 /usr/lib/gcc/arm-none-eabi/6.3.1/../../../arm-none-eabi/lib/thumb/v7e-m/fpv4-sp/hard/libnosys.a(_exit.o)
 .comment       0x0000000000000031       0x32 /usr/lib/gcc/arm-none-eabi/6.3.1/thumb/v7e-m/fpv4-sp/hard/crtend.o

.debug_line     0x0000000000000000    0x126ce
 .debug_line    0x0000000000000000       0x84 /usr/lib/gcc/arm-none-eabi/6.3.1/../../../arm-none-eabi/lib/thumb/v7e-m/fpv4-sp/hard/crt0.o
 .debug_line    0x0000000000000084      0x2f8 /home/aee38/Documents/qorc-sdk/qomu_apps/qomu_helloworldsw/GCC_Project/output/c_lib_retarget.o
 .debug_line    0x000000000000037c      0x68a /home/aee38/Documents/qorc-sdk/qomu_apps/qomu_helloworldsw/GCC_Project/output/cli_args.o
 .debug_line    0x0000000000000a06      0x434 /home/aee38/Documents/qorc-sdk/qomu_apps/qomu_helloworldsw/GCC_Project/output/cli_io.o
 .debug_line    0x0000000000000e3a      0x543 /home/aee38/Documents/qorc-sdk/qomu_apps/qomu_helloworldsw/GCC_Project/output/cli_loop.o
 .debug_line    0x000000000000137d      0x319 /home/aee38/Documents/qorc-sdk/qomu_apps/qomu_helloworldsw/GCC_Project/output/cli_misc.o
 .debug_line    0x0000000000001696      0x569 /home/aee38/Documents/qorc-sdk/qomu_apps/qomu_helloworldsw/GCC_Project/output/cli_platform.o
 .debug_line    0x0000000000001bff      0x777 /home/aee38/Documents/qorc-sdk/qomu_apps/qomu_helloworldsw/GCC_Project/output/dbg_uart.o
 .debug_line    0x0000000000002376      0x5ce /home/aee38/Documents/qorc-sdk/qomu_apps/qomu_helloworldsw/GCC_Project/output/eoss3_hal_fpga_usbserial.o
 .debug_line    0x0000000000002944      0x354 /home/aee38/Documents/qorc-sdk/qomu_apps/qomu_helloworldsw/GCC_Project/output/eoss3_hal_gpio.o
 .debug_line    0x0000000000002c98      0x3c3 /home/aee38/Documents/qorc-sdk/qomu_apps/qomu_helloworldsw/GCC_Project/output/eoss3_hal_pad_config.o
 .debug_line    0x000000000000305b      0x42f /home/aee38/Documents/qorc-sdk/qomu_apps/qomu_helloworldsw/GCC_Project/output/eoss3_hal_rtc.o
 .debug_line    0x000000000000348a      0x8c5 /home/aee38/Documents/qorc-sdk/qomu_apps/qomu_helloworldsw/GCC_Project/output/eoss3_hal_spi.o
 .debug_line    0x0000000000003d4f      0x6ed /home/aee38/Documents/qorc-sdk/qomu_apps/qomu_helloworldsw/GCC_Project/output/eoss3_hal_timer.o
 .debug_line    0x000000000000443c      0x806 /home/aee38/Documents/qorc-sdk/qomu_apps/qomu_helloworldsw/GCC_Project/output/eoss3_hal_uart.o
 .debug_line    0x0000000000004c42      0x527 /home/aee38/Documents/qorc-sdk/qomu_apps/qomu_helloworldsw/GCC_Project/output/eoss3_hal_wdt.o
 .debug_line    0x0000000000005169      0x9e9 /home/aee38/Documents/qorc-sdk/qomu_apps/qomu_helloworldsw/GCC_Project/output/exceptions.o
 .debug_line    0x0000000000005b52      0x44b /home/aee38/Documents/qorc-sdk/qomu_apps/qomu_helloworldsw/GCC_Project/output/fpga_loader.o
 .debug_line    0x0000000000005f9d      0x4bf /home/aee38/Documents/qorc-sdk/qomu_apps/qomu_helloworldsw/GCC_Project/output/heap_4.o
 .debug_line    0x000000000000645c      0x322 /home/aee38/Documents/qorc-sdk/qomu_apps/qomu_helloworldsw/GCC_Project/output/list.o
 .debug_line    0x000000000000677e      0x5bd /home/aee38/Documents/qorc-sdk/qomu_apps/qomu_helloworldsw/GCC_Project/output/main.o
 .debug_line    0x0000000000006d3b      0x41b /home/aee38/Documents/qorc-sdk/qomu_apps/qomu_helloworldsw/GCC_Project/output/main_dbg_cli_menu.o
 .debug_line    0x0000000000007156      0x266 /home/aee38/Documents/qorc-sdk/qomu_apps/qomu_helloworldsw/GCC_Project/output/pincfg_table.o
 .debug_line    0x00000000000073bc      0x5c5 /home/aee38/Documents/qorc-sdk/qomu_apps/qomu_helloworldsw/GCC_Project/output/port.o
 .debug_line    0x0000000000007981       0xc1 /home/aee38/Documents/qorc-sdk/qomu_apps/qomu_helloworldsw/GCC_Project/output/qomu_fpga.o
 .debug_line    0x0000000000007a42      0x382 /home/aee38/Documents/qorc-sdk/qomu_apps/qomu_helloworldsw/GCC_Project/output/qomu_hardwaresetup.o
 .debug_line    0x0000000000007dc4      0xa36 /home/aee38/Documents/qorc-sdk/qomu_apps/qomu_helloworldsw/GCC_Project/output/queue.o
 .debug_line    0x00000000000087fa      0xabd /home/aee38/Documents/qorc-sdk/qomu_apps/qomu_helloworldsw/GCC_Project/output/s3x_clock.o
 .debug_line    0x00000000000092b7      0x38d /home/aee38/Documents/qorc-sdk/qomu_apps/qomu_helloworldsw/GCC_Project/output/s3x_clock_hal.o
 .debug_line    0x0000000000009644      0x316 /home/aee38/Documents/qorc-sdk/qomu_apps/qomu_helloworldsw/GCC_Project/output/s3x_cpuload.o
 .debug_line    0x000000000000995a      0x77d /home/aee38/Documents/qorc-sdk/qomu_apps/qomu_helloworldsw/GCC_Project/output/s3x_dfs.o
 .debug_line    0x000000000000a0d7      0x6ec /home/aee38/Documents/qorc-sdk/qomu_apps/qomu_helloworldsw/GCC_Project/output/s3x_lpm.o
 .debug_line    0x000000000000a7c3      0x517 /home/aee38/Documents/qorc-sdk/qomu_apps/qomu_helloworldsw/GCC_Project/output/s3x_pi.o
 .debug_line    0x000000000000acda      0x45c /home/aee38/Documents/qorc-sdk/qomu_apps/qomu_helloworldsw/GCC_Project/output/s3x_pwrcfg.o
 .debug_line    0x000000000000b136      0x484 /home/aee38/Documents/qorc-sdk/qomu_apps/qomu_helloworldsw/GCC_Project/output/s3x_qos.o
 .debug_line    0x000000000000b5ba      0x3ca /home/aee38/Documents/qorc-sdk/qomu_apps/qomu_helloworldsw/GCC_Project/output/sec_debug.o
 .debug_line    0x000000000000b984      0x112 /home/aee38/Documents/qorc-sdk/qomu_apps/qomu_helloworldsw/GCC_Project/output/startup_EOSS3B_GCC.o
 .debug_line    0x000000000000ba96      0xf16 /home/aee38/Documents/qorc-sdk/qomu_apps/qomu_helloworldsw/GCC_Project/output/tasks.o
 .debug_line    0x000000000000c9ac      0x5cc /home/aee38/Documents/qorc-sdk/qomu_apps/qomu_helloworldsw/GCC_Project/output/timers.o
 .debug_line    0x000000000000cf78       0xf5 /home/aee38/Documents/qorc-sdk/qomu_apps/qomu_helloworldsw/GCC_Project/output/vectors_CM4F_gcc.o
 .debug_line    0x000000000000d06d       0x72 /usr/lib/gcc/arm-none-eabi/6.3.1/thumb/v7e-m/fpv4-sp/hard/libgcc.a(_lshrdi3.o)
 .debug_line    0x000000000000d0df       0x72 /usr/lib/gcc/arm-none-eabi/6.3.1/thumb/v7e-m/fpv4-sp/hard/libgcc.a(_ashldi3.o)
 .debug_line    0x000000000000d151       0x67 /usr/lib/gcc/arm-none-eabi/6.3.1/thumb/v7e-m/fpv4-sp/hard/libgcc.a(_aeabi_uldivmod.o)
 .debug_line    0x000000000000d1b8      0x258 /usr/lib/gcc/arm-none-eabi/6.3.1/thumb/v7e-m/fpv4-sp/hard/libgcc.a(_udivmoddi4.o)
 .debug_line    0x000000000000d410       0x67 /usr/lib/gcc/arm-none-eabi/6.3.1/thumb/v7e-m/fpv4-sp/hard/libgcc.a(_dvmd_tls.o)
 .debug_line    0x000000000000d477      0x157 /usr/lib/gcc/arm-none-eabi/6.3.1/../../../arm-none-eabi/lib/thumb/v7e-m/fpv4-sp/hard/libg_nano.a(lib_a-atexit.o)
 .debug_line    0x000000000000d5ce      0x15b /usr/lib/gcc/arm-none-eabi/6.3.1/../../../arm-none-eabi/lib/thumb/v7e-m/fpv4-sp/hard/libg_nano.a(lib_a-exit.o)
 .debug_line    0x000000000000d729       0xa5 /usr/lib/gcc/arm-none-eabi/6.3.1/../../../arm-none-eabi/lib/thumb/v7e-m/fpv4-sp/hard/libg_nano.a(lib_a-fini.o)
 .debug_line    0x000000000000d7ce       0xef /usr/lib/gcc/arm-none-eabi/6.3.1/../../../arm-none-eabi/lib/thumb/v7e-m/fpv4-sp/hard/libg_nano.a(lib_a-impure.o)
 .debug_line    0x000000000000d8bd       0xbe /usr/lib/gcc/arm-none-eabi/6.3.1/../../../arm-none-eabi/lib/thumb/v7e-m/fpv4-sp/hard/libg_nano.a(lib_a-init.o)
 .debug_line    0x000000000000d97b      0x15a /usr/lib/gcc/arm-none-eabi/6.3.1/../../../arm-none-eabi/lib/thumb/v7e-m/fpv4-sp/hard/libg_nano.a(lib_a-malloc.o)
 .debug_line    0x000000000000dad5       0xc1 /usr/lib/gcc/arm-none-eabi/6.3.1/../../../arm-none-eabi/lib/thumb/v7e-m/fpv4-sp/hard/libg_nano.a(lib_a-memcpy.o)
 .debug_line    0x000000000000db96      0x17c /usr/lib/gcc/arm-none-eabi/6.3.1/../../../arm-none-eabi/lib/thumb/v7e-m/fpv4-sp/hard/libg_nano.a(lib_a-memset.o)
 .debug_line    0x000000000000dd12      0x165 /usr/lib/gcc/arm-none-eabi/6.3.1/../../../arm-none-eabi/lib/thumb/v7e-m/fpv4-sp/hard/libg_nano.a(lib_a-nano-freer.o)
 .debug_line    0x000000000000de77      0x1a8 /usr/lib/gcc/arm-none-eabi/6.3.1/../../../arm-none-eabi/lib/thumb/v7e-m/fpv4-sp/hard/libg_nano.a(lib_a-nano-mallocr.o)
 .debug_line    0x000000000000e01f      0x1b0 /usr/lib/gcc/arm-none-eabi/6.3.1/../../../arm-none-eabi/lib/thumb/v7e-m/fpv4-sp/hard/libg_nano.a(lib_a-printf.o)
 .debug_line    0x000000000000e1cf      0x210 /usr/lib/gcc/arm-none-eabi/6.3.1/../../../arm-none-eabi/lib/thumb/v7e-m/fpv4-sp/hard/libg_nano.a(lib_a-puts.o)
 .debug_line    0x000000000000e3df      0x160 /usr/lib/gcc/arm-none-eabi/6.3.1/../../../arm-none-eabi/lib/thumb/v7e-m/fpv4-sp/hard/libg_nano.a(lib_a-sbrkr.o)
 .debug_line    0x000000000000e53f       0x7e /usr/lib/gcc/arm-none-eabi/6.3.1/../../../arm-none-eabi/lib/thumb/v7e-m/fpv4-sp/hard/libg_nano.a(lib_a-setjmp.o)
 .debug_line    0x000000000000e5bd      0x25e /usr/lib/gcc/arm-none-eabi/6.3.1/../../../arm-none-eabi/lib/thumb/v7e-m/fpv4-sp/hard/libg_nano.a(lib_a-snprintf.o)
 .debug_line    0x000000000000e81b      0x1bc /usr/lib/gcc/arm-none-eabi/6.3.1/../../../arm-none-eabi/lib/thumb/v7e-m/fpv4-sp/hard/libg_nano.a(lib_a-sprintf.o)
 .debug_line    0x000000000000e9d7      0x181 /usr/lib/gcc/arm-none-eabi/6.3.1/../../../arm-none-eabi/lib/thumb/v7e-m/fpv4-sp/hard/libg_nano.a(lib_a-strchr.o)
 .debug_line    0x000000000000eb58      0x13a /usr/lib/gcc/arm-none-eabi/6.3.1/../../../arm-none-eabi/lib/thumb/v7e-m/fpv4-sp/hard/libg_nano.a(lib_a-strcmp.o)
 .debug_line    0x000000000000ec92      0x153 /usr/lib/gcc/arm-none-eabi/6.3.1/../../../arm-none-eabi/lib/thumb/v7e-m/fpv4-sp/hard/libg_nano.a(lib_a-strcpy.o)
 .debug_line    0x000000000000ede5       0xb2 /usr/lib/gcc/arm-none-eabi/6.3.1/../../../arm-none-eabi/lib/thumb/v7e-m/fpv4-sp/hard/libg_nano.a(lib_a-strlen.o)
 .debug_line    0x000000000000ee97      0x16d /usr/lib/gcc/arm-none-eabi/6.3.1/../../../arm-none-eabi/lib/thumb/v7e-m/fpv4-sp/hard/libg_nano.a(lib_a-strncpy.o)
 .debug_line    0x000000000000f004      0x153 /usr/lib/gcc/arm-none-eabi/6.3.1/../../../arm-none-eabi/lib/thumb/v7e-m/fpv4-sp/hard/libg_nano.a(lib_a-strrchr.o)
 .debug_line    0x000000000000f157      0x185 /usr/lib/gcc/arm-none-eabi/6.3.1/../../../arm-none-eabi/lib/thumb/v7e-m/fpv4-sp/hard/libg_nano.a(lib_a-strtok_r.o)
 .debug_line    0x000000000000f2dc      0x1e2 /usr/lib/gcc/arm-none-eabi/6.3.1/../../../arm-none-eabi/lib/thumb/v7e-m/fpv4-sp/hard/libg_nano.a(lib_a-vsnprintf.o)
 .debug_line    0x000000000000f4be      0x1e5 /usr/lib/gcc/arm-none-eabi/6.3.1/../../../arm-none-eabi/lib/thumb/v7e-m/fpv4-sp/hard/libg_nano.a(lib_a-wbuf.o)
 .debug_line    0x000000000000f6a3      0x1e5 /usr/lib/gcc/arm-none-eabi/6.3.1/../../../arm-none-eabi/lib/thumb/v7e-m/fpv4-sp/hard/libg_nano.a(lib_a-wsetup.o)
 .debug_line    0x000000000000f888      0x192 /usr/lib/gcc/arm-none-eabi/6.3.1/../../../arm-none-eabi/lib/thumb/v7e-m/fpv4-sp/hard/libg_nano.a(lib_a-__atexit.o)
 .debug_line    0x000000000000fa1a      0x1bf /usr/lib/gcc/arm-none-eabi/6.3.1/../../../arm-none-eabi/lib/thumb/v7e-m/fpv4-sp/hard/libg_nano.a(lib_a-__call_atexit.o)
 .debug_line    0x000000000000fbd9      0x244 /usr/lib/gcc/arm-none-eabi/6.3.1/../../../arm-none-eabi/lib/thumb/v7e-m/fpv4-sp/hard/libg_nano.a(lib_a-fflush.o)
 .debug_line    0x000000000000fe1d      0x29e /usr/lib/gcc/arm-none-eabi/6.3.1/../../../arm-none-eabi/lib/thumb/v7e-m/fpv4-sp/hard/libg_nano.a(lib_a-findfp.o)
 .debug_line    0x00000000000100bb      0x1ca /usr/lib/gcc/arm-none-eabi/6.3.1/../../../arm-none-eabi/lib/thumb/v7e-m/fpv4-sp/hard/libg_nano.a(lib_a-fwalk.o)
 .debug_line    0x0000000000010285      0x279 /usr/lib/gcc/arm-none-eabi/6.3.1/../../../arm-none-eabi/lib/thumb/v7e-m/fpv4-sp/hard/libg_nano.a(lib_a-makebuf.o)
 .debug_line    0x00000000000104fe      0x3a3 /usr/lib/gcc/arm-none-eabi/6.3.1/../../../arm-none-eabi/lib/thumb/v7e-m/fpv4-sp/hard/libg_nano.a(lib_a-nano-svfprintf.o)
 .debug_line    0x00000000000108a1      0x362 /usr/lib/gcc/arm-none-eabi/6.3.1/../../../arm-none-eabi/lib/thumb/v7e-m/fpv4-sp/hard/libg_nano.a(lib_a-nano-vfprintf.o)
 .debug_line    0x0000000000010c03      0x3a1 /usr/lib/gcc/arm-none-eabi/6.3.1/../../../arm-none-eabi/lib/thumb/v7e-m/fpv4-sp/hard/libg_nano.a(lib_a-nano-vfprintf_i.o)
 .debug_line    0x0000000000010fa4      0x182 /usr/lib/gcc/arm-none-eabi/6.3.1/../../../arm-none-eabi/lib/thumb/v7e-m/fpv4-sp/hard/libg_nano.a(lib_a-reent.o)
 .debug_line    0x0000000000011126      0x1bb /usr/lib/gcc/arm-none-eabi/6.3.1/../../../arm-none-eabi/lib/thumb/v7e-m/fpv4-sp/hard/libg_nano.a(lib_a-stdio.o)
 .debug_line    0x00000000000112e1      0x163 /usr/lib/gcc/arm-none-eabi/6.3.1/../../../arm-none-eabi/lib/thumb/v7e-m/fpv4-sp/hard/libg_nano.a(lib_a-writer.o)
 .debug_line    0x0000000000011444      0x161 /usr/lib/gcc/arm-none-eabi/6.3.1/../../../arm-none-eabi/lib/thumb/v7e-m/fpv4-sp/hard/libg_nano.a(lib_a-closer.o)
 .debug_line    0x00000000000115a5      0x1ea /usr/lib/gcc/arm-none-eabi/6.3.1/../../../arm-none-eabi/lib/thumb/v7e-m/fpv4-sp/hard/libg_nano.a(lib_a-fstatr.o)
 .debug_line    0x000000000001178f      0x2c1 /usr/lib/gcc/arm-none-eabi/6.3.1/../../../arm-none-eabi/lib/thumb/v7e-m/fpv4-sp/hard/libg_nano.a(lib_a-fvwrite.o)
 .debug_line    0x0000000000011a50      0x162 /usr/lib/gcc/arm-none-eabi/6.3.1/../../../arm-none-eabi/lib/thumb/v7e-m/fpv4-sp/hard/libg_nano.a(lib_a-isattyr.o)
 .debug_line    0x0000000000011bb2      0x163 /usr/lib/gcc/arm-none-eabi/6.3.1/../../../arm-none-eabi/lib/thumb/v7e-m/fpv4-sp/hard/libg_nano.a(lib_a-lseekr.o)
 .debug_line    0x0000000000011d15       0xa7 /usr/lib/gcc/arm-none-eabi/6.3.1/../../../arm-none-eabi/lib/thumb/v7e-m/fpv4-sp/hard/libg_nano.a(lib_a-memchr.o)
 .debug_line    0x0000000000011dbc      0x182 /usr/lib/gcc/arm-none-eabi/6.3.1/../../../arm-none-eabi/lib/thumb/v7e-m/fpv4-sp/hard/libg_nano.a(lib_a-memmove.o)
 .debug_line    0x0000000000011f3e      0x181 /usr/lib/gcc/arm-none-eabi/6.3.1/../../../arm-none-eabi/lib/thumb/v7e-m/fpv4-sp/hard/libg_nano.a(lib_a-nano-reallocr.o)
 .debug_line    0x00000000000120bf      0x162 /usr/lib/gcc/arm-none-eabi/6.3.1/../../../arm-none-eabi/lib/thumb/v7e-m/fpv4-sp/hard/libg_nano.a(lib_a-readr.o)
 .debug_line    0x0000000000012221      0x115 /usr/lib/gcc/arm-none-eabi/6.3.1/../../../arm-none-eabi/lib/thumb/v7e-m/fpv4-sp/hard/libg_nano.a(lib_a-nano-msizer.o)
 .debug_line    0x0000000000012336      0x1ce /usr/lib/gcc/arm-none-eabi/6.3.1/../../../arm-none-eabi/lib/thumb/v7e-m/fpv4-sp/hard/libnosys.a(fstat.o)
 .debug_line    0x0000000000012504      0x108 /usr/lib/gcc/arm-none-eabi/6.3.1/../../../arm-none-eabi/lib/thumb/v7e-m/fpv4-sp/hard/libnosys.a(isatty.o)
 .debug_line    0x000000000001260c       0x61 /usr/lib/gcc/arm-none-eabi/6.3.1/../../../arm-none-eabi/lib/thumb/v7e-m/fpv4-sp/hard/libnosys.a(sbrk.o)
 .debug_line    0x000000000001266d       0x61 /usr/lib/gcc/arm-none-eabi/6.3.1/../../../arm-none-eabi/lib/thumb/v7e-m/fpv4-sp/hard/libnosys.a(_exit.o)

.debug_info     0x0000000000000000    0x56e31
 .debug_info    0x0000000000000000       0xb7 /usr/lib/gcc/arm-none-eabi/6.3.1/../../../arm-none-eabi/lib/thumb/v7e-m/fpv4-sp/hard/crt0.o
